:020000040800F2
:1000000020070024390300080333000837310008B3
:1000100001330008A30400087D3800080000000038
:10002000000000000000000000000000F1360008A1
:10003000A50400080000000005330008F33600089E
:100040005303000853030008530300085303000838
:100050005303000853030008530300085303000828
:100060005303000853030008530300085303000818
:100070005303000853030008530300085303000808
:1000800053030008530300085303000853030008F8
:1000900053030008530300085303000853030008E8
:1000A00053030008530300085303000853030008D8
:1000B00053030008530300085303000853030008C8
:1000C00053030008530300085303000853030008B8
:1000D00053030008530300085303000853030008A8
:1000E00053030008530300080000000053030008F6
:1000F0005303000853030008530300085303000888
:100100005303000853030008530300085303000877
:100110005303000853030008530300085303000867
:100120005303000853030008530300085303000857
:100130005303000853030008530300085303000847
:1001400000000000000000000000000000000000AF
:100150005303000853030008530300085303000827
:100160005303000853030008530300085303000817
:100170005303000853030008530300080000000065
:1001800053030008530300085303000853030008F7
:1001900053030008530300085303000853030008E7
:1001A00053030008530300085303000853030008D7
:1001B00053030008530300085303000853030008C7
:1001C00053030008530300085303000853030008B7
:1001D00053030008530300085303000853030008A7
:1001E0005303000853030008530300085303000897
:1001F0005303000853030008530300085303000887
:100200005303000853030008530300085303000876
:100210005303000853030008530300085303000866
:1002200053030008530300085303000800000000B4
:1002300053030008530300080000000053030008A4
:100240005303000853030008530300085303000836
:100250005303000853030008530300085303000826
:100260005303000853030008530300085303000816
:100270005303000853030008530300080000000064
:100280005303000853030008530300080000000054
:10029000000000005303000800F002F800F03CF8F2
:1002A0000AA090E8000C82448344AAF10107DA45D1
:1002B00001D100F031F8AFF2090EBAE80F0013F0E7
:1002C000010F18BFFB1A43F001031847383700002D
:1002D00058370000103A24BF78C878C1FAD85207BE
:1002E00024BF30C830C144BF04680C6070470000B0
:1002F0000023002400250026103A28BF78C1FBD82F
:10030000520728BF30C148BF0B6070471FB503F0CC
:100310003DFB1FBD10B510BD00F08AF81146FFF778
:10032000F5FF03F0F5FA00F0A8F803B4FFF7F2FFC9
:1003300003BC00F0AFF800000948804709480047B7
:10034000FEE7FEE7FEE7FEE7FEE7FEE7FEE7FEE785
:10035000FEE7FEE704480549054A064B70470000E2
:10036000A13700089902000820010024200700247A
:10037000200300242003002410B5203AC0F00B8095
:10038000B1E81850203AA0E81850B1E81850A0E899
:100390001850BFF4F5AF5FEA027C24BFB1E81850F3
:1003A000A0E8185044BF18C918C0BDE810405FEA63
:1003B000827C24BF51F8043B40F8043B08BF7047DF
:1003C000D20728BF31F8023B48BF11F8012B28BFE4
:1003D00020F8023B48BF00F8012B70474FF00002A5
:1003E00000B5134694469646203922BFA0E80C502B
:1003F000A0E80C50B1F12001BFF4F7AF090728BF06
:10040000A0E80C5048BF0CC05DF804EB890028BF81
:1004100040F8042B08BF704748BF20F8022B11F0AA
:10042000804F18BF00F8012B704770477047704726
:10043000754600F02BF8AE4605006946534620F09D
:100440000700854618B020B5FFF784FFBDE82040BF
:100450004FF000064FF000074FF000084FF0000B80
:1004600021F00701AC46ACE8C009ACE8C009ACE833
:10047000C009ACE8C0098D46704710B50446AFF31B
:1004800000802046BDE81040FFF74FBF004870478E
:10049000BC00002401491820ABBEFEE72600020084
:1004A0007047FEE7704772B6FEE70000F0B50368DC
:1004B0004FF6FC716D4C426BD3F884508D4345EA86
:1004C0008205C3F88450036853F8845F068F25F4CF
:1004D0007F0545EA06451D60836B654D9F180268E0
:1004E000D2F888308B4343EA8703C2F88830026829
:1004F00052F8883F868F23F4FE0343EA06431360D5
:10050000066856F8A03FC26B8B4307EB420243EAF2
:1005100082033360076857F8A03FB0F8406023F4C7
:10052000FE0343EA06433B60D0E9103603FB062294
:100530000368D3F8B0608E4346EA8206C3F8B06021
:100540000368B0F84860D3F8B07027F4FE0747EAB4
:100550000646C3F8B060D0E91267036806FB0722BD
:10056000D3F8AC608E4346EA8206C3F8AC60D0E9AB
:100570001467036806FB0722D3F8F0608E4346EA4F
:100580008206C3F8F0600368B0F85860D3F8F070E2
:1005900027F47C1747EA0646C3F8F0600368876DC6
:1005A00053F8C06F02EB47028E4346EA820119609E
:1005B0000168B0F85C20D1F8C03023F47C1343EA22
:1005C0000242C1F8C020016890F86020D1F8C03024
:1005D00023F07C5343EA0262C1F8C020416B04EB74
:1005E0008101C166826B01EB82020267C36B02EB81
:1005F000C3024267D0E91034634302EB830282678F
:10060000D0E91234634302EB8302C267D0E91434A9
:10061000634302EB8302C0F88020836D02EBC303C7
:10062000C0F88430C46D826E544303EB8403C0F879
:100630008830046E544303EB8402C0F89020AA4231
:100640000AD9D0F89C20032142F02002C0F89C2057
:1006500080F898100120F0BD002200E004C1D0F81D
:1006600090308B42FAD80020F0BD000000AC004072
:10067000FCD30040F0B58E680C69D1E9005744EA1C
:100680000604DFB145F080452C43866ED1E906C5EE
:100690004F695E4391F8203045EA0C05B1F80CC073
:1006A000D0F884E0002047EA03630C4F1D430EEBB3
:1006B000860345EA0C45E3E802450AE044EA85443E
:1006C000E3E71418155C001DD4F8014045EA042442
:1006D00010C3CC683C5D8442F3D8F0BD9839000863
:1006E00070B5044600F050FD0546601C02D0044879
:1006F0000078044400F048FD401BA042FAD370BDCE
:10070000080000242DE9F041054648684FF00057E5
:10071000164600280C467AD0B0F1804F07D055A07D
:1007200040F6AC2103F0BCF8606800286FD0206868
:10073000B84204D340F6B3214EA003F0B1F8A0684C
:1007400030B1B84204D04BA040F6B52103F0A8F870
:10075000E36813B3012B20D0022B1ED0032B1CD037
:10076000042B1AD0052B18D0062B16D0072B14D02B
:10077000082B12D0092B10D00A2B0ED00B2B0CD02B
:100780000C2B0AD00D2B08D00E2B06D00F2B04D02B
:1007900038A040F6B62103F083F8206938B1B0F1F3
:1007A000004F04D033A040F6B72103F079F8606918
:1007B00038B1B0F5801F04D02EA040F6B82103F068
:1007C0006FF8A06938B1B0F5001F04D029A040F639
:1007D000B92103F065F8E06938B1B0F5000F04D035
:1007E00024A040F6BA2103F05BF8206AFF2804D960
:1007F00020A040F6BB2103F053F895F8980002289A
:100800000CD0D5F89C0040F0080015E0FFE7206808
:10081000B0F5006F93D340F6AF218DE72868D0F88C
:10082000C01011F07C5F0CD0D0F8C41089020DD537
:10083000D5F89C0040F40070C5F89C000120BDE88C
:10084000F081D5F89C0040F02000F5E7D0F8C40016
:1008500032462146C0F3044728463B46FFF70AFFCD
:1008600029680120B840C1F8D000C5F894000020E4
:10087000E5E700002E2E2F447269766572732F53C0
:10088000544D3332483778785F48414C5F44726941
:100890007665722F5372632F73746D3332683778B5
:1008A000785F68616C5F666463616E2E6300000050
:1008B0002DE9F04393B0FF494C2204466846FFF708
:1008C0005BFD002C7ED0FC492068884202D100F5F7
:1008D00080726260894607D0F849884204D0F8A047
:1008E00040F2371102F0DCFFA0684FF4407548B1C8
:1008F000B0F5807F06D0A84204D04FF49C71F0A0E0
:1009000002F0CEFFE06860B101280AD0022808D0CA
:10091000032806D0042804D0E9A040F2391102F0DF
:10092000BFFF207C30B1012804D0E5A04FF49D71B9
:1009300002F0B6FF607C30B1012804D0E0A040F2A4
:100940003B1102F0ADFFA07C30B1012804D04FF480
:100950009E71DBA002F0A4FF6069401EB0F5007F2D
:1009600004D3D7A040F23D1102F09AFFA069401EC7
:100970007F2804D9D2A04FF49F7102F091FFE06963
:10098000401EFF2804D9CEA040F23F1102F088FF9C
:10099000206A401E7F2804D94FF4A071C8A002F03D
:1009A0007FFFA068A846404525D1606A401E1F28E9
:1009B00004D9C3A040F2431102F072FFA06A401EA6
:1009C0000F2800E0C4E004D94FF4A271BCA002F0EB
:1009D00067FFE06A401E1F2804D9B9A040F2451104
:1009E00002F05EFF206B401E0F2804D9B4A04FF424
:1009F000A37102F055FFA06B802804D94FF4A471B5
:100A0000AFA002F04DFFE06B402804D9ACA040F24B
:100A1000491102F045FF206C402804D9A8A04FF4EA
:100A2000A57102F03DFF206CA8B1606C042812D0C3
:100A3000052810D006280ED007280CD008280AD088
:100A40000A2808D00E2806D0122804D09CA040F214
:100A50004D1102F025FFA06C402804D998A040F267
:100A60004F1102F01DFFA06CA8B1E06C042812D059
:100A7000052810D006280ED007280CD008280AD048
:100A80000A2808D00E2806D0122804D08CA04FF4D3
:100A9000A97102F005FF206D402804D94FF4AA7116
:100AA00087A002F0FDFE206DA8B1606D042812D071
:100AB000052810D006280ED007280CD008280AD008
:100AC0000A2808D00E2806D0122804D07CA040F2B4
:100AD000571102F0E5FEA06D202804D978A040F25D
:100AE000591102F0DDFED4E917010844202804D989
:100AF00073A04FF4AD7102F0D3FE206E48B1606E6A
:100B000038B1B0F1804F04D06DA040F25D1102F019
:100B1000C7FED4E91701C84215D0A06E042812D030
:100B2000052810D006280ED007280CD008280AD097
:100B30000A2808D00E2806D0122804D060A040F25F
:100B4000611102F0ADFE94F89800002520B108E094
:100B5000012013B0BDE8F083204684F8995000F0DE
:100B600025F92068816921F01001816100F00CFBFA
:100B70000327064605E000BF00F006FB801B0A289D
:100B800011D8206880690007F6D42068816941F097
:100B90000101816100F0F8FA06460DE000F0F4FA78
:100BA000801B0A2808D9D4F89C0040F00100C4F842
:100BB0009C0084F89870CBE720688069C007EDD06E
:100BC0002068816941F002018161207C0128206850
:100BD000816937D041F040018161607C0128206843
:100BE000816932D021F480418161A07C0128206894
:100BF00081692DD041F4805181612068A2688169AA
:100C000021F44071114381612068816921F0A401C0
:100C100081612068016921F010010161E06801280B
:100C200019D010B302281BD02068816941F08001DF
:100C300081612068016941F010010161E0680328C9
:100C40000ED012E021F04001C6E741F48041CBE72D
:100C500021F48051D0E72068816941F0040103E06C
:100C60002068816941F020018161207E6FF0FF01E1
:100C7000D4E90773A68A0A02400601EB0727A0F110
:100C80000070384327685B1E184302EB064630436A
:100C9000F861A068404537D104F12800A68C6FF0B8
:100CA0000F0C89C8401E01EB032108430CEB07130E
:100CB00024E00000A839000800A0004000A4004083
:100CC0002E2E2F447269766572732F53544D333232
:100CD000483778785F48414C5F4472697665722F77
:100CE0005372632F73746D3332683778785F68613D
:100CF0006C5F666463616E2E6300000002EB064168
:100D0000226818430843D060206E30B12068626EBC
:100D1000D0F8C0101143C0F8C010D4E917126846CB
:100D2000D14209D02168A36E51F8C82F50F8233062
:100D300022F007021A430A60216C49B12168636CF2
:100D400051F8BC2F50F8233022F007021A430A60F2
:100D5000A16C51B12168E26C51F8BC3F50F82220DF
:100D600023F0700343EA02120A60216D51B1216839
:100D7000636D51F8BC2F50F8230022F4E06242EA80
:100D8000002008602168494504D16068816821F02D
:100D900003018160C4F894500120C4F89C5084F889
:100DA00098002046FFF782FBD3E6000010B5B6B0EE
:100DB0000446142130A8FFF711FBC0216846FFF755
:100DC0000DFB1A49206888422DD100204FF40041C4
:100DD000CDE900104A0368461C9200F03FFC08B1C0
:100DE000FFF761FB1248016841F4807101600068FF
:100DF00000F4807035900E480C38016841F0010114
:100E0000016000680923022200F0010035900020F3
:100E10004FF4C051309130A9CDE93120CDE93303F1
:100E2000044800F009F836B010BD000000A00040F2
:100E3000EC440258000002582DE9F84FDFF8CC923C
:100E40000026DFF8CC820D46DFF8C8A248450446EC
:100E500020D054451ED0B04884421BD0AF488442B5
:100E600018D0AF48844215D0AE48844212D0AE4864
:100E700084420FD0AD4884420CD0AD48844209D0A2
:100E8000AC48844206D0AC48844203D0B321ABA026
:100E900002F006FD28680104090C01D0000C03D003
:100EA000B421A6A002F0FCFC68684FF0030B0028F8
:100EB0001FD00128FCD01128FAD00228F8D012281F
:100EC000F6D0B0F5881FF3D0B0F5041FF0D0B0F520
:100ED000441FEDD0B0F5901FEAD0B0F5081FE7D061
:100EE000B0F5481FE4D00328E2D0B52193A002F06A
:100EF000D7FC03E10120B04011EA000700907DD04B
:100F0000287900F00300012801D002281DD1E868EB
:100F100048B1012807D0022805D0032803D0C421F6
:100F200086A002F0BDFCA1687200E8680BFA02F32B
:100F3000994390400843A06060682979009AC1F302
:100F400000119043B140014361602879C04380079C
:100F500012D0A86838B1012805D0022803D0D621C4
:100F600076A002F09DFCE0687200A9680BFA02F31B
:100F7000984391400143E160287900F00300022882
:100F80003AD14C4520D054451ED0634884421BD0F2
:100F90006248844218D06248844215D06148844235
:100FA00012D0614884420FD0604884420CD060481F
:100FB000844209D05F48844206D05F48844203D00F
:100FC000E3215EA002F06CFC28690F2803D9E4211C
:100FD0005AA002F065FCF00829690F2304EB800297
:100FE0004FEA467C106A4FEADC6C03FA0CF3984334
:100FF00001FA0CF101431162297900E07DE02068DB
:10100000720001F003010BFA02F39140984301438F
:101010002160686810F4403F6FD05748016841F084
:1010200002010160006826F0030202F1B04200F004
:1010300002000090B007D2F808140F23000F83407D
:101040004C4521EA030101D100232CE0544501D194
:10105000012328E0304B9C4201D1022323E02F4B97
:101060009C4201D103231EE02D4B9C4201D104235D
:1010700019E02C4B9C4201D1052314E02A4B9C42E1
:1010800001D106230FE0294B9C4201D107230AE03E
:10109000274B9C4201D1082305E0264B9C4201D1FD
:1010A000092300E00A2383400B43C2F808344FF0C1
:1010B000B0406A680168D20221EA070100D53943CD
:1010C00001606A684168920221EA070100D539434C
:1010D0004160D8F80400696820EA0700890300D558
:1010E0003843C8F80400D8F80000696820EA07000F
:1010F000C90300D53843C8F80000761C2F6839466C
:10110000F7407FF4F7AEBDE8F88F0000000002580A
:10111000800000580004025800080258000C0258D1
:10112000001002580014025800180258001C0258FF
:101130000020025800240258002802582E2E2F4466
:101140007269766572732F53544D3332483778780D
:101150005F48414C5F4472697665722F5372632F0A
:1011600073746D3332683778785F68616C5F67706D
:10117000696F2E6300000000F444025801480068C3
:10118000000C70470010005C014880687047000048
:101190000800002402488168027811448160704789
:1011A00008000024032010B500F0C6F901F04AFB46
:1011B0000F4A104914681368C4F3032203F00F03A5
:1011C0008A5CC95C02F01F0201F01F01D0400A4A8C
:1011D00020FA01F11160094908600F2000F010F8B1
:1011E00008B1012010BD00F04BF9002010BD000037
:1011F00018440258F4390008180000241400002490
:1012000070B50D4D04462878A0B14FF47A71B1FB4A
:10121000F0F00A490968B1FBF0F001F079FF48B934
:10122000102C07D200222146501E00F037F9002072
:101230006C6070BD012070BD080000241400002403
:101240002DE9F0410446407810B3012820D002284F
:101250001ED003281CD004281AD0052818D0062830
:1012600016D0072814D0082812D0092810D00A2830
:101270000ED00B280CD00C280AD00D2808D00E2830
:1012800006D00F2804D05EA040F24D1102F008FBFA
:101290002078012805D020B159A04FF4A77102F0A1
:1012A000FFFA207B30B1012804D055A040F24F1145
:1012B00002F0F6FAE07A70B101280CD002280AD0C8
:1012C000032808D0052806D0062804D04FF4A871BA
:1012D0004BA002F0E5FAA07A40B1012806D002281E
:1012E00004D047A040F2511102F0DAFA607B0128E5
:1012F00005D020B142A04FF4A97102F0D1FAA07B31
:10130000012805D020B13EA040F2531102F0C8FAE6
:10131000E07B012805D020B14FF4AA7138A002F07B
:10132000BFFA607AFF2804D335A040F2551102F0CD
:10133000B7FA217A04293AD0052938D0062936D0BF
:10134000072934D0082932D0092930D00A292ED0D3
:101350000B292CD00C292AD00D2928D00E2926D0D3
:101360000F2924D0102922D0112920D012291ED0D3
:1013700013291CD014291AD0152918D0162916D0D3
:10138000172914D0182912D0192910D01A290ED0D3
:101390001B290CD01C290AD01D2908D01E2906D0D3
:1013A0001F2904D016A04FF4AB7102F079FA234A3A
:1013B0006178083A214811600268011F22F0010299
:1013C000026062680A60257BE67AA17A627B2D075B
:1013D000A37B45EA0665E77B45EAC14194F809C06D
:1013E00041EA8241267A41EA434141EA07412478B1
:1013F00041EA0C2141EA460121430160BDE8F08148
:101400002E2E2F447269766572732F53544D3332EA
:10141000483778785F48414C5F4472697665722F2F
:101420005372632F73746D3332683778785F6861F5
:101430006C5F636F727465782E630000A0ED00E04E
:10144000BFF35F8F044800210368034A23F480330D
:10145000036070321160704724ED00E0074A40F0ED
:101460000100064970321060086840F4803008605E
:10147000BFF34F8FBFF36F8F7047000024ED00E084
:10148000054808B5016841F002010160006800F0FC
:101490000200009008BD0000F444025870B5102A04
:1014A00014460D46064603D3A92113A002F0F8F90D
:1014B000102D03D3AA2110A002F0F2F91D480068F4
:1014C000C0F30223C3F10702042A00D90422181D25
:1014D000072801D2002300E0DB1E012101FA02F0FF
:1014E0009940401E2840491E984021400143304603
:1014F000BDE8704002F0C3B92E2E2F4472697665A4
:1015000072732F53544D3332483778785F48414CCB
:101510005F4472697665722F5372632F73746D33F3
:1015200032683778785F68616C5F636F7274657872
:101530002E6300000CED00E070B5072804460BD0C8
:10154000062C09D0052C07D0042C05D0032C03D081
:10155000912108A002F0A4F9154904F007024FF602
:10156000FF050868134B284040EA02201843086032
:1015700070BD00002E2E2F447269766572732F5352
:10158000544D3332483778785F48414C5F44726934
:101590007665722F5372632F73746D3332683778A8
:1015A000785F68616C5F636F727465782E630000AA
:1015B0000CED00E00000FA0570B50228044606D0E4
:1015C000012C04D015A04FF49F7102F069F9224854
:1015D0000168C943490705D5006800F00700A0422B
:1015E00013D118E0016821F0070121430160FFF7E2
:1015F000CBFD194D4FF47A760446083D07E000BF55
:10160000FFF7C2FD001BB04201D9012070BD286860
:10161000C0438004F4D4002070BD00002E2E2F445F
:101620007269766572732F53544D33324837787828
:101630005F48414C5F4472697665722F5372632F25
:1016400073746D3332683778785F68616C5F707778
:10165000725F65782E6300000C4802582DE9FE4F3A
:101660000446DFF8008450F8081B0025FD4FC943ED
:10167000019004F128002E4608F12408009008018A
:101680001DD4A06E50B1B0F5801F0CD0B0F5001F76
:101690000ED0B0F5401F1ED001250FE0386840F491
:1016A0000030386017E00198022101F02DFE03E0C0
:1016B0000098022101F020FF05000CD02E46208862
:1016C000C043C00523D4A06D05281ED2DFE800F07A
:1016D0000C11161B1B00A26ED8F8001021F440114B
:1016E0001143C8F80010EAE7386840F40030386069
:1016F00009E00198002101F007FE03E000980021B5
:1017000001F0FAFE054675B100E001252E4620885D
:10171000C043800528D4E06D80281ED00CDC90B139
:1017200040280ED114E0A26DD8F8001021F0070176
:101730001143C8F80010EAE7C02813D0B0F5807F45
:1017400010D001250FE0386840F40030386009E01F
:101750000198002101F0D8FD03E00098002101F07C
:10176000CBFE05469DB12E462088DFF8F892C04397
:1017700009F12C0940052CD4D4F8A800B0F5800F4D
:1017800020D00DDCA0B1B0F5001F0FD115E0E26D47
:10179000D8F8001021F4E0711143C8F80010E3E715
:1017A000B0F5C00F13D0B0F5000F10D001250FE039
:1017B000386840F40030386009E00198002101F0F9
:1017C000A3FD03E00098002101F096FE05467DB1DF
:1017D0002E462088C04300052DD4D4F8AC00B0F1CB
:1017E000007F21D00EDCA8B1B0F1807F10D116E0CF
:1017F000D4F8A820D9F8001021F460011143C9F8E9
:101800000010E6E7B0F1407F13D0B0F1806F10D048
:1018100001250FE0386840F40030386009E0019895
:10182000002101F071FD03E00098002101F064FE49
:10183000054675B12E462068C04380011FD4E06C78
:10184000D8B110280FD0202812D0302815D001256B
:1018500014E0D4F8AC20D9F8001021F0E061114375
:10186000C9F80010E7E7386840F40030386004E059
:101870000198022101F048FD054675B12E462088E9
:10188000C043C0042BD4206EB0F5005F20D00DDC27
:10189000A0B1B0F5805F0FD115E07248E26C203046
:1018A000016821F0300111430160E8E7B0F5405FC5
:1018B00013D0B0F5804F10D001250FE0386840F408
:1018C0000030386009E00198002101F01DFD03E0BF
:1018D0000098002101F010FE05468DB12E462088AB
:1018E000C043800429D4606EB0F5403F23D010DCA3
:1018F00008B3B0F5803F14D0B0F5003F0FD115E02C
:10190000226ED8F8001021F4E0411143C8F800100D
:10191000E5E7B0F5802F0ED0B0F5A02F0BD0012554
:101920000AE00198012101F0EFFC03E00098012199
:1019300001F0E2FD054695B12E462088C0434004E3
:101940002AD4D4F8B000B0F1405F23D010DC08B343
:10195000B0F1805F14D0B0F1005F0FD115E0626E7E
:10196000D8F8001021F4E0211143C8F80010E4E792
:10197000B0F1804F0ED0B0F1A04F0BD001250AE09E
:101980000198012101F0C0FC03E00098012101F061
:10199000B3FD054675B12E462088C04300041FD410
:1019A000206FD8B1B0F1805F0ED0B0F1005F10D0E1
:1019B000012514E0D4F8B020D9F8001021F0E0415E
:1019C0001143C9F80010E7E7386840F40030386088
:1019D00004E00198012101F097FC054675B12E46FF
:1019E0002068C043C0011ED4A06CD0B101280ED025
:1019F000022811D0032814D0012513E0226FD8F853
:101A0000001021F040511143C8F80010E8E7386891
:101A100040F40030386004E00198022101F074FCC9
:101A20000546EDB32E462068DFF838B0C043ABF171
:101A30001C0B40027ED4D4F8B400B0F5807F7AD07D
:101A4000B0F5007F77D0B0F50C5F74D0B0F54C5F87
:101A500071D0B0F5864F6ED0B0F5A64F6BD0B0F513
:101A6000C64F01E02C44025865D0B0F5E64F62D075
:101A7000B0F5034F5FD0B0F5134F5CD0B0F5234FF6
:101A800059D0B0F5334F56D0B0F5434F53D0B0F5E1
:101A9000534F50D0B0F5634F4DD0B0F5734F00E0C9
:101AA000A1E048D0FA49884245D0FA49884242D05C
:101AB000F94988423FD0F94988423CD0F8498842E8
:101AC00039D0F849884236D0F749884233D0F749AF
:101AD00088427FD0F64988427CD0F649884279D046
:101AE000F549884276D0F549884273D0F449884256
:101AF00070D0F44988426DD0F34988426AD0F349E6
:101B0000884267D0F249884264D0F249884261D065
:101B1000F14988425ED0F14988425BD0F049884261
:101B200058D0F049884255D0EF49884252D0EF4909
:101B3000884201E09EE04DE04CD0ED49884249D01A
:101B4000EC49884246D0EC49884243D0EB49884270
:101B500040D0EB4988423DD0EA4988423AD0EA4930
:101B6000884237D0E949884234D0E949884231D0A7
:101B7000E84988422ED0E84988422BD0E74988427C
:101B800028D0E749884225D0E649884222D0E64954
:101B900088421FD0E54988421CD0E549884219D0C7
:101BA000E449884216D0E449884213D0E349884288
:101BB00010D0E34988420DD0E24988420AD0E24978
:101BC000884207D0E149884204D0E1A040F27D314B
:101BD00001F066FEED48016841F480710160FFF795
:101BE000D3FA82460EE0EA48A26C016821F00301B4
:101BF0001143016017E700BFFFF7C6FAA0EB0A0028
:101C0000642835D8E1480068C005F5D58DBBDFF8FC
:101C100080A3B4F8B4100AF1240ADAF8000001F441
:101C2000407100F44070884211D0DAF80010DAF800
:101C3000002021F4407142F48032CAF80020DAF822
:101C4000002022F48032CAF80020CAF80010D4F82C
:101C5000B400B0F5807F1AD1FFF796FA029012E037
:101C6000FFF792FA0299411A41F2883081420AD96B
:101C700003252E462078DFF818A3C0430AF1080A8E
:101C8000C00721D03CE0DAF800008007E8D5D4F89E
:101C9000B410C1F30120032858460DD0016821F487
:101CA0007C510160B4F8B420DAF80010C2F30B02E2
:101CB0001143CAF80010DDE7B64A036802EA1112C0
:101CC00023F47C511143ECE7E06F182816D005DCB3
:101CD000A0B1082808D0102804D10AE020280DD08F
:101CE00028280BD001250AE00198012101F00CFB06
:101CF00003E00098012101F0FFFB054665B12E4687
:101D00002078C04380071ED4A06F062819D2DFE8D0
:101D100000F0160C11161616E26FDAF8001021F01A
:101D200038011143CAF80010EAE70198012101F0D7
:101D3000EBFA03E00098012101F0DEFB05467DB1DE
:101D400000E001252E462078C04340071FD4D4F878
:101D50009400062819D2DFE800F0160C11161616AA
:101D6000A26FDAF8001021F007011143CAF8001041
:101D7000E9E70198012101F0C7FA03E00098012189
:101D800001F0BAFB0546A5B100E001252E462078FA
:101D9000C04380062BD4D4F89000B0F1405F24D02B
:101DA00011DC10B3B0F1805F15D0B0F1005F10D13D
:101DB00016E0D4F89420D9F8001021F0070111435F
:101DC000C9F80010E3E7B0F1804F0ED0B0F1A04F9A
:101DD0000BD001250AE00198002101F095FA03E0FB
:101DE0000098022101F088FB054695B12E46207827
:101DF000C04340062BD4D4F89C00B0F5406F24D0EB
:101E000011DC10B3B0F5806F15D0B0F5006F10D1B4
:101E100016E0D4F89020DAF8001021F0E0411143E8
:101E2000CAF80010E3E7B0F5805F0ED0B0F5A05F10
:101E30000BD001250AE00198002101F065FA03E0CA
:101E40000098022101F058FB054695B12E462078F6
:101E5000C043000618D4D4F8A000B0F5C04F12D08B
:101E600013DC80B1B0F5005F10D0B0F5804F0ED11B
:101E70009FE0D4F89C20D9F8001021F4E0511143E0
:101E8000C9F80010E3E799E09AE085E08CE089E08A
:101E900000030100001301000023010000330100D2
:101EA00000430100005301000063010000730100C2
:101EB000008301000093010000A3010000B30100B2
:101EC00000C3010000D3010000E3010000F30100A2
:101ED000000302000013020000230200003302008E
:101EE000004302000053020000630200007302007E
:101EF000008302000093020000A3020000B302006E
:101F000000C3020000D3020000E3020000F302005D
:101F10000003030000130300002303000033030049
:101F20000043030000530300006303000073030039
:101F3000008303000093030000A3030000B3030029
:101F400000C3030000D3030000E3030000F3030019
:101F50002E2E2F447269766572732F53544D33328F
:101F6000483778785F48414C5F4472697665722FD4
:101F70005372632F73746D3332683778785F68619A
:101F80006C5F7263635F65782E63000000480258DF
:101F90004C440258CFFFFF00B0F5004F0ED0B0F513
:101FA000204F0BD001250AE00198002101F0ACF987
:101FB00003E00098022101F09FFA0546E5B12E46A4
:101FC0002078C043000730D4D4F88400B0F5805F97
:101FD0001CD0B0F5005F1FD0F0B1B0F5405F1BD052
:101FE00040F20D51AFF2980001F05AFCD4F8840091
:101FF000B0F5805F0AD00FE0D4F8A020D9F8001027
:1020000021F460411143C9F80010D9E7009802217A
:1020100001F072FA00B10126D4F88420DAF8001039
:1020200021F440511143CAF800102078C043C00683
:1020300025D4D4F89800B0F5807F11D0B0F5007F9A
:1020400014D098B1B0F5407F10D04FF4A461AFF236
:10205000001001F025FCD4F89800B0F5807F05D180
:102060000098022101F048FA00B10126D4F8982026
:10207000D9F8001021F440711143C9F8001020680C
:10208000C043000316D4D4F8A40038B1B0F5803FA3
:1020900009D0B0F5003F0BD001250AE001980021DE
:1020A00001F032F903E00098022101F025FA05461B
:1020B0008DB12E462068C043400322D4D4F8880056
:1020C000B0F5801F11D0B0F5001F13D0B0F5401F40
:1020D00015D0012514E0D4F8A420D9F8001021F47B
:1020E00040311143C9F80010E4E7386840F400308B
:1020F000386004E00098012101F0FEF90546B5B111
:102100002E462068C043C00327D4206D40B1B0F5EF
:10211000803F05D040F28651AFF2CC1001F0C0FBF9
:10212000206D70B1B0F5803F10D0012514E0D4F8D7
:102130008820DAF8001021F440111143CAF8001089
:10214000DFE7386840F40030386004E0019802218D
:1021500001F0DAF80546E5B12E462068C04380005C
:1021600005D40098022101F0C7F900B101262068CA
:10217000C04380031BD4D4F88000B0B1B0F5807F99
:102180000FD0B0F5007F10D0B0F5407F0DD0012505
:102190000CE08048226D016821F480311143016018
:1021A000DBE7386840F400303860E5B32E4620683D
:1021B000C043C00212D4606F40B1B0F1004F05D0EF
:1021C00040F2E551AFF2782001F06AFB626FD8F877
:1021D000001021F000411143C8F800102068C043EE
:1021E000C00014D4D4F8B80040B1B0F5804F05D089
:1021F00040F2EF51AFF2A82001F052FBD4F8B82022
:10220000DBF8001021F480411143CBF80010206866
:10221000C043800214D4E06E50B1B0F1807F07D08B
:1022200040F2F95100E064E0AFF2DC2001F038FB4D
:10223000E26ED8F8001021F080711143C8F8001048
:102240002068C043400018D4D4F8BC0040B1B0F5B9
:10225000004F05D040F20F61AFF20C3001F020FBCF
:10226000DBF8001021F40041CBF80010DBF800107F
:10227000D4F8BC201143CBF800102068C04314D41C
:10228000606D58B1B0F1805F08D0B0F1005F05D04B
:1022900040F21961AFF2483001F002FB3D48626D37
:1022A000016821F04051114301602068C0430002E1
:1022B00017D4D4F88C0058B1B0F5800F08D0B0F521
:1022C000000F05D040F22361AFF27C3001F0E8FA54
:1022D000D4F88C20DAF8001021F440011143CAF838
:1022E000001020790025C04300F0010028430AD0E7
:1022F0000FE0D4F88020DAF8001021F44071114387
:10230000CAF8001053E70198002100F0FDFF00B16A
:1023100006462079C04300F00200284305D1019809
:10232000012100F0F1FF00B106462079C04300F022
:102330000400284305D10198022100F0E5FF00B117
:1023400006462079C04300F00800284305D10098D4
:10235000002101F0D1F800B106462079C04300F019
:102360001000284305D10098012101F0C5F800B103
:1023700006462079C04300F02000054304D10098B0
:10238000022101F0B9F800B916B10120BDE8FE8FB5
:102390000020FBE74C4402582DE9F05F04000D4695
:1023A0007ED02068401E3E2804D9FFA040F2A7310D
:1023B00001F076FA15B3012D20D0022D1ED0032D89
:1023C0001CD0042D1AD0052D18D0062D16D0072D9F
:1023D00014D0082D12D0092D10D00A2D0ED00B2D9F
:1023E0000CD00C2D0AD00D2D08D00E2D06D00F2D9F
:1023F00004D04FF46A71ECA001F052FADFF8E083E8
:10240000D8F8000000F00F00A8420CD2D8F8001055
:1024100021F00F012943C8F80010D8F8000000F09F
:102420000F00A8423CD12078EE4E400719D5206914
:10243000316801F07001884213D960B140280AD098
:10244000502808D0602806D0702804D04FF471714D
:10245000D5A001F025FA2169306820F0700008430A
:1024600030602078DF4F3F1D00071BD56069396859
:1024700001F07001884215D960B140280AD0502877
:1024800008D0602806D0702804D0C7A040F2D6310A
:1024900001F006FA6169386820F07000084300E036
:1024A0000DE138602078C0061DD5A069396801F4B7
:1024B000E061884217D980B1B0F5806F0DD0B0F5DA
:1024C000A06F0AD0B0F5C06F07D0B0F5E06F04D0B0
:1024D000B5A040F2E73101F0E3F9A169386820F4D2
:1024E000E060084338602078DFF8F8A280060AF13F
:1024F000080A1CD5E069DAF8001001F07001884282
:1025000015D960B140280AD0502808D0602806D0DC
:10251000702804D0A4A040F2F93101F0C1F9E269B9
:10252000DAF8001021F070011143CAF80010207889
:10253000800721D5E068316801F00F0188421BD97E
:10254000A0B1082812D0092810D00A280ED00B28D4
:102550000CD00C280AD00D2808D00E2806D00F2841
:1025600004D091A040F20C4101F09AF9E168306882
:1025700020F00F00084330602078C00769D0A068C1
:10258000E0B1B0F5006F19D0B0F5106F16D0B0F50E
:10259000206F13D0B0F5306F10D0B0F5406F0DD074
:1025A000B0F5506F0AD0B0F5606F07D0B0F5706F1E
:1025B00004D07DA040F21C4101F072F9606801284E
:1025C00009D040B1022806D0032804D076A040F2FA
:1025D0001D4101F065F98349A2683068183920F47B
:1025E0007060104330606068022816D0032817D04E
:1025F0000968012817D04907002960DADFF8E4B13B
:10260000ABF1080BDBF8002022F007020243CBF805
:102610000020FEF7B9FD814613E009688903EBE766
:1026200009688901E8E7C905E6E700BFFEF7ACFDE8
:10263000A0EB090141F28830814202D90320BDE8B4
:10264000F09F6168DBF8000000F03800B0EBC10FCC
:10265000ECD12078800721D5E068316801F00F01C6
:1026600088421BD2A0B1082812D0092810D00A280D
:102670000ED00B280CD00C280AD00D2808D00E281C
:1026800006D00F2804D048A040F25E4101F008F9BE
:10269000E168306820F00F0008433060D8F800107F
:1026A000404601F00F01A9420BD9016821F00F014A
:1026B00029430160006800F00F00A84201D001200A
:1026C000BDE72078400719D52069316801F0700115
:1026D000884213D260B140280AD0502808D0602820
:1026E00006D0702804D030A040F27F4101F0D8F825
:1026F0002169306820F070000843306020780007BE
:1027000019D56069396801F07001884213D260B14F
:1027100040280AD0502808D0602806D0702804D05D
:1027200021A040F2914101F0BBF86169386820F0C6
:102730007000084338602078C0061DD5A06939684C
:1027400001F4E061884217D280B1B0F5806F0DD0FE
:10275000B0F5A06F0AD0B0F5C06F07D0B0F5E06F4C
:1027600004D011A040F2A34101F09AF8A1693868A1
:1027700020F4E06008433860207880063DD5E069A9
:102780005546DAF8001001F07001884235D258B38E
:1027900040282CD050282AD0602828D0702826D055
:1027A00001A040F2B54120E02E2E2F4472697665DB
:1027B00072732F53544D3332483778785F48414C09
:1027C0005F4472697665722F5372632F73746D3331
:1027D00032683778785F68616C5F7263632E63007C
:1027E000002000521844025801E001F059F8E16954
:1027F000286820F070000843286000F023F80D4995
:1028000033683268C3F3032302F00F02CB5C895CA8
:1028100003F01F0201F01F01D040074A20FA01F126
:1028200011600649086006480068BDE8F05FFEF7E1
:10283000E7BC0000F439000818000024140000244C
:102840000C000024454970B545480968434B103BCE
:1028500011F0380208D00111082A03D0102A0BD039
:10286000182A0BD0084670BD19688906FBD519686F
:10287000C1F3C101C84070BD3A4870BD3749374DFA
:1028800018310C1D24350A68096826682D6802F085
:10289000030406F00102C1F30511C5F3CC0515FBD5
:1028A00002F200EE102AB8EE400AE9B32F4ADFED3B
:1028B0002E0AB7EE001A6CB1DFED2D1A012C01D0F3
:1028C000022C43D002EE101A1068F8EE422A81EE74
:1028D000A22A1EE01C68A40611D51B6801EE901AFE
:1028E0001168C3F3C103F8EE612AD84001EE900AE3
:1028F000C1F30800F8EE611A81EEA22A0BE001EEA6
:10290000901ADFED1C2A00BFF8EE611A106882EE03
:10291000A12AC0F3080001EE900AF8EE611A40EE19
:10292000201A31EE810A00E015E022EE000A10685C
:10293000C0F34620401C00EE900AF8EE600A80EEDC
:10294000201ABCEEC10A10EE100A70BD01EE901AFA
:10295000DFED092AD8E7002070BD000010440258BE
:102960000090D0030024F4000000003930440258E5
:102970000024744A0024744C0024744B2DE9F05F49
:1029800004006FD0FB4E41F20308DFF8E893F94FE3
:10299000A6F10405206809F10C09243780B1C107AC
:1029A00011D181076CD4C1067DD401077CD44107C5
:1029B0007BD480067AD4F0A040F2A11100F070FF21
:1029C0002078C00759D060684FF4803A4FF4A02BAC
:1029D00040B1504506D0584504D0E7A04FF4D3711C
:1029E00000F05EFFD9F80000396800F038001028C8
:1029F0000CD0182803D101F00300022806D060682B
:102A000050450AD1286840F4803010E028688003DF
:102A100033D560680028B4D02FE008B158450DD0F8
:102A2000286820F480302860286820F480202860FE
:102A3000606898B1FEF7A8FB82460BE0286840F476
:102A400080202860DEE700BFFEF79EFBA0EB0A00B7
:102A5000642870D828688003F6D50EE0FEF794FB52
:102A6000824607E046E100BFFEF78EFBA0EB0A00BE
:102A70006428EED828688003F6D42078800758D5DB
:102A8000E06860B101280AD0092808D0112806D0D2
:102A9000192804D0B8A04FF4ED7100F001FF2069AF
:102AA0007F2809D903E073E0E3E002E118E1B2A076
:102AB00040F2DB1100F0F4FED9F80000396810F0A4
:102AC00038000ED0182801D188070AD0E06888B3F2
:102AD000296821F0190101432960FEF755FB824660
:102AE00030E02868400702D5E068002893D0E1680C
:102AF000286820F0190008432860FEF745FB82464D
:102B000006E000BFFEF740FBA0EB0A000228A0D8B9
:102B100028684007F6D500BFFEF730FB40451BD8BC
:102B20002069402812D0316821F47C3141EA00301C
:102B300030602AE017E08AE2FEF726FBA0EB0A00ED
:102B4000022886D828684007F6D5E5E7306820F4E3
:102B50007C3040F40030EBE7207C316821F0FE410E
:102B600041EA0060E4E7286820F001002860FEF7F1
:102B70000BFB824606E000BFFEF706FBA0EB0A0057
:102B80000228C4D828684007F6D42078C0066DD53E
:102B9000E06930B1802804D077A040F22B2100F00A
:102BA0007FFE206A3F2804D94FF40B7172A000F019
:102BB00077FED9F80000DFF8BCB1396800F03800C2
:102BC0000BF1080B082810D0182803D101F00300DE
:102BD00001280AD0E0690028286837D040F080003A
:102BE0002860FEF7D1FA824622E02868C00522D587
:102BF000E06980287ED11EE0206A202820D031683C
:102C000021F0F84141EA806030602FE094F8201014
:102C1000DBF8002022F07C5242EA0161CBF8001080
:102C200024E000BFFEF7B0FAA0EB0A00022888D823
:102C30002868C005F6D5FEF7A1FA4045E6D8DBE7DF
:102C4000306820F0F84040F08040DDE720F0800060
:102C50002860FEF799FA064605E000BFFEF794FAF1
:102C6000801B02288DD82868C005F7D4207800077B
:102C700033D5404E60697036E0B1012806D03EA0E1
:102C800040F26D2100F00CFE606998B13168B046E9
:102C900041F001013160FEF777FA064605E000BF1A
:102CA000FEF772FA801B0228C1D8D8F8000080070E
:102CB000F6D512E03168B04621F001013160FEF72F
:102CC00063FA064605E000BFFEF75EFA801B0228A5
:102CD000ADD8D8F800008007F6D4207880062FD52C
:102CE000A069E0B1012808D04FF4267122A000F0BD
:102CF000D7FD00E0DAE1A06988B1286840F480508F
:102D00002860FEF741FA064605E000BFFEF73CFAF0
:102D1000801B02288BD828688004F7D510E028682B
:102D200020F480502860FEF72FFA064605E000BF29
:102D3000FEF72AFA801B022894D828688004F7D46A
:102D40002078400777D5A06840B1012806D0052833
:102D500004D009A040F2C22100F0A2FDDFF85080AB
:102D6000D8F8001041F48071C8F80010FEF70CFA92
:102D7000064624E0044402582E2E2F4472697665DC
:102D800072732F53544D3332483778785F48414C33
:102D90005F4472697665722F5372632F73746D335B
:102DA00032683778785F68616C5F7263632E6300A6
:102DB00000480258FEF7E8F9801B642888D8D8F844
:102DC0000000C005F6D5A068D04E01280AD008B191
:102DD000052813D0306820F001003060306820F002
:102DE000040002E0306840F001003060A06841F269
:102DF000883A98B1FEF7C8F980460BE0306840F099
:102E000004003060EEE700BFFEF7BEF9A0EB08015A
:102E1000514591D830688007F6D50CE0FEF7B4F93B
:102E2000804605E0FEF7B0F9A0EB08015145C5D892
:102E300030688007F6D4606A00287DD001280AD067
:102E4000022808D04FF43D71AFF2D40000F028FD05
:102E5000606A0028F1D0D9F800004FF6F87BDFF85F
:102E6000ACA2AAF1400AC0F3C20003280AF1040888
:102E7000AAF1040977D0606A022807D0286820F0F8
:102E800080702860FEF780F90446E3E0A06A01281C
:102E90000AD048B1032807D0022805D040F2FD210E
:102EA000AFF22C1000F0FCFC206C58B1042809D0C3
:102EB000082807D00C2805D040F2FE21AFF24810B8
:102EC00000F0EEFC606C38B1022805D040F2FF2122
:102ED000AFF25C1000F0E4FCE06A401E3E2805D929
:102EE0004FF44071AFF2701000F0DAFC206B001F5D
:102EF000B0F5FE7F05D940F20131AFF2841000F049
:102F0000CFFC606B401E7F2805D940F20231AFF242
:102F1000981000F0C5FCA06B401E7F2805D940F238
:102F20000331AFF2AC1000F0BBFCE06B401E7F2819
:102F300007D94FF4417100E0E5E0AFF2C41000F0B2
:102F4000AFFCA06CB0F5005F05D340F20531AFF2E5
:102F5000D81000F0A5FC286820F080702860FEF7EB
:102F600013F9064605E079E0FEF70EF9801B02280A
:102F70006DD828688001F7D4E26A40F2F3313868EE
:102F800054F8283F884340EA021018433860217BF8
:102F90004FF4FE0C22894FF0FE47208A4902267D1D
:102FA000521E401EA1F5007189B2C2F308021143FE
:102FB000761E0CEA00400143484607EA06621143C8
:102FC000CAF80010D9F8001021F00101C9F800106A
:102FD000D8F80030266A23EA0B0343EAC601C8F892
:102FE0000010D9F80010A26921F00C011143C9F8B2
:102FF00000100168E26921F00201114301600168DB
:1030000041F480310160016841F4003101600168E0
:1030100041F480210160016841F0010101602868EC
:1030200040F080702860FEF7AFF8044605E000BF6E
:10303000FEF7AAF8001B022809D828688001F7D5F6
:1030400061E000BFFEF7A0F8001B022802D90320B0
:10305000BDE8F09F28688001F4D454E0626A3968C2
:10306000DAF80000012A21D0A26A01F0030393429A
:103070001CD1E26AC1F305118A4217D1216BC0F35A
:103080000802491E8A4211D1616BC0F34622491ED3
:1030900091420BD1A16BC0F30642491E914205D16A
:1030A000E16BC0F30660491E814201D00120CFE7E9
:1030B000A06C4646D8F80010C1F3CC01884222D05B
:1030C000B0F5005F05D34FF45B71AFF2543000F000
:1030D000E7FBD9F800004D4620F00100C9F80000D8
:1030E000FEF752F84FEA0007FEF74EF8B842FBD061
:1030F000A26C316821EA0B0141EAC2003060286805
:1031000040F0010028600020A2E70000704402584F
:10311000401EB0F1807F10B501D3012010BD4FF0EB
:10312000E02460610F21601700F0A9FB0020A0617E
:103130000721216110BDFEE71B4800222DE9F04167
:10314000184F00F114088260012507601426C26040
:103150003B2702740224427404218274082388E805
:10316000E000066240F61206C0E90954C0E90D61AC
:10317000C0E90F13C0E911134FF00D0CC0E90BC4E7
:10318000C0E91314C0E91513C3650366C0E919212A
:10319000FDF78EFB002803D0BDE8F041FDF783B9B1
:1031A000BDE8F08100A000401C00002470B586B08E
:1031B00014216846FDF712F94748016841F01001F3
:1031C0000160016801F010010591016841F480710E
:1031D0000160016801F480710591016841F004010A
:1031E0000160016801F004010591016841F02001CE
:1031F0000160016801F020010591016841F0800142
:103200000160016801F080010591016841F0010150
:103210000160016801F001010591016841F00201BE
:103220000160016801F002010591016841F040016F
:103230000160016801F040010591016841F0080159
:103240000160006800254FF6FF76009600F0080048
:10325000059003242148CDE901456946FDF7ECFDC1
:10326000301169468DE831001D48FDF7E5FD0096F7
:1032700069461C48CDE90145FDF7DEFD009669462B
:103280001948CDE90145FDF7D7FD48F2FF706946C1
:103290008DE831001548FDF7CFFDF01E69468DE839
:1032A00031001348FDF7C8FD009669461148CDE985
:1032B0000145FDF7C1FD009669460F48CDE901457E
:1032C000FDF7BAFD009669460C48CDE90145FDF7CA
:1032D000B3FD06B070BD0000E04402580010025873
:1032E000002002580008025800140258000002583A
:1032F000001C02580004025800180258000C025822
:10330000FEE7FEE7704700002DE9F04789460168B7
:1033100004464FF0000A491E3E2904D966A040F633
:10332000726100F0BDFA6068001FB0F5FE7F04D93D
:1033300061A040F6736100F0B3FAA068401E7F28D8
:1033400004D95DA040F6746100F0AAFA2069401E1D
:103350007F2804D958A040F6756100F0A1FAE06812
:10336000401E7F2804D954A040F6766100F098FAF8
:10337000606950B1402808D0802806D0C02804D009
:103380004DA040F6776100F08BFAA06930B120289B
:1033900004D049A040F6786100F082FAE069B0F507
:1033A000005F04D344A040F6796100F079FA514FF0
:1033B0003868C04380070AD04E4D283D286820F069
:1033C00080602860FDF7E0FE0646A84607E0012081
:1033D000BDE8F087FDF7D8FE801B022865D8D8F835
:1033E00000000001F6D4206839684FF4FE0C4FF05D
:1033F000FE4621F47C3141EA00303860217AA7880A
:10340000A38949023B4D7F1E3A485B1E227C103542
:10341000001DA1F5007189B2521EC7F30807394398
:103420000CEA0343194306EA02621143296001686A
:10343000626921F0C001114301600268A16922F0B4
:1034400020020A430260291D026822F01002026075
:103450000A684FF6F873E4699A4342EAC4020A60C4
:103460000168B9F1000F41F01002026011D001684B
:10347000B9F1010F11D041F400110160D8F800003A
:10348000444640F08060C8F80000FDF77DFE054628
:103490000DE0016841F40021EFE741F48011ECE711
:1034A000FDF772FE401B022801D9032090E7206837
:1034B0000001F5D550468BE72E2E2F4472697665B4
:1034C00072732F53544D3332483778785F48414CEC
:1034D0005F4472697665722F5372632F73746D3314
:1034E00032683778785F68616C5F7263635F6578B4
:1034F0002E630000284402582DE9F04789460168F0
:1035000004464FF0000A491E3E2904D968A040F63F
:10351000DA6100F0C5F96068001FB0F5FE7F04D9DC
:1035200063A040F6DB6100F0BBF9A068401E7F2875
:1035300004D95FA040F6DC6100F0B2F92069401EBA
:103540007F2804D95AA040F6DD6100F0A9F9E068AF
:10355000401E7F2804D956A040F6DE6100F0A0F995
:10356000606968B1B0F5806F0AD0B0F5006F07D020
:10357000B0F5406F04D04EA040F6DF6100F090F946
:10358000A06938B1B0F5007F04D04FF46E6148A057
:1035900000F086F9E069B0F5005F04D344A040F67E
:1035A000E16100F07DF9514F3868C04380070AD0CF
:1035B0004E4D283D286820F080502860FDF7E4FD3E
:1035C0000646A84607E00120BDE8F087FDF7DCFDD0
:1035D000801B022865D8D8F800008000F6D4208827
:1035E00039684FF4FE0C4FF0FE4621F07C7141EA41
:1035F00000503860217AA788A38949023B4D7F1E7D
:103600003A485B1E227C1835001DA1F5007189B275
:10361000521EC7F3080739430CEA0343194306EA6D
:103620000262114329600168626921F4406111431B
:1036300001600268A16922F400720A430260291D38
:10364000026822F4807202600A684FF6F873E46937
:103650009A4342EAC4020A600168B9F1000F41F4DA
:103660008072026011D00168B9F1010F11D041F0F0
:1036700080710160D8F80000444640F08050C8F8DE
:103680000000FDF781FD05460DE0016841F4800171
:10369000EFE741F40001ECE7FDF776FD401B02285F
:1036A00001D9032090E720688000F5D550468BE7CC
:1036B0002E2E2F447269766572732F53544D333218
:1036C000483778785F48414C5F4472697665722F5D
:1036D0005372632F73746D3332683778785F686123
:1036E0006C5F7263635F65782E6300002844025844
:1036F0007047FDF74FBD000010B59CB04C216846E7
:10370000FCF76CFE202113A8FCF768FE0220FDF7F1
:1037100053FF21490A68214822F001020A60096822
:10372000016821F4404141F48041016001680024B6
:1037300001F440411B910168C9438904FBD4022074
:1037400009900121C2030DF1280C0A23CDE90012D2
:103750008CE80B000C220D900E90CDE90F02CDE904
:1037600011046846FFF70AF908B172B6FEE713AA1A
:103770003F20032182E813000121169413A8179417
:10378000189419941A94FEF707FE002801D072B617
:10379000FEE71CB010BD00002C0400581848025869
:1037A0002C48F0B52C4A016841F4700101601068A2
:1037B00000F00F00072804D2106820F00F00C01D91
:1037C000106026490020254C10340B68244D43F02E
:1037D00001030B6020600B682B400B60136803F043
:1037E0000F03072B04D9136823F00F03DB1D1360AD
:1037F0001A4C1C4A18341C4B261D371D2060174CD0
:103800001A4D28343060261D3860371D23603B1D5B
:1038100035601C1D3A60251D2E1D1860331D226069
:103820002860326018600A680C4B114C22F4802228
:1038300060330A60186020686FF30F00B0F1005F1A
:1038400003D20C490120C1F8080143F2D2000A4911
:103850000860F0BD88ED00E00020005200440258EE
:103860007FEDF6EA80020101000202020000FF0182
:103870000010005C0080005100400052FEE7090784
:1038800000284FEA116104DB00F1E02080F8001409
:10389000704700F00F0000F1E02080F8141D704721
:1038A000704710B58AB00024082B0294CDE90014AB
:1038B00000D803930C2B0CD0102B0CD0142B0CD055
:1038C000182B0CD0202B1CD0302B1CD0402B1CD004
:1038D00007E0092104E00A2102E00B2100E00C21AD
:1038E00003914FF4801108944B00CDE90441CDE9D8
:1038F00006346946FCF706FF002800D001200AB014
:1039000010BD0D21ECE70E21EAE70F21E8E70000EA
:103910001FB500240094019402940394FDF790FDD8
:1039200001208DF80C001F218DF8081087228DF8DA
:1039300009208DF80D008DF8000068468DF80A40CA
:103940008DF80E408DF8014001948DF80B408DF8F4
:103950000F40FDF775FC0420FDF780FDFDF722FC0C
:10396000FFF7CAFEFFF722FCFFF7E6FB4FF4A46463
:10397000044A054808232146FFF793FF6420FCF71B
:10398000AFFEF5E7000000241C0000244FF040705B
:10399000E1EE100A7047000000010203040506076B
:1039A000080C101418203040000000000000000037
:1039B0000000000000000000000000000100000006
:1039C00002000000030000000400000000000000EE
:1039D00005000000000000000000000000000000E2
:1039E00006000000000000000000000000000000D1
:1039F00007000000000000000102030401020304AC
:103A000006070809243A0008000000241C000000F2
:103A1000D4020008403A00081C00002404070000FB
:103A2000F00200080001020304050607010000007F
:103A300010000000000000000090D0030090D003B0
:040000050800029954
:00000001FF
