:020000040800F2
:10000000080C002079020008BF4A000839430008A4
:10001000BD4A00087F030008414B000800000000B3
:10002000000000000000000000000000C34A0008BB
:100030008103000800000000C14A0008C54A00080A
:10004000930200089302000893020008930200083C
:10005000930200089302000893020008930200082C
:10006000930200089302000893020008930200081C
:10007000930200089302000893020008930200080C
:1000800093020008930200089302000893020008FC
:1000900093020008930200089302000893020008EC
:1000A00093020008930200089302000893020008DC
:1000B00093020008930200089302000893020008CC
:1000C00093020008930200089302000893020008BC
:1000D00093020008930200089302000893020008AC
:1000E000930200089302000893020008930200089C
:1000F000930200089302000893020008930200088C
:10010000930200089302000893020008930200087B
:10011000930200089302000893020008930200086B
:10012000930200089302000893020008930200085B
:10013000930200089302000893020008930200084B
:10014000930200089302000893020008930200083B
:10015000930200089302000893020008930200082B
:10016000930200089302000893020008930200081B
:10017000930200089302000893020008930200080B
:1001800093020008930200089302000893020008FB
:100190009302000800000000930200089302000888
:1001A00093020008930200089302000893020008DB
:1001B00093020008930200089302000893020008CB
:1001C00093020008930200089302000893020008BB
:1001D000930200089302000800F002F800F03CF8D7
:1001E0000AA090E8000C82448344AAF10107DA4592
:1001F00001D100F031F8AFF2090EBAE80F0013F0A8
:10020000010F18BFFB1A43F001031847704A0000A2
:10021000904A0000103A24BF78C878C1FAD8520733
:1002200024BF30C830C144BF04680C607047000070
:100230000023002400250026103A28BF78C1FBD8EF
:10024000520728BF30C148BF0B6070471FB504F08C
:10025000FFFC1FBD10B510BD00F058F81146FFF7A8
:10026000F5FF04F0B5FC00F076F803B4FFF7F2FFF9
:1002700003BC00F07DF800000948804709480047AA
:10028000FEE7FEE7FEE7FEE7FEE7FEE7FEE7FEE746
:10029000FEE7FEE704480549054A064B70470000A3
:1002A000314B0008D901000808060020080C002086
:1002B00008080020080800204FF0000200B513468F
:1002C00094469646203922BFA0E80C50A0E80C5076
:1002D000B1F12001BFF4F7AF090728BFA0E80C5027
:1002E00048BF0CC05DF804EB890028BF40F8042B20
:1002F00008BF704748BF20F8022B11F0804F18BF8D
:1003000000F8012B7047704770477047754600F042
:100310002BF8AE4605006946534620F00700854697
:1003200018B020B5FFF7B6FFBDE820404FF000063B
:100330004FF000074FF000084FF0000B21F00701CD
:10034000AC46ACE8C009ACE8C009ACE8C009ACE810
:10035000C0098D46704710B50446AFF300802046B3
:10036000BDE81040FFF781BF00487047A40500209A
:1003700001491820ABBEFEE7260002007047FEE7E9
:10038000704772B6FEE70000F0B5D1E901650C696F
:100390002C430D68C6B145F080452C43D1E9066574
:1003A000354391F820704E69406D46EA0766354343
:1003B0008E8903EBC30300EBC30045EA0645E0E882
:1003C00002450023084C0AE044EA8544E6E7D618D3
:1003D000D55CD6F801601B1D45EA062520C0CD6816
:1003E000655D9D42F3D8F0BD5A4C000870B50446D7
:1003F00001F042FE05462068016941F48031016147
:100400004FF4FA760BE000BF01F036FE401BB0421D
:1004100005D9606B40F080006063012070BD2068EA
:100420000069C003F0D40020606370BD10B50446BD
:1004300000F005F82046BDE8104000F008B80021A3
:10044000C16041610182202180F833107047002192
:10045000816101628183202180F8321070470000A1
:100460002DE9F04F044600684FF0A0477A4E9BB04C
:100470000D464FF0000BB84206D0B04204D040F613
:100480004C0176A004F06DFB286800284AD00128B2
:1004900013D0022811D003280FD005280DD006282C
:1004A0000BD0072809D0092807D040F64D016BA0D2
:1004B00004F057FB2868002834D0686850B1B0F5C4
:1004C000004F07D0B0F5404F04D04FF4056163A052
:1004D00004F047FBA86828B3B0F5807F22D0B0F5C0
:1004E000007F1FD0B0F5407F1CD0B0F5806F19D0D1
:1004F000B0F5A06F16D0B0F5C06F13D0B0F5E06FB7
:1005000010D0B0F5006F0DD0B0F5106F0AD0B0F577
:10051000206F07D0B0F5306F04D040F651014FA0E6
:1005200004F01FFB94F85800012812D0012084F831
:1005300058004FF00009CDF85C90CDF86090B846B7
:100540002068DFF854A1554F404506D13846009742
:1005500008E002201BB0BDE8F08FB04216D1504633
:10056000CDF800A003F0F7FE0090206803F0F3FE42
:1005700001460098014311D0E06D40F02000E06595
:100580004FF0010B84F858905846E3E7E16D41F0D5
:100590002001E16584F858900120DBE7206841469E
:1005A000884201D0B84201D13D4800E03D48D5F82D
:1005B00000C03D4B40F61F72BCF1000F2CD0D0F8AC
:1005C00008C094F838802CF4604C4CEA483CD5F8CC
:1005D00004804CEA080CC0F808C0D4F800C08C4570
:1005E00001D0BC4504D18968BB6801F0010108E075
:1005F000B168DAF8086001F0010106F001069B68B5
:10060000314303F001031943BCD1AB682968194396
:100610008368934319431CE0856825F46045856031
:1006200025688D4201D0BD4204D18968BB6801F0C4
:10063000010108E0B168DAF8085001F0010105F0A5
:1006400001059B68294303F0010319439AD181688E
:100650009143816096E70000000400502E2E2F4445
:100660007269766572732F53544D333247347878FC
:100670005F48414C5F4472697665722F5372632FF5
:1006800073746D3332673478785F68616C5F61646E
:10069000635F65782E630000000500500001005084
:1006A0000003005000070050000600502DE9F04FF5
:1006B00085B004460020039000902068DFF8F8A37E
:1006C000DFF8F8B3FE4E0D46B0F1A04F0DD0B042AA
:1006D0000BD0FC49884208D0504506D0584504D07C
:1006E00040F6D221F8A004F03CFA686806282DD024
:1006F0000C282BD0122829D0182827D0B0F5807FBD
:1007000024D0B0F5837F21D0B0F5867F1ED0B0F520
:10071000897F1BD0B0F58C7F18D0B0F5007F15D045
:10072000A0F50071063911D0B0F5037F0ED00C3959
:100730000CD0B0F5067F09D0B0F5407F06D0F43973
:1007400004D040F6D321E0A004F00BFAA868A8B1C9
:10075000B0F1004F12D0012810D002280ED003288B
:100760000CD004280AD0052808D0062806D007286F
:1007700004D040F6D421D4A004F0F3F9E868E04FA7
:100780007F2806D0B84204D040F6D521CEA004F090
:10079000E8F9286904280BD050B1012808D00228B4
:1007A00006D0032804D040F6D621C7A004F0D9F91A
:1007B0002068C06800F01800810840F6FF70C8404B
:1007C0006969884204D240F6D721BFA004F0C9F974
:1007D0002869042808D094F84000012804D140F684
:1007E000DB21B9A004F0BDF9DFF81483E868DFF875
:1007F00014C34045DFF810E3DFF81093C44FC54938
:10080000C54A28684FEA4C0379D0012878D0604562
:1008100076D0984274D0704572D0C04B98426FD059
:10082000BF4B98426CD0BF4B984269D0BE4B9842A8
:1008300066D0BE4B984263D0BD4B984260D0BD4B52
:1008400098425DD0BC4B98425AD02368B3F1A04F78
:1008500057D0B34217D1884252D0904250D0DFF8DF
:10086000DCC260454CD0DFF8D8C2604548D0DFF824
:10087000D4C2604544D0DFF8D0C2604540D0DFF834
:10088000CCC260453CD0DFF83C82DFF8C4C24345AF
:1008900011D1884234D0904232D0DFF8A082404556
:1008A0002ED0DFF8B08240452AD0604528D0484598
:1008B00026D0B84224D0534510D1884220D090424F
:1008C0001ED09E4988421BD09D49884218D0604561
:1008D00016D0A149884213D0B84211D05B4521D12E
:1008E0009E4988420CD09E49884209D09D49884241
:1008F00006D09349884203D0604501D00EE014E051
:100900007EE088427CD090427AD08C49884277D071
:100910009549884274D09549884271D048456FD036
:10092000B8426DD04FF42E6167E0604568D07045E5
:1009300066D0DFF8E8C1604562D0DFF8E4C1604509
:100940005ED0DFF8E0C160455AD0DFF8DCC1604519
:1009500056D0DFF8D8C1604552D0DFF8D8C1604525
:100960004ED0D4F800C0BCF1A04F62D0B44511D134
:10097000984245D0884243D0904241D0DFF8BC81B4
:1009800040453DD0DFF8A881404539D0DFF8B0813F
:10099000404535D0DFF82C81C4450DD198422FD089
:1009A00088422DD090422BD0DFF89081404527D04F
:1009B000DFF88481404523D0D44511D198421FD01F
:1009C00088421DD090421BD05C49884218D05849BB
:1009D000884215D05A49884212D0574988420FD0D0
:1009E000DC4508D1524988420AD05549884207D08F
:1009F0005149884204D040F6E42133A004F0B1F814
:100A000094F8580001281CD04FF0010884F8588051
:100A1000206803F09CFCB0B1E06D40F02000E06580
:100A200001200390002084F85800039805B0BDE829
:100A3000F08F9842E4D08842E2D09042E0D03F4923
:100A4000D7E70220F2E7D5E900210C23206803EA6A
:100A500091131844036B01F01F014FF01F0C0CFAA7
:100A600001FCC2F3846223EA0C038A40134303634C
:100A7000206803F06CFC0090206803F064FC0146E1
:100A80000098084317D1AA6829682068B2F1004F7E
:100A90006ED003F064FC2068416921F0004141619F
:100AA00020686969C268C2F3C102520091402A6994
:100AB000042A7DD05DE019E10005005000060050D9
:100AC00000010050000400502E2E2F4472697665FC
:100AD00072732F53544D3332473478785F48414C0A
:100AE0005F4472697665722F5372632F73746D332E
:100AF00032673478785F68616C5F6164632E63008D
:100B000000007F400200300440002019000052C75E
:100B1000000084CB0800900C1000C0108000501D15
:100B2000000180210002B0250004002A0008302EB8
:100B3000001060320040C03A0080F03E2000F01407
:100B400000209036000029C30000524700008CCBE3
:100B500000002143002098B600005AC70800908C7E
:100B60001000C0902000F094002090B6000021C337
:100B70003EE000EB82002B68026EDFF894C303F0C6
:100B8000F84302EA0C020B431A4342F000410166AB
:100B9000A86940B1B0F1807F05D040F61C31AFF2BA
:100BA000D80003F0DEFF287F48B1012807D000E01D
:100BB00029E040F61D31AFF2F00003F0D2FF2268C9
:100BC0002869A96902EB8000026E22F080720A4354
:100BD0000266297F20682A69012911D05FF000018F
:100BE00000EB8200026E22F000720A4302667DE092
:100BF000002203F0B4FB2068416941F000414EE758
:100C00004FF00071ECE7002103F097FB40032068F0
:100C10004FF0000172D003F090FB90FAA0F0B0FA10
:100C200080F1286842036ED090FAA0F0B0FA80F00C
:100C3000814204D100221146206803F09FFB01216C
:100C4000206803F07AFB400320684FF001015DD07B
:100C500003F073FB90FAA0F0B0FA80F12868420329
:100C600059D090FAA0F0B0FA80F0814204D100226D
:100C70000121206803F082FB0221206803F05DFB64
:100C8000400320684FF0020148D003F056FB90FA71
:100C9000A0F0B0FA80F12868420344D090FAA0F0A6
:100CA000B0FA80F0814204D100220221206803F0D2
:100CB00065FB0321206803F040FB400320684FF0F0
:100CC000030133D003F039FB90FAA0F0B0FA80F1C1
:100CD000286842032FD090FAA0F0B0FA80F0814249
:100CE00004D100220321206803F048FB20688168BA
:100CF00011F0010F22D0ABE000E004E003F01DFB97
:100D0000C0F384618DE7C0F3846091E703F015FBC5
:100D1000C0F38461A2E7C0F38460A6E703F00DFB93
:100D2000C0F38461B7E7C0F38460BBE703F005FB61
:100D3000C0F38461CCE7C0F38460D0E72A7B2968E4
:100D400050F8B03FC1F3120C23EA0C0302F0180C68
:100D5000704A22FA0CF20A40134303606E48E968B5
:100D6000814275D1286841031AD090FAA0F1B1FAF6
:100D700081F1491C01F01F0109294FEA403130D8A7
:100D8000002910D090FAA0F1B1FA81F101F101012E
:100D900001F01F0108FA01F208D1C0F3846109E0F3
:100DA000C0F38461E5E7C0F38461EFE790FAA0F156
:100DB000B1FA81F101F1010101F01F0142EA816103
:100DC00002D1C0F3846003E090FAA0F0B0FA80F0A2
:100DD00000F1010000F01F0000EB400041EA00516B
:100DE00032E000290ED090FAA0F1B1FA81F100BFF3
:100DF00001F1010101F01F0108FA01F205D1C0F370
:100E0000846106E0C0F38461F2E790FAA0F1B1FAE0
:100E100081F101F1010101F01F0142EA816102D17A
:100E2000C0F3846003E090FAA0F0B0FA80F000F123
:100E3000010000F01F00394A00EB400002EB0050B7
:100E400041EA000141F00071AA68206803F087FAC6
:100E500033482B6803423FF4E5AD22684FF0A048C9
:100E60003049314D424501D0B24201D1084600E03F
:100E700028468068DFF8B4C000F0E070634503D016
:100E8000DFF8ACC0634520D15FEA002C1DD4424599
:100E900005D05A457FF4C6ADB24200D0294640F491
:100EA00000008A6822F0E07202438A6021482249E9
:100EB0000068B0FBF1F0401C00EB4000800000E057
:100EC000401E00900028FBD1ACE54B450ED15FEAF7
:100ED000C01C0BD4B24201D15245F5D0424502D0DC
:100EE000B24200D0294640F080700AE0BB42EBD10C
:100EF0004302E9D4B242E7D0424500D0294640F44B
:100F000080008A6822F0E07202438A608AE500006D
:100F100000F0FF03FFFF070000007F40000020FEFD
:100F2000000008800003005000070050000021C3AB
:100F30001000C09020000020400D03002DE9F84F64
:100F40004FF00006040000967ED02068DFF8E8939A
:100F5000DFF8E8A3DFF8E8B3FA4DB0F1A04F0CD00A
:100F6000A8420AD0484508D0504506D0584504D07C
:100F700040F29B11F4A003F0F4FD6068B0F5803FEF
:100F80002CD0B0F5003F29D0B0F5403F26D028B393
:100F9000B0F5802F22D0B0F5002F1FD0B0F5402F34
:100FA0001CD0B0F5801F19D0B0F5A01F16D0B0F539
:100FB000C01F13D0B0F5E01F10D0B0F5001F0DD04A
:100FC000B0F5101F0AD0B0F5201F07D0B0F5301FC4
:100FD00004D04FF4CE71DCA003F0C3FDA06850B183
:100FE000082808D0102806D0182804D040F29D11F7
:100FF000D5A003F0B6FDE06838B1B0F5004F04D0DD
:101000004FF4CF71D0A003F0ACFD206944F2090188
:10101000884204D940F29F11CBA003F0A2FD606981
:1010200030B1012804D04FF4D071C7A003F099FD6E
:10103000607F30B1012804D040F2A111C2A003F0BA
:1010400090FD4FF4806700E0EEE0206B60B1B842A5
:101050000AD0B0F5006F07D0B0F5406F04D04FF460
:10106000D171B9A003F07DFDE06AB0F5A46F7DD029
:10107000B0F5A86F7AD0B0F5886F7DD0B0F5AC6FC1
:101080007AD0B0F5906F77D0B0F5B06F74D0B0F57E
:10109000B46F71D0B0F5F86F6ED0B0F59C6F6BD0B7
:1010A000B0F5A06F68D0B0F5B86F65D0B0F5C06F7F
:1010B00062D0B0F5C46F5FD0B0F5C86F5CD0B0F54A
:1010C000D46F59D0B0F5D86F56D0B0F5DC6F53D08F
:1010D000B0F5E06F50D0B0F5E46F4DD0B0F5E86FEB
:1010E0004AD0B0F5EC6F47D0B0F5F06F44D0B0F512
:1010F000F46F41D021684FF484624FF48C6E4FF44A
:10110000BC634FF4986CB1F1A04F01D0A94212D149
:10111000B84231D090422FD070452DD098422BD07C
:10112000B0F5946F28D0B0F5CC6F25D0B0F5D06F66
:1011300022D0604520D0494503D0514501D05945C2
:1011400012D1984218D0904216D0B84214D06045BF
:1011500012D0704510D0B0F5CC6F0DD0B0F5D06F77
:101160000AD0B0F5946F07D000B100E004E040F27F
:10117000A31175A003F0F5FC606B50B1B0F1806F66
:1011800007D0B0F1006F04D04FF4D2716EA003F01D
:10119000E8FC94F8380030B1012804D040F2A511E1
:1011A00069A003F0DEFCA069042806D0082804D05A
:1011B0004FF4D37164A003F0D4FCE06B38B1B0F508
:1011C000805F04D040F2A7115FA003F0CAFC207F2B
:1011D00030B1012804D04FF4D4715BA003F0C1FCFE
:1011E00094F8400030B1012804D040F2A91156A073
:1011F00003F0B7FC606918B3206A401E0F2804D9B9
:1012000040F2AD1150A003F0ACFC94F8240018B3E8
:1012100001280CD04FF4D7714BA003F0A2FC94F836
:101220002400012803D017E00120BDE8F88FA06A50
:10123000401E072808D94FF4D97143A003F091FC50
:1012400094F82400012807D1607F012804D140F2DE
:10125000B7113DA003F085FCE06D30B9204600F0E9
:101260006DF90020206684F8580020688168C1F379
:10127000407119B18168424A1140816020688168DB
:10128000C1F3007189B981683E4A114041F0805133
:1012900081603D483D490068B0FBF1F04000801C92
:1012A00000E0401E00900028FBD120688168C1F357
:1012B000007141B9E16D41F01001E165216E41F02D
:1012C00001012166012603F042F80746E06D00F0B7
:1012D0001001E06D394305D040F01000E0650126B3
:1012E0003046A2E720F4807040F00200E0652068FC
:1012F000816811F0010F54D14FF0A042904201D00B
:10130000A84204D19168AB6801F001010AE0D9F864
:101310000810DAF8083001F0010103F00103194365
:10132000DBF8083003F0010319433AD1904201D0B1
:10133000A8422FD116482EE00004005000050050AE
:1013400000060050000100502E2E2F447269766571
:1013500072732F53544D3332473478785F48414C81
:101360005F4472697665722F5372632F73746D33A5
:1013700032673478785F68616C5F6164632E630004
:10138000C0FFFF5FC0FFFF7F20000020400D030073
:101390000003005066486168826822F47C120A43A8
:1013A0008260E168E06B627F0843A16841EA4231F4
:1013B000084394F8241040EA0140012904D1218D0A
:1013C0005C4A02EB41410843E16A29B101F47871BA
:1013D000226B014342EA01002268D168564B194052
:1013E0000143D16020680169626B21F040611143C3
:1013F0000161206802F0A7FF07432ED1207F94F8F7
:101400003810800340EA41022068C16844F20203B8
:1014100099431143C16020690028206801690AD0FE
:1014200041F480310161206850F8C01F22696FF3D8
:101430000D01114307E021F480310161206850F86B
:10144000C01F6FF30D01016094F8400001280CD01B
:101450002068016921F001010161606901282068AB
:10146000016B21F00F0158D05AE0606C98B104284C
:1014700011D008280FD00C280DD010280BD014281C
:1014800009D0182807D01C2805D040F27621AFF2E9
:10149000481003F066FBA06CB0B1202814D040289F
:1014A00012D0602810D080280ED0A0280CD0C028E0
:1014B0000AD0E02808D0B0F5807F05D040F277212F
:1014C000AFF27C1003F04DFBE06C40B1B0F5007F53
:1014D00005D04FF41E71AFF2901003F042FB206D67
:1014E000012809D0A0F58061013905D040F27921A9
:1014F000AFF2AC1003F035FBD4E911010843D4E995
:1015000013121143084321680A6940F2FC739A439D
:10151000104340F0010008619FE7226A521E114308
:101520000163E06D20F0020040F00100E065D7E6C5
:10153000000700500000FEFF0740F0FF30B597B0F5
:10154000044654216846FEF7B7FE4FF40041206878
:101550008A031F4D1F4CB0F1A04F02D01E4B984282
:1015600014D168461192009101F0BEFD08B1FEF75A
:1015700008FF2868401C2860012827D1E06C40F44F
:101580000050E064E06C00F400501EE0134B990141
:10159000CA03984205D0124B984202D0114B984290
:1015A00014D168461292009101F09EFD08B1FEF739
:1015B000E8FE6868401C6860012807D1E06C40F4D0
:1015C0008040E064E06C00F48040159017B030BDBE
:1015D00008000020001002400001005000040050EC
:1015E000000500500006005070B5044600F044FDB0
:1015F0000546601C02D004484068044400F03CFDED
:10160000401BA042FAD370BD140000202DE9F04128
:101610000546486816460C464FF00057002879D01A
:10162000B0F1804F07D040F641014DA003F099FA88
:10163000606800286ED02068B84204D340F64801A4
:1016400047A003F08EFAA06830B1B84204D040F64B
:101650004A0143A003F085FAE36813B3012B20D0BD
:10166000022B1ED0032B1CD0042B1AD0052B18D014
:10167000062B16D0072B14D0082B12D0092B10D014
:101680000A2B0ED00B2B0CD00C2B0AD00D2B08D014
:101690000E2B06D00F2B04D040F64B0130A003F0E8
:1016A00060FA206938B1B0F1004F04D040F64C0127
:1016B0002BA003F056FA606938B1B0F5801F04D052
:1016C00040F64D0126A003F04CFAA06938B1B0F500
:1016D000001F04D040F64E0121A003F042FAE06959
:1016E00038B1B0F5000F04D040F64F011CA003F054
:1016F00038FA206AFF2804D94FF4056118A003F0D6
:1017000030FA95F85C0002280BD0286E40F00800F3
:101710000FE0FFE72068B0F5006F94D340F6440176
:101720008EE72868D0F8C410890206D5286E40F4E8
:10173000007028660120BDE8F081D0F8C400324670
:10174000C0F301473B4621462846FEF71DFE2968A7
:101750000120B840C1F8CC00A8650020EBE70000EC
:101760002E2E2F447269766572732F53544D333287
:10177000473478785F48414C5F4472697665722FD0
:101780005372632F73746D3332673478785F686196
:101790006C5F666463616E2E630000002DE9F05F8C
:1017A00004007DD0E84E2068DFF8A083DFF8A0A316
:1017B000B04208D0404506D0504504D04FF498714F
:1017C000E4A003F0CEF92068B04224D1606810B3E1
:1017D000012820D002281ED003281CD004281AD0AB
:1017E000052818D0062816D0072814D0082812D0AB
:1017F000092810D00A280ED00B280CD00C280AD0AB
:101800000D2808D00E2806D00F2804D040F233113E
:10181000D0A003F0A6F9A0684FF4407548B1B0F528
:10182000807F06D0A84204D040F23511C9A003F051
:1018300098F9E06860B101280AD0022808D003288E
:1018400006D0042804D04FF49B71C2A003F089F99C
:10185000207C30B1012804D040F23711BDA003F044
:1018600080F9607C30B1012804D04FF49C71B9A09C
:1018700003F077F9A07C30B1012804D040F239118F
:10188000B4A003F06EF96069401EB0F5007F04D388
:101890004FF49D71AFA003F064F9A069401E00E011
:1018A0005FE07F2804D940F23B11AAA003F059F968
:1018B000E069401EFF2804D94FF49E71A5A003F0F3
:1018C00050F9206A401E7F2804D940F23D11A1A0A2
:1018D00003F047F9A068AB46584523D1606A401E23
:1018E0001F2804D94FF4A0719AA003F03AF9A06A16
:1018F000401E0F2804D940F2411196A003F031F99F
:10190000E06A401E1F2804D94FF4A17191A003F092
:1019100028F9206B401E0F2804D940F243118DA0F6
:1019200003F01FF9606B1C2804D940F2451189A00F
:1019300003F017F9A06B082804D94FF4A37185A010
:1019400003F00FF9E06B38B1B0F1807F04D040F2C2
:10195000471180A003F005F994F85C00002518B148
:1019600007E00120BDE8F09F84F85D50204600F0BC
:1019700015F92068816921F01001816100F07CFB7C
:1019800007464FF0030904E000F076FBC01B0A286D
:1019900011D8206880690007F6D42068816941F079
:1019A0000101816100F068FB07460BE000F064FB79
:1019B000C01B0A2806D9206E40F00100206684F87A
:1019C0005C90CEE720688069C007EFD0206881690D
:1019D00041F0020181612068B04202D16C49606827
:1019E0000860207C01282068816937D041F04001DF
:1019F0008161607C01282068816932D021F48041B6
:101A00008161A07C0128206881692DD041F480513A
:101A1000816120688169A26821F44071114381616C
:101A20002068816921F0A40181612068016921F0A9
:101A300010010161E068012819D010B302281BD001
:101A40002068816941F0800181612068016941F06D
:101A500010010161E06803280ED012E021F040017E
:101A6000C6E741F48041CBE721F48051D0E72068FC
:101A7000816941F0040103E02068816941F020019F
:101A80008161207EE26940066FF0FF0101EB0222D6
:101A9000A0F100701043226AA38A521E10430A026A
:101AA00002EB034318432368D861A068584510D15E
:101AB000D4E90A0301EB0321401E0843216B1313F1
:101AC00003EB01110843A18C02EB0141084321689B
:101AD000C860206850F8C01FE26B114301602168A4
:101AE0002C48414500D12C48514501D100F5D46026
:101AF000206451F8802FA38E22F4F81242EA0342A8
:101B00000A6000F170016164216851F8802F94F837
:101B1000383022F0706242EA03620A6000F1B001DC
:101B2000A164D831E164D831216518316165D831BB
:101B300000E020C08842FCD3A5652566012084F81A
:101B40005C0000200EE700000064004000680040D8
:101B5000006C00402E2E2F447269766572732F53ED
:101B6000544D3332473478785F48414C5F44726952
:101B70007665722F5372632F73746D3332673478C6
:101B8000785F68616C5F666463616E2E630000005D
:101B90000065004000A4004050A700402DE9F0413E
:101BA0009CB00446142115A8FEF786FB5421684614
:101BB000FEF782FB2E4B2068991400254A032D4E18
:101BC0000227DFF8B4802D4C984222D168460E924D
:101BD000009101F089FA08B1FEF7D3FB3068401C90
:101BE0003060012807D1A06D40F00070A065A06DA5
:101BF00000F000701A90E06C40F00200E064E06CCD
:101C0000CDE9167500F002001A90602015900920A9
:101C100024E01B4B984227D168460E92009101F0B8
:101C200063FA08B1FEF7ADFB3068401C3060012854
:101C300007D1A06D40F00070A065A06D00F00070AD
:101C40001A90E06C40F00200E064E06CCDE916759B
:101C500000F002001A90182015900B20CDE91850C2
:101C600015A9404600F074F81CB0BDE8F0810000F2
:101C700000680040100000200004004800100240EE
:101C8000006C004070B504000DD0174920688842F0
:101C900004D040F2851115A002F063FF94F83100E2
:101CA000002510B106E0012070BD84F830502046B8
:101CB00000F03AF820466560FEF7B8FB2046FEF7D4
:101CC00095FB012807D06563202084F831000020AF
:101CD00084F8305070BD606B40F010006063A0204D
:101CE00084F831000120F3E7001402402E2E2F4427
:101CF0007269766572732F53544D33324734787856
:101D00005F48414C5F4472697665722F5372632F4E
:101D100073746D3332673478785F68616C5F666DB9
:101D200061632E630000000008B500680649884220
:101D300008D10648816C41F010018164806C00F08C
:101D40001000009008BD0000001402400010024086
:101D50002DE9F84F00274FF0904ADFF85482DFF862
:101D600054B20D460446504513D0444511D05C454D
:101D70000FD0914884420CD09048844209D09048BA
:101D8000844206D08F48844203D0A9218EA002F05D
:101D9000E8FE28680104090C01D0000C03D0AA2138
:101DA00089A002F0DEFE68684FF0030900281FD00A
:101DB0000128FCD01128FAD00228F8D01228F6D039
:101DC000B0F5881FF3D0B0F5041FF0D0B0F5441F74
:101DD000EDD0B0F5901FEAD0B0F5081FE7D0B0F510
:101DE000481FE4D00328E2D0AB2177A002F0B9FE6F
:101DF000D6E00120B840009006407CD0287900F061
:101E00000300012801D002281DD1E86848B101284B
:101E100007D0022805D0032803D0BB216AA002F016
:101E2000A0FEA168780009FA00F29143EA688240B6
:101E30000A43A2606068009988432979C1F30011C0
:101E4000B940014361602879C043800712D0A86877
:101E500038B1012805D0022803D0CC215AA002F0C5
:101E600080FEE268780009FA00F18A43A96881409F
:101E70001143E160287900F00300022829D154457C
:101E800013D0444511D05C450FD04B4884420CD050
:101E90004A48844209D04A48844206D0494884428C
:101EA00003D0D92148A002F05CFE28690F2803D98D
:101EB000DA2145A002F055FEF80804EB8000026A22
:101EC0007907CB0E0F2199408A4329699940114324
:101ED00001622168780009FA00F291432A7902F040
:101EE000030282400A432260686810F4403F56D0E3
:101EF0004448016E00E052E041F001010166006ECD
:101F000027F0030100F0010000903F480144886879
:101F1000BA07130F0F229A409043544501D1002273
:101F200017E0444501D1012213E05C4501D10222B2
:101F30000FE0214A944201D103220AE01F4A944251
:101F400001D1042205E01E4A944201D1052200E09D
:101F500006229A4002438A602C4A10686968B0439E
:101F6000C90200D530431060284A121D1068696804
:101F7000B043890200D5304310602449091F086826
:101F80006A68B043920300D5304308601F4908399E
:101F900008686A68B043D20300D5304308607F1CEC
:101FA0002E6836FA07F07FF424AFBDE8F88F000002
:101FB0000004004800080048000C004800100048D9
:101FC00000140048001800482E2E2F4472697665D0
:101FD00072732F53544D3332473478785F48414CF5
:101FE0005F4472697665722F5372632F73746D3319
:101FF00032673478785F68616C5F6770696F2E63F1
:1020000000000000001002400000014008040140F0
:1020100070B515460C00064604D14FF4CD7107A0EB
:1020200002F09FFD45B1012D04D040F29B1103A0A9
:1020300002F097FDB46170BDB46270BD2E2E2F44C6
:102040007269766572732F53544D33324734787802
:102050005F48414C5F4472697665722F5372632FFB
:1020600073746D3332673478785F68616C5F677062
:10207000696F2E630000000001488068704700000F
:102080001400002070B504460D46481C0BD055B115
:10209000042D08D0082D06D00C2D04D04FF4427129
:1020A00016A002F05EFD94F8DC00012821D001208A
:1020B00084F8DC00022184F8DD10691C2168D1F865
:1020C000CC2318D042F00202C1F8CC232168D1F809
:1020D000CC2322F00C022A43C1F8CC232168D1F88A
:1020E000CC2342F00102C1F8CC2384F8DD000020AB
:1020F00070BD022070BD22F00202EDE72E2E2F44AB
:102100007269766572732F53544D33324734787841
:102110005F48414C5F4472697665722F5372632F3A
:1021200073746D3332673478785F68616C5F68729E
:1021300074696D2E63000000F8B504007ED04A4E2D
:102140002068B04204D040F2332148A002F009FDDB
:1021500055496068084204D04FF40D7143A002F065
:1021600000FD022084F8DD000025C4F8E050C4F82A
:10217000E450C4F8E850C4F8EC50C4F8F050C4F887
:10218000F450C4F8F850207AC00737D0206968B1FD
:10219000B0F5804F0AD0B0F5004F07D0B0F5404FF2
:1021A00004D04FF41B7131A002F0DBFC606950B128
:1021B000B0F5005F07D0B0F5405F04D040F26D216C
:1021C0002AA002F0CEFC2068B04208D13748016E48
:1021D00041F080610166006E00F08060009021682F
:1021E000086820F44042208A00F44040104320F464
:1021F0004052A08A00F4405010430860204600F08E
:1022000057F8207A800715D5E06850B1B0F5007F07
:1022100007D0B0F5407F04D040F2912113A002F026
:10222000A0FC2168086820F44072A08900F4407086
:1022300010430860012084F8DD0000E012E084F81B
:10224000DC500021C1EBC10004EB8000491C85611A
:10225000C561056245628562C9B205630629F1D987
:102260000020F8BD0120F8BD006801402E2E2F444B
:102270007269766572732F53544D333247347878D0
:102280005F48414C5F4472697665722F5372632FC9
:1022900073746D3332673478785F68616C5F68722D
:1022A00074696D2E6300000080FFFCFF0010024087
:1022B00008B500680649884208D10648016E41F019
:1022C00080610166006E00F08060009008BD000033
:1022D000006801400010024010B586B00446142189
:1022E0006846FDF7E9FF0F492068884218D10E487B
:1022F000C16C41F00101C164C06C694600F001008D
:1023000005904FF470600090022001900020029030
:10231000032003900D2004904FF09040FFF718FD2C
:1023200006B010BD006801400010024070B50D46B7
:102330000446FFF7A1FE064607E0681C05D0FFF73C
:102340009BFE801BA8420DD865B12068D0F8880399
:10235000C043C003F1D4012084F8DD00002084F8DC
:10236000DC0070BD072084F8DD00032070BD000094
:1023700070B515460C46064606290FD074B1012CDF
:102380000CD0022C0AD0032C08D0042C06D0052C2B
:1023900004D040F296312EA002F0E3FBA86890B181
:1023A000012810D002280ED003280CD004280AD00F
:1023B000052808D0062806D0072804D040F2973117
:1023C00023A002F0CEFBE868082807D030B110281F
:1023D00004D04FF466711EA002F0C3FB96F8DD0036
:1023E000022822D0022086F8DD00062C1ED0802094
:1023F000326800EBC411505820F00703A868184356
:1024000020F01803E868184350509422316802EB1A
:10241000C412286888509822316802EBC412686898
:102420008850012086F8DD00002070BD3168086802
:1024300020F00702A868104320F01802E868104353
:102440000860316828684861316868688861E8E731
:102450002E2E2F447269766572732F53544D33328A
:10246000473478785F48414C5F4472697665722FD3
:102470005372632F73746D3332673478785F686199
:102480006C5F687274696D2E630000002DE9F04185
:102490001D4614460E0007460AD0012E0DD0022E0E
:1024A00010D0032E13D0042E16D0052E1BD020E002
:1024B000012C23D0022C21D01BE0042C1ED0082C90
:1024C0001CD016E0102C19D0202C17D011E0402C75
:1024D00014D0802C12D00CE0B4F5807F0ED0B4F56F
:1024E000007F0BD005E0B4F5806F07D0B4F5006F26
:1024F00004D041F606012DA002F033FB286830B16C
:10250000022804D041F6070128A002F02AFB28691E
:1025100030B1082804D041F6080124A002F021FBC4
:10252000E86830B1042804D041F609011FA002F088
:1025300018FB686950B1102808D0202806D0302830
:1025400004D041F60A0119A002F00BFBA86930B1D2
:10255000402804D041F60B0114A002F002FBE86908
:1025600030B1802804D041F60C0110A002F0F9FA35
:1025700097F8DD00022815D097F8DC00012813D069
:102580004FF0010887F8DC80022087F8DD002B4639
:1025900022463146384601F092FD87F8DD80002062
:1025A00087F8DC00BDE8F0810220FBE72E2E2F44E7
:1025B0007269766572732F53544D3332473478788D
:1025C0005F48414C5F4472697665722F5372632F86
:1025D00073746D3332673478785F68616C5F6872EA
:1025E00074696D2E630000002DE9F04714460D4616
:1025F000064606290FD075B1012D0CD0022D0AD048
:10260000032D08D0042D06D0052D04D041F26331EE
:10261000AFA002F0A6FA606930B1202804D041F2E0
:102620006631ABA002F09DFAA06950B1022808D033
:10263000032806D0042804D041F26731A4A002F098
:1026400090FAE06938B1B0F5006F04D041F268311A
:102650009FA002F086FA206A38B1B0F5806F04D0EE
:1026600041F269319AA002F07CFA606A68B1B0F177
:10267000007F0AD0B0F1806F07D0B0F1C06F04D0F6
:1026800041F26A3192A002F06CFAA06A38B1B0F15E
:10269000006F04D041F26B318DA002F062FA206B22
:1026A00038B1B0F5803F04D041F26C3188A002F01F
:1026B00058FA606B4FF0005730B1B84204D041F285
:1026C0006D3183A002F04DFA96F8DD0002287FD02C
:1026D00096F8DC0001287AD04FF0010886F8DC80FB
:1026E000022086F8DD00C106E06A062D72D04FF0A8
:1026F0000049C8B1884217D0B84215D0B0F1405F48
:1027000012D0B0F1804F0FD0B0F1A04F0CD0B0F18B
:10271000C04F09D0B0F1E04F06D0484504D041F297
:1027200086316BA002F01DFA206847F6DF718843FE
:1027300004D041F2873166A002F013FA7349606851
:10274000084204D041F2883161A002F00AFAA06B7D
:1027500030B1402804D041F289315DA002F001FA85
:10276000E06B800904D041F28A3159A002F0F9F9F6
:10277000206C30B1484504D041F28B3154A002F0B6
:10278000F0F9606C38B1B0F5807F04D041F28C3143
:102790004FA002F0E6F9A06C002846D0B0F5007F0B
:1027A00043D0B0F5C06F40D0B0F5206F3DD0B0F54C
:1027B000905F3AD0B0F5B05F37D0B0F5D05F34D08D
:1027C000A16B402926D02BE002E000E002E00220CD
:1027D000BDE8F08740B1884206D0B84204D041F24B
:1027E0007C313BA002F0BDF92068C00904D041F261
:1027F0007D3137A002F0B5F9606830F4FE0004D0F6
:1028000041F27E3132A002F0ACF92146304601F0AF
:102810000DFC35E0B0F5606F07D0B0F5F05F04D087
:1028200041F28E312AA002F09CF9E06C38B1B0F58B
:10283000804F04D041F2903125A002F092F9344942
:10284000206D084204D041F2913121A002F089F9B3
:10285000A06D38B1B0F5802F04D041F293311CA0A7
:1028600002F07FF9E06D30B1012804D041F29431DB
:1028700017A002F076F922462946304601F08EFC78
:10288000C5EBC50006EB800021680162616841620A
:10289000A1688162E168C16221690163294630460D
:1028A00001F090FB062D0CD0E06A50B98021306811
:1028B00001EBC5114258E36D22F4007242EA432253
:1028C000425086F8DD80002086F8DC0080E70000BA
:1028D0002E2E2F447269766572732F53544D333206
:1028E000473478785F48414C5F4472697665722F4F
:1028F0005372632F73746D3332673478785F686115
:102900006C5F687274696D2E63000000FFFF2080A9
:10291000FFFF06FE2DE9F04114460D460646062946
:102920000FD075B1012D0CD0022D0AD0032D08D087
:10293000042D06D0052D04D041F2CB3142A002F087
:1029400010F9206830B1012804D041F2CD313EA009
:1029500002F007F9606838B1B0F5801F04D041F289
:10296000CE3139A002F0FDF8A06838B1B0F5003FD3
:1029700004D041F2CF3134A002F0F3F8E06838B16E
:10298000B0F5803F04D041F2D0312FA002F0E9F839
:10299000206930B1042804D041F2D1312AA002F0DC
:1029A000E0F8606930B1022804D041F2D23126A0AB
:1029B00002F0D7F8A06930B1012804D041F2D33138
:1029C00021A002F0CEF896F8DD00022824D096F877
:1029D000DC0001281FD0012786F8DC70022086F871
:1029E000DD00EC20326800EBC5115058236820F060
:1029F000100040EA031020F480136068184320F4AC
:102A00008033E068184320F40033A0681843A369BA
:102A1000012B03D00CE00220BDE8F08120F004037C
:102A20002069184320F002036069184340F0010058
:102A300050502946304601F0C5FA86F8DD70002076
:102A400086F8DC00E8E700002E2E2F4472697665D8
:102A500072732F53544D3332473478785F48414C6A
:102A60005F4472697665722F5372632F73746D338E
:102A700032673478785F68616C5F687274696D2E54
:102A80006300000002488168426811448160704719
:102A90001400002010B50024032000F095F80F204A
:102AA00000F008F808B1012401E000F025F8204604
:102AB00010BD000070B50E4E05460024706898B138
:102AC0004FF47A71B1FBF0F00A490968B1FBF0F0FC
:102AD00001F064FA40B9102D06D200222946501E9A
:102AE00000F022F8356000E00124204670BD0000AF
:102AF00014000020200000200A4882B0016E41F03E
:102B000001010166016E01F001010091816D41F04A
:102B100080518165806D00F08050009002B000F01F
:102B2000DBBA00000010024070B515460C460646A0
:102B3000102A03D3BE2114A002F013F8102C03D3E3
:102B4000BF2111A002F00DF81E480068C0F3022357
:102B5000C3F107022046042A00D90422191D0729BF
:102B600001D2002300E0DB1E012404FA02F1491E19
:102B7000014099409C40641E2C4021433046BDE8F2
:102B8000704001F0DEBF00002E2E2F447269766582
:102B900072732F53544D3332473478785F48414C29
:102BA0005F4472697665722F5372632F73746D334D
:102BB00032673478785F68616C5F636F72746578D0
:102BC0002E6300000CED00E010B5044607280BD082
:102BD000062C09D0052C07D0042C05D0032C03D0DB
:102BE000A62108A001F0BDFF154904F007020868FE
:102BF0004FF6FF03184040EA0220124A10430860D3
:102C000010BD00002E2E2F447269766572732F530B
:102C1000544D3332473478785F48414C5F44726991
:102C20007665722F5372632F73746D333267347805
:102C3000785F68616C5F636F727465782E63000003
:102C40000CED00E00000FA05F8B504004FF00005B7
:102C500043D094F83A0005283FD094F83A0002286F
:102C60003BD08E492068884213D0091D884210D07D
:102C7000091D88420DD0091D88420AD0091D8842CD
:102C800007D0091D884204D04FF49E7184A001F042
:102C900068FF606830B1802804D040F23F1180A006
:102CA00001F05FFFA06840B1402806D0602804D042
:102CB0004FF4A0717AA001F054FF206950B10428AC
:102CC00008D0082806D00C2804D040F2411174A086
:102CD00001F047FFA06810B10AE00120F8BDE068EC
:102CE00030B1202804D040F24F116DA001F039FF1F
:102CF000207D30B1012804D040F2511168A001F0CC
:102D000030FFA069382804D940F2531164A001F0C3
:102D100028FFA069A8B1206A50B1022808D0042871
:102D200006D0062804D040F257115DA001F019FF2B
:102D3000E06930B1012804D04FF4AC7158A001F023
:102D400010FFA068402825D1606A68B1B0F5802FD7
:102D50000AD0B0F5003F07D0B0F5C02F04D040F244
:102D60005D114FA001F0FDFEA06A98B1B0F5804F53
:102D700010D0B0F5004F0DD0B0F5404F0AD0B0F5EF
:102D8000803F07D0B0F5A03F04D04FF4AF7144A00E
:102D900001F0E7FEE06A002819D0102807D040F2C1
:102DA00061113FA001F0DDFEE06A10280FD1206B19
:102DB0001F2804D94FF4B27139A001F0D2FE606B24
:102DC0001F2804D940F2651135A001F0CAFE43481E
:102DD000016E41F001010166006E00F001000090FB
:102DE00094F83A0010B9002084F83900204600F029
:102DF00079F8A0683A494FF48072402836D06028AC
:102E000034D020680368E66A23F01003334303607C
:102E1000D4E901031843D4E9033633431843237D2F
:102E2000012B00D000221043626A1043A26A1043B3
:102E3000228E40EAC24094F8342040EA02622068C0
:102E400003680B401A43026020688169002909DB8E
:102E5000D4E906121143226A836923F03F031A431F
:102E60001143816194F83A0090B114E0206803683E
:102E7000E66A23F0100333430360D4E901031843E7
:102E8000267D2369012E00D0002213431843CBE78F
:102E9000012084F83A002846F8BD000000030140F4
:102EA0002E2E2F447269766572732F53544D333230
:102EB000473478785F48414C5F4472697665722F79
:102EC0005372632F73746D3332673478785F68613F
:102ED0006C5F6F70616D702E630000000010024027
:102EE000113E00E030B587B0044614216846FDF776
:102EF000E3F92468324800223249032384420FD187
:102F0000C86C40F00100C864C86C694600F001005C
:102F100005908020CDE9000302924FF090400EE032
:102F2000274D29482D1DAC420DD1CC6C44F0020434
:102F3000CC64C96C01F00201059101213BE0FEF770
:102F400007FF07B030BD1E4D0835AC4209D1CC6C2F
:102F500044F00204CC64C96C01F0020105916914CB
:102F600029E0174D0C35AC4209D1CC6C44F0020479
:102F7000CC64C96C01F002010591E9141BE0104D0D
:102F80001035AC420AD1CC6C44F00204CC64C96C5C
:102F900001F0020105914FF480410CE0084D143519
:102FA000AC42CED1CC6C44F00204CC64C96C01F0CC
:102FB00002010591A914CDE9001302926946BEE70A
:102FC000000301400010024000040048304910B5E1
:102FD0000968304A3223304C5943D0B1B0F5007FF4
:102FE0000CD0B0F5806F03D09D212CA001F0B9FD6D
:102FF000206820F4C06040F4806008E02068C0F3DE
:10300000412002282AD054F8800F40F480702060BC
:103010003BE02068C0F34120022804D054F8800F20
:1030200020F48070F3E7D4F8800020F48070C4F8B6
:103030008000206820F4C06040F400702060B1FB84
:10304000F2F0401C00E0401E6169490501D50028EE
:10305000F9D16069400518D5032010BDD4F880006F
:1030600040F48070C4F88000206820F4C06040F410
:1030700000702060B1FBF2F0401C00E0401E61696E
:103080004905E6D50028F9D1E3E7002010BD00008E
:103090002000002040420F00007000402E2E2F44E0
:1030A0007269766572732F53544D33324734787892
:1030B0005F48414C5F4472697665722F5372632F8B
:1030C00073746D3332673478785F68616C5F7077E2
:1030D000725F65782E6300000248816841F4804188
:1030E00081607047007000402DE9F84F0446006889
:1030F0000026C1074FF4807A4FF4007BFE4D29D1A2
:10310000810727D4410725D4010723D4C10621D440
:1031100081061FD441061DD401061BD4C10519D454
:10312000810317D4810515D4410513D4010511D4A9
:10313000C1040FD481040DD441040BD4010409D47B
:10314000C10307D4410305D4000306D48321EBA0B7
:1031500001F007FD206800036BD5206D002750B1FA
:10316000504508D0584506D0B0F5407F03D08B219C
:10317000E2A001F0F6FCA86DC00008D4A86D40F0F4
:103180008050A865A86D012700F080500090DFF8FE
:10319000A893D9F8001041F48071C9F80010FEF727
:1031A0006BFF804606E000BFFEF766FFA0EB08005D
:1031B00002282BD8D9F80000C005F5D5D5F8900025
:1031C00010F4407014D0216D814211D0D5F89000D8
:1031D000D5F8901020F4407041F48031C5F890107B
:1031E000D5F8901021F48031C5F89010C5F8900002
:1031F000C00711D0FEF740FF804641F2883907E052
:10320000FEF73AFFA0EB0801494501D903260BE080
:10321000D5F890008007F3D5D5F89000216D20F403
:1032200040700843C5F890001FB1A86D20F0805091
:10323000A8652078C00713D0606848B1012807D07E
:10324000032805D0022803D0E021ACA001F089FCBE
:10325000D5F88800616820F003000843C5F88800AD
:103260002078800713D5A06848B1042807D00C281F
:1032700005D0082803D0EA21A0A001F072FCD5F8FF
:103280008800A16820F00C000843C5F88800207869
:10329000400713D5E06848B1102807D0302805D082
:1032A000202803D0F62195A001F05BFCD5F888001A
:1032B000E16820F030000843C5F888002078000756
:1032C00014D5206950B1402808D0C02806D08028E5
:1032D00004D040F2031189A001F043FCD5F8880026
:1032E000216920F0C0000843C5F888002078C00696
:1032F00015D5606958B1504509D0B0F5407F06D06A
:10330000584504D04FF488717CA001F02AFCD5F810
:103310008800616920F440700843C5F8880020786F
:10332000800617D5A06968B1B0F5806F0AD0B0F5F6
:10333000406F07D0B0F5006F04D04FF48E716FA0CE
:1033400001F00FFCD5F88800A16920F44060084323
:10335000C5F888002078400614D5E06950B1B0F572
:10336000805F07D0B0F5005F04D04FF4937163A085
:1033700001F0F7FBD5F88800E16920F440500843DC
:10338000C5F888002078000614D5206A50B1B0F541
:10339000804F07D0B0F5004F04D04FF4987157A07C
:1033A00001F0DFFBD5F88800216A20F44040084393
:1033B000C5F888002088C00514D5606A50B1B0F502
:1033C000803F07D0B0F5003F04D040F23B114BA046
:1033D00001F0C7FBD5F88800616A20F4403008434B
:1033E000C5F888002068800312D5A06A40B1012882
:1033F00006D0022804D04FF4A47140A001F0B1FB24
:10340000D5F89C00A16A20F003000843C5F89C0091
:103410002088800517D5E06A68B1B0F5802F0AD002
:10342000B0F5002F07D0B0F5402F04D04FF4AA71AB
:1034300032A001F096FBD5F88800E16A20F4402024
:103440000843C5F8880020884FF4801840054FF4E1
:1034500000191CD5206B58B1404509D0484507D00C
:10346000B0F5401F04D040F25F1124A001F079FBB9
:10347000D5F88800216B20F440100843C5F8880077
:10348000206B404503D1E86840F48010E860208854
:1034900000051FD5606B4FF4800760B1B8420AD0B9
:1034A000B0F5000F07D0B0F5400F04D04FF4B9715C
:1034B00012A001F056FBD5F88800616B20F44000A3
:1034C0000843C5F88800606BB84203D1E86840F44F
:1034D0008010E8602088C0043FD5A06B4FF0807753
:1034E00048B1B84207D0B0F1007F04D040F2851156
:1034F00002A001F036FB21E0001002402E2E2F44E6
:103500007269766572732F53544D3332473478782D
:103510005F48414C5F4472697665722F5372632F26
:1035200073746D3332673478785F68616C5F72638F
:10353000635F65782E63000000700040D5F8880056
:10354000A16B20F040700843C5F88800A06BB8421A
:1035500003D1E86840F48010E86020884FF00067ED
:10356000800418D5E06B38B1B84205D040F297110D
:10357000AFF2780001F0F5FAD5F88800E16B20F0A1
:1035800040600843C5F88800E06BB84203D1E868A2
:1035900040F48010E8602088400418D5206C38B1D1
:1035A000B84205D04FF4D371AFF2B00001F0D9FAB0
:1035B000D5F88800216C20F040600843C5F88800E9
:1035C000206CB84203D1E86840F48010E86020889D
:1035D00000041DD5606C4FF0805750B1B84208D040
:1035E000B0F1005F05D04FF4DA71AFF2F00001F0F6
:1035F000B8FAD5F88800616C20F040500843C5F84F
:103600008800606CB84203D1E86840F48030E8601C
:103610002068C0031DD5A06C4FF0804750B1B84260
:1036200008D0B0F1004F05D040F2C511AFF2341010
:1036300001F097FAD5F88800A16C20F040400843CB
:10364000C5F88800A06CB84203D1E86840F4803027
:10365000E860206840031AD5E06C404508D038B1D6
:10366000484505D04FF4EC71AFF2701001F079FAD3
:10367000D5F89C00E16C20F440100843C5F89C008C
:10368000E06C484503D1E86840F48010E8603046BB
:10369000BDE8F88F2DE9F0470D4606004FF0000712
:1036A0005FD03068010701D0000904D040F20B312F
:1036B000A3A001F056FA15B3012D20D0022D1ED083
:1036C000032D1CD0042D1AD0052D18D0062D16D090
:1036D000072D14D0082D12D0092D10D00A2D0ED090
:1036E0000B2D0CD00C2D0AD00D2D08D00E2D06D090
:1036F0000F2D04D04FF4437191A001F032FADFF89E
:103700007882D8F8000000F00F00A8420CD2D8F858
:10371000001021F00F012943C8F80010D8F800006C
:1037200000F00F00A8421CD13078944CC00741F241
:10373000883A68D07068DFF8489201280DD00228D6
:103740003BD0032810D040F223317DA001F009FACC
:103750007068032808D002282FD020684005002870
:103760002EDB0120BDE8F08720688001F9D5E068F4
:1037700000F00301E068C0F30310401C03291AD0D5
:10378000804900BFB1FBF0F0E168C1F30621484376
:10379000E168C1F34161491C4900B0FBF1F04845C3
:1037A00019D9A06810F0F00F0ED03078800712D52C
:1037B000B06848B10FE07449E4E720688003CEE7C1
:1037C00000F0EAF8484506D9A06820F0F00040F083
:1037D0008000A0608027A068716820F00300084383
:1037E000A060FEF749FC814606E000BFFEF744FCFE
:1037F000A0EB0901514550D8A068716800F00C0099
:10380000B0EB810FF2D1306881072BD5400703D58B
:10381000A06840F4E060A0603078000705D5A0689B
:1038200020F4605040F4E060A060B068A0B180284F
:1038300012D0902810D0A0280ED0B0280CD0C028CC
:103840000AD0D02808D0E02806D0F02804D040F2D2
:103850007A313BA001F085F9A068B16820F0F00052
:10386000084304E0802F03D1A06820F0F000A0609E
:10387000D8F80010404601F00F01A94215D901689F
:1038800021F00F0129430160FEF7F6FB074606E031
:10389000FEF7F2FBC11B514501D9032062E7D8F8BE
:1038A000000000F00F00A842F2D130784FF480659C
:1038B00040074FF4A0674FF4C0684FF4E06914D597
:1038C000F06860B1A8420AD0B84208D0404506D09E
:1038D000484504D04FF4677119A001F042F9A0687F
:1038E000F16820F4E0600843A0603078000715D547
:1038F000306960B1A8420AD0B84208D0404506D02D
:10390000484504D040F2A3310DA001F02AF9A06887
:10391000316920F4605040EAC100A06000F03CF83A
:10392000A1681A4AC1F30311515C01F01F01C8409C
:103930001749086017480068BDE8F047FFF7BAB8B4
:103940002E2E2F447269766572732F53544D333285
:10395000473478785F48414C5F4472697665722FCE
:103960005372632F73746D3332673478785F686194
:103970006C5F7263632E63000020024000100240FF
:1039800000B4C4040024F40000366E016A4C000840
:103990002000002014000020184910B58868C0F3EA
:1039A00081021748012A0BD08A68164BC2F38102A4
:1039B000022A06D08A68C2F38102032A03D00020BB
:1039C00010BD184610BDCA6802F00304CA68C2F3ED
:1039D0000312521C032C02D0B0FBF2F001E0B3FB47
:1039E000F2F0CA68C968C2F306225043C1F34161CC
:1039F000491C4900B0FBF1F010BD0000001002406E
:103A00000024F40000366E012DE9F84304007DD057
:103A1000FE4D206870B1C1070FD1810765D48106C2
:103A200075D4010774D4400773D440F24511F8A04F
:103A300001F097F82078C00754D060684FF48036C2
:103A40004FF4A02740B1B04206D0B84204D040F2B3
:103A50004B11EFA001F085F8A868E96800F00C00B0
:103A600001F003010C2802D0082809D001E0032945
:103A700006D06068B0420AD1286840F4803013E074
:103A8000286880032ED560680028C0D02AE0B8429C
:103A9000286803D140F480202860EDE720F48030CE
:103AA0002860286820F480202860606868B1FEF7EC
:103AB000E3FA064605E000BFFEF7DEFA801B642845
:103AC0007ED828688003F7D50CE0FEF7D5FA0646C5
:103AD00005E000BFFEF7D0FA801B6428F0D8286804
:103AE0008003F7D42078800762D5E06838B1B0F55C
:103AF000807F04D04FF4C071C5A001F032F8206976
:103B00007F2809D940F28111C1A003E0AEE04FE067
:103B100051E087E001F025F8A868E96800F00C00A2
:103B200001F003010C2802D004280DD001E0022985
:103B30000AD0E068002828682AD040F48070286005
:103B4000FEF79AFA064618E02868400502D5E068B4
:103B500000289AD06868217C20F0FE4040EA01608D
:103B60006860B9480068FEF7A5FF00287ED11FE015
:103B7000FEF782FA801B0228A2D828684005F7D5F4
:103B80006868217C20F0FE4040EA016068600FE038
:103B900020F480702860FEF76FFA064605E000BF4B
:103BA000FEF76AFA801B02288AD828684005F7D4F5
:103BB0002078000733D56069F0B1012808D000E013
:103BC000A9E14FF4E47192A000F0CBFF606998B1D5
:103BD000D5F8940040F00100C5F89400FEF74CFAC7
:103BE000064604E0FEF748FA801B0228C4D8D5F840
:103BF00094008007F6D512E0D5F8940020F001007B
:103C0000C5F89400FEF738FA064604E0FEF734FAE9
:103C1000801B0228B0D8D5F894008007F6D420780D
:103C200040076FD5A068002640B1012806D00528BE
:103C300004D04FF4FA7176A000F093FFA86DC00095
:103C400008D4A86D40F08050A865A86D012600F04A
:103C5000805000907D480168C90514D401688046F1
:103C600041F480710160FEF707FA00E08DE107463C
:103C700005E000BFFEF700FAC01B022894D8D8F870
:103C80000000C005F6D5A068012815D00528D5F894
:103C9000900016D020F00100C5F89000D5F89000F3
:103CA00020F00400C5F89000A06841F28838B8B14F
:103CB000FEF7E2F907460EE0D5F8900040F001006B
:103CC000F0E740F00400C5F89000F5E7FEF7D4F9FE
:103CD000C11B41458AD8D5F890008007F6D50CE085
:103CE000FEF7CAF9074604E0FEF7C6F9C11B4145D5
:103CF00090D8D5F890008007F6D41EB1A86D20F0BA
:103D00008050A8652078800631D5A069E0B10128EF
:103D100006D040F23B213EA000F023FFA06998B1FD
:103D2000D5F8980040F00100C5F89800FEF7A4F916
:103D3000064604E0FEF7A0F9801B02289ED8D5F8BD
:103D400098008007F6D512E0D5F8980020F0010021
:103D5000C5F89800FEF790F9064604E0FEF78CF9E6
:103D6000801B02288AD8D5F898008007F6D4E0692D
:103D700000286DD0012809D0022807D04FF419710E
:103D800023A000F0EEFEE0690028F2D0A868C0F39E
:103D900081000328E06979D0022807D0286820F044
:103DA00080702860FEF768F90446B7E0206A40B1E9
:103DB000022806D0032804D040F26E2114A000F09F
:103DC000D0FE606A401E0F2804D940F26F2110A077
:103DD00000F0C7FEA06A0838772804D94FF41C7198
:103DE0000BA000F0BEFEE06A801E1D2804D940F240
:103DF000712107A000F0B5FE206B02282FD0042807
:103E00002DD006282BD0082829D022E0001002400F
:103E10002E2E2F447269766572732F53544D3332B0
:103E2000473478785F48414C5F4472697665722FF9
:103E30005372632F73746D3332673478785F6861BF
:103E40006C5F7263632E63001400002000700040FA
:103E50009DE040F27221AFF2480000F082FE606BFC
:103E600002280BD0042809D0062807D0082805D03E
:103E700040F27321AFF2680000F073FE286820F072
:103E800080702860FEF7F8F8064606E04EE000BFB6
:103E9000FEF7F2F8801B02283DD828688001F7D48D
:103EA000F4E908016FF00F0202EB01110843218AC7
:103EB0005204490802EB4151A26841EA0221084339
:103EC000217D4FF07E42490802EB41610843217B8E
:103ED00040EAC160E9682F4A11400843E860286859
:103EE00040F080702860E86840F08070E860FEF77D
:103EF000C3F8044605E000BFFEF7BEF8001B022829
:103F000009D828688001F7D541E000BFFEF7B4F872
:103F1000001B022802D90320BDE8F883286880012D
:103F2000F4D4E8681C490840E86030E00128F3D088
:103F3000E868226A00F00301914226D1616A00F02C
:103F4000F0020901103991421FD1A26A00F4FE412A
:103F5000B1EB022F19D194F82C2000F07841B1EB8D
:103F6000C26F12D1218E00F4C00249084905A1F5A3
:103F70000011914209D194F8341000F0C060490852
:103F80004906A1F10071814201D00120C4E700205F
:103F9000C2E700000C809F01FCFFEEFE10B5401E42
:103FA000B0F1807F01D3012010BD4FF0E0246061AB
:103FB0000F21601700F0C5FD0020A06107202061DF
:103FC000002010BD072930D2DFE801F00A10161CCE
:103FD000222804000068D0F8841341F0010122E097
:103FE0000068D0F8841341F002011CE00068D0F8AA
:103FF000841341F0040116E00068D0F8841341F006
:10400000080110E00068D0F8841341F010010AE0C4
:104010000068D0F8841341F0200104E00068D0F873
:10402000841341F04001C0F88413704770B50368F1
:104030001A68D3F8A0534C6922F020022646144394
:1040400024F0C002202E2BD08C69022C28D0032C07
:104050002BD0042C2ED022F0E00200BF22F400640A
:10406000CA69224322F480640A6A224322F0C064AF
:104070004A6A224322F000648A6A2243CC6A22F010
:10408000404242EA840222F000544A6B096B224308
:1040900025F4803421431A600068C0F8A01370BD75
:1040A00022F0C00242F02002D8E722F0800242F063
:1040B0004002D3E722F0400242F08002CEE7F0B5A2
:1040C0000024E426056806EBC11755F807C0B8269A
:1040D00006EBC116AE59402A20D00EDC082A2CD09F
:1040E00006DC012A1AD0022A27D0042A31D115E091
:1040F000102A13D0202A2CD11FE0B2F5007F1CD04B
:1041000005DC802A19D0B2F5807F22D106E0B2F515
:10411000806F03D0B2F5006F1BD10EE04FF0BC0EE4
:104120000EEBC11E5A6845F80E204FF0C00E056810
:104130000EEBC1119A686A500BE0C42404EBC11461
:104140005A682A51C825046805EBC1119A68625063
:104150001024FE21A1401A682CEA010CA240D96863
:1041600042EA0C02A14011431A69D3F814C0154663
:10417000A2400A430CFA04FC99694CEA020CA140E3
:1041800041EA0C01082D06D1B20504D4B20102D4D3
:10419000DA69A24011430068C151F0BD2DE9F04F2A
:1041A0008024036804EBC117DC5924F07044DC510F
:1041B0000568EC59E82303EBC1139E4655F803C08C
:1041C000E42303EBC1139B4655F803A0D5F8A033B5
:1041D000566924F020043443202E24D09669022E00
:1041E00021D0032E24D0042E27D024F4D07400BF75
:1041F00024F40066D469344324F48066146A34439A
:1042000024F0C066546A344324F00066946A344350
:1042100024F07046D46A3443566B24F40034B6F16B
:10422000005F0FD010E024F4C07444F02004DFE7F6
:1042300024F4807444F08004DAE724F0800444F429
:104240008074D5E744F4003424F04008946B2CF0DB
:104250003F0C264644EA080424F48028946D44EA7E
:104260000804DFF8D08004EA0804D2F8508048EA55
:10427000040992F83C40D2F8408004F03F0444EA3C
:104280000C0424F0004448EA0408546C2AF4807CAE
:1042900044EA0C04D2F848C0BCF5606F02D0BCF50B
:1042A000F05F01D1402E03D124F4F0544CEA040411
:1042B00024F48046D46C3443566D062927D2DFE8B7
:1042C00001F003090F151B21126B23F4003343EA9D
:1042D00042031CE0126B23F4802343EA820316E0BE
:1042E000126B23F4002343EAC20310E0126B23F4A1
:1042F000801343EA02130AE0126B23F4001343EA2B
:10430000421304E0126B23F4800343EA821345F85E
:104310000790056845F80E80056845F80B40D424E1
:10432000026804EBC11156500068C0F8A033BDE824
:10433000F08F0000FFFF06FEFEE700EB8100006E3D
:1043400000F0F84070478068C0F3C0007047806894
:10435000C0F3800070478068C0F38000704704237A
:1043600003EAD15310B518444369C1F3045107243B
:104370008C40A3438A401343436110BD00EB81008E
:10438000016E21F0004111430166704730B58BB0DA
:10439000002408940994202168460A94FBF78CFFB6
:1043A0001C484FF0A041042501604FF40031C0E9E2
:1043B0000114C4600461C0E9054504774477012114
:1043C000016280F82440C462046380F83840C4630A
:1043D00080F84040FCF7B2FD08B1FBF7D2FF08A916
:1043E0000C480894FCF73CF808B1FBF7CAFF0A48F0
:1043F00000900620CDE901047F200594CDE9030556
:1044000069460448FCF752F9002801D0FBF7B9FFD0
:104410000BB030BD24000020002090B630B589B02C
:1044200020216846FBF748FF19481849002401601D
:104430004902C0E90114C46004250461C0E90545CE
:10444000047744770121016280F82440C462046348
:1044500080F83840C46380F84040FCF76FFD08B135
:10446000FBF78FFF0B4800900620CDE901047F2069
:104470000594CDE9030569460548FCF717F90028BE
:1044800001D0FBF77EFF09B030BD000000010050F5
:1044900090000020000029C330B58BB000240894A0
:1044A0000994202168460A94FBF706FF1C481B4923
:1044B00004250160C901C0E90114C4600461C0E9B8
:1044C0000545047744770121016280F82440C462E5
:1044D000046380F83840C46380F84040FCF72EFD48
:1044E00008B1FBF74EFF08A90D480894FBF7B8FF89
:1044F00008B1FBF746FF0B4800900620CDE9010408
:104500007F200594CDE9030569460548FCF7CEF800
:10451000002801D0FBF735FF0BB030BD0004005080
:10452000FC000020002098B630B589B020216846F4
:10453000FBF7C2FE19481849002401604FF400310E
:10454000C0E90114C46004250461C0E9054504778D
:1045500044770121016280F82440C462046380F83A
:104560003840C46380F84040FCF7E8FC08B1FBF732
:1045700008FF0B4800900620CDE901047F20059438
:10458000CDE9030569460548FCF790F8002801D0FD
:10459000FBF7F7FE09B030BD0005005068010020B0
:1045A00000005AC730B589B020216846FBF784FE69
:1045B00019481849002401604FF40031C0E9011482
:1045C000C46004250461C0E90545047744770121EE
:1045D000016280F82440C462046380F83840C463F8
:1045E00080F84040FCF7AAFC08B1FBF7CAFE0B4874
:1045F00000900620CDE901047F200594CDE9030554
:1046000069460548FCF752F8002801D0FBF7B9FECF
:1046100009B030BD00060050D40100200800908C85
:10462000144810B512490160002141608160C160E9
:1046300001744174817403224261142282611D223B
:10464000C2610A2202620122426202220D23C0E9F3
:104650000A23026304224263C0E90E21FDF79EF89B
:10466000002803D0BDE81040FBF78BBE10BD000052
:104670000068004040020020144810B51249016053
:10468000002141608160C160017441748174032222
:104690004261142282611D22C2610A220262012249
:1046A000426202220D23C0E90A230263042242630C
:1046B000C0E90E21FDF772F8002803D0BDE81040D4
:1046C000FBF75FBE10BD0000006C0040A40200209C
:1046D000074910B5054808600846FDF7D3FA0028D9
:1046E00003D0BDE81040FBF74CBE10BD00140240E3
:1046F00008030020F0B587B014216846FBF7DCFD05
:104700003448C16C41F00401C164C16C01F0040182
:104710000591C16C41F02001C164C16C01F0200120
:104720000591C16C41F04001C164C16C01F04001D0
:104730000591C16C41F00101C164C16C01F001013E
:104740000591C16C41F00201C164C06C48F20F06D2
:1047500000F002004FF090470590002231463846A5
:10476000FDF756FC4EF650400325CDE90005002428
:10477000694602941848FDF7EBFA0095CDE901541B
:1047800069461648FDF7E4FA7011CDE9000569465F
:1047900002941348FDF7DCFA01200096CDE90104EC
:1047A000694638460394FDF7D3FA41F27000CDE92B
:1047B0000005694602943846FDF7CAFA48F2867049
:1047C000CDE90005694602940648FDF7C1FA07B035
:1047D000F0BD00000010024000080048001400482E
:1047E000001800480004004810B5ACB00024209424
:1047F00021942294602168462394FBF75DFD1C21DF
:1048000024A8FBF759FD202118A8FBF755FD5748B0
:104810005549C0E900148460FDF78EFC08B1FBF730
:10482000B0FD0C215148FDF72DFC08B1FBF7A9FDA7
:104830000A214E48FDF77AFD08B1FBF7A2FD4FF6BD
:10484000DF70CDE920040820CDE9224020AA06210E
:104850004648FDF78DFD08B1FBF793FD00940194E8
:1048600001200294CDE9034008940594069407942E
:104870000D9409940A940B940C946A4606213B48C3
:104880001794FDF7B1FE08B1FBF77BFD20AA0021CC
:104890003648FDF76DFD08B1FBF773FD249424AA9B
:1048A000002132482A94FEF735F808B1FBF769FD7C
:1048B000009401940F94109411940E9412941494F3
:1048C00015946A46002129481694FDF78DFE08B11B
:1048D000FBF757FD6A4601212448FDF785FE08B124
:1048E000FBF74FFD189419941A941B941C941D9473
:1048F0001E9418AB012200211C481F94FDF7C6FD31
:1049000008B1FBF73EFD18AB042201211748FDF763
:10491000BDFD08B1FBF735FD18AB0222002113489D
:10492000FDF7B4FD08B1FBF72CFD18AB08220121FF
:104930000E48FDF7ABFD08B1FBF723FD20AA0121CE
:104940000A48FDF715FD08B1FBF71BFD24AA01215C
:104950000648FDF7DFFF08B1FBF713FD0348FDF73D
:10496000BBFC2CB010BD00000068014040030020DB
:104970000C4810B50A49016000216022C0E901120B
:1049800008220261012202758161C162FEF75CF9B1
:10499000002803D0BDE81040FBF7F3BC10BD0000B9
:1049A000000301403C0400200C4810B50A49016096
:1049B00000216022C0E90112082202610122027571
:1049C0008161C162FEF740F9002803D0BDE81040C4
:1049D000FBF7D7BC10BD00000403014078040020A1
:1049E0000C4810B50A49016000216022C0E901129B
:1049F00004220261012202758161C162FEF724F97D
:104A0000002803D0BDE81040FBF7BBBC10BD000080
:104A100008030140B40400200C4810B50A490160A5
:104A200000216022C0E90112082202610122027500
:104A30008161C162FEF708F9002803D0BDE810408B
:104A4000FBF79FBC10BD00000C030140F0040020E8
:104A50000B4810B50949016000216022C0E901122C
:104A60000122016102758161C162FEF7EDF8002843
:104A700003D0BDE81040FBF784BC10BD100301401B
:104A80002C0500200C4810B50A49016080214160C6
:104A90006021816000210122016102758161C16292
:104AA000FEF7D2F8002803D0BDE81040FBF769BC40
:104AB00010BD00001403014068050020FEE7FEE77A
:104AC00070477047FDF7DEBF10B594B038216846D7
:104AD000FBF7F2FB14210EA8FBF7EEFB4FF400707E
:104AE000FEF774FA0220C10103914021049108AA43
:104AF0000090079001210F2482E813000B900C9086
:104B00000D906846FEF780FF08B172B6FEE70320FD
:104B1000CDE90E40002010901190129003210EA8B4
:104B2000FEF7B8FD002801D072B6FEE714B010BD44
:104B30000248016841F470010160704788ED00E0AF
:104B4000FEE70907090E002804DB00F1E02080F8E9
:104B50000014704700F00F0000F1E02080F8141DF1
:104B60007047704700B589B0009100210191029112
:104B7000082B00D803930C2B0CD0102B0CD0142B2B
:104B80000CD0182B0CD0202B1CD0302B1CD0402B41
:104B90001CD007E0092304E00A2302E00B2300E015
:104BA0000C2303934FF48013CDE904135B00CDE98C
:104BB000063108916946FCF729FD002800D0012044
:104BC00009B000BD0D23ECE70E23EAE70F23E8E769
:104BD000FDF760FFFFF778FFFFF78CFDFFF7D6FBCF
:104BE000FFF74AFDFFF700FEFFF718FCFFF754FC44
:104BF000FFF79AFCFFF7D6FCFFF76AFDFFF7B8FE58
:104C0000FFF7D2FEFFF7ECFEFFF706FFFFF720FFEE
:104C1000FFF738FFFFF704FD4FF4A4640823094AA7
:104C200021460948FFF79EFF6420FCF7DDFC0823BE
:104C3000044A21460548FFF795FF6420FCF7D4FCA1
:104C4000ECE700000000002040020020A402002049
:104C50004FF04070E1EE100A7047000102030405B6
:104C60000607080C10141820304000000000000057
:104C70000000010203040607080900009C4C00081C
:104C8000000000202400000014020008C04C0008AE
:104C900024000020E40B00003002000800010203A1
:104CA00004050607000000000000000000000000EE
:104CB0001000000001000000000000000024F400CB
:04000005080001D915
:00000001FF
