:020000040800F2
:10000000E8090020ED0100081F5400089D4C00087D
:100010001D540008F90200088D5C00080000000073
:100020000000000000000000000000002354000851
:10003000FB020008000000002154000825540008BD
:10004000070200080702000807020008070200086C
:10005000070200080702000807020008070200085C
:10006000070200080702000807020008070200084C
:10007000070200080702000807020008070200083C
:10008000070200080702000807020008070200082C
:10009000070200080702000807020008070200081C
:1000A000070200080702000807020008070200080C
:1000B00007020008070200080702000807020008FC
:1000C00007020008070200080702000807020008EC
:1000D00007020008070200080702000807020008DC
:1000E00007020008070200080702000807020008CC
:1000F00007020008070200080702000807020008BC
:1001000007020008070200080702000807020008AB
:10011000070200080702000807020008070200089B
:10012000070200080702000807020008070200088B
:10013000070200080702000807020008070200087B
:10014000070200080702000807020008070200086B
:10015000070200080702000807020008070200085B
:10016000070200080702000807020008070200084B
:10017000070200080702000807020008070200083B
:10018000070200080702000807020008070200082B
:10019000070200080000000007020008070200082C
:1001A000010300080D030008070200080702000809
:1001B00007020008070200080702000807020008FB
:1001C00007020008070200080702000807020008EB
:1001D0000702000807020008DFF80CD000F07AF8E8
:1001E00000480047D95E0008E8090020064880471B
:1001F00006480047FEE7FEE7FEE7FEE7FEE7FEE70C
:10020000FEE7FEE7FEE7FEE795540008D901000887
:100210002DE9F05F0546002092469B46884606463B
:10022000814640241BE0284641464746224600F0CE
:1002300041F853465A46C01A914110D31146184608
:10024000224600F028F82D1A67EB01084F46224697
:100250000120002100F01FF817EB00094E41201E7D
:10026000A4F10104DFDC484631462A464346BDE896
:10027000F09FD2B201E000F8012B491EFBD270477B
:100280000022F6E710B513460A4604461946FFF762
:10029000F0FF204610BD202A04DB203A00FA02F1CC
:1002A000002070479140C2F1200320FA03F3194364
:1002B00090407047202A04DB203A21FA02F0002106
:1002C000704721FA02F3D040C2F120029140084366
:1002D00019467047064C074D06E0E06840F0010300
:1002E00094E8070098471034AC42F6D3FFF778FF44
:1002F0001860000838600008FEE7704772B6FEE735
:10030000014801F072BB000050020020014801F0DA
:100310006CBB000050020020F0B5D1E901650C690A
:100320002C430D68C6B145F080452C43D1E90665E4
:10033000354391F820704E69406D46EA07663543B3
:100340008E8903EBC30300EBC30045EA0645E0E8F2
:1003500002450023084C0AE044EA8544E6E7D61843
:10036000D55CD6F801601B1D45EA062520C0CD6886
:10037000655D9D42F3D8F0BDBC5F000870B50446D2
:1003800002F056F805462068016941F480310161A8
:100390004FF4FA760BE000BF02F04AF8401BB0427F
:1003A00005D9606B40F080006063012070BD20685B
:1003B0000069C003F0D40020606370BD10B504462E
:1003C00000F005F82046BDE8104000F008B8002114
:1003D000C16041610182202180F833107047002103
:1003E000816101628183202180F832107047000012
:1003F0002DE9F04F044600684FF0A0477A4E9BB0BD
:100400000D464FF0000BB84206D0B04204D040F683
:100410004C0176A005F0D6FC286800284AD00128B7
:1004200013D0022811D003280FD005280DD006289C
:100430000BD0072809D0092807D040F64D016BA042
:1004400005F0C0FC2868002834D0686850B1B0F5C9
:10045000004F07D0B0F5404F04D04FF4056163A0C2
:1004600005F0B0FCA86828B3B0F5807F22D0B0F5C5
:10047000007F1FD0B0F5407F1CD0B0F5806F19D041
:10048000B0F5A06F16D0B0F5C06F13D0B0F5E06F27
:1004900010D0B0F5006F0DD0B0F5106F0AD0B0F5E8
:1004A000206F07D0B0F5306F04D040F651014FA057
:1004B00005F088FC94F85800012812D0012084F837
:1004C00058004FF00009CDF85C90CDF86090B84628
:1004D0002068DFF854A1554F404506D138460097B3
:1004E00008E002201BB0BDE8F08FB04216D15046A4
:1004F000CDF800A004F0E1FB0090206804F0DDFBE3
:1005000001460098014311D0E06D40F02000E06505
:100510004FF0010B84F858905846E3E7E16D41F045
:100520002001E16584F858900120DBE7206841460E
:10053000884201D0B84201D13D4800E03D48D5F89D
:1005400000C03D4B40F61F72BCF1000F2CD0D0F81C
:1005500008C094F838802CF4604C4CEA483CD5F83C
:1005600004804CEA080CC0F808C0D4F800C08C45E0
:1005700001D0BC4504D18968BB6801F0010108E0E5
:10058000B168DAF8086001F0010106F001069B6825
:10059000314303F001031943BCD1AB682968194307
:1005A0008368934319431CE0856825F460458560A2
:1005B00025688D4201D0BD4204D18968BB6801F035
:1005C000010108E0B168DAF8085001F0010105F016
:1005D00001059B68294303F0010319439AD18168FF
:1005E0009143816096E70000000400502E2E2F44B6
:1005F0007269766572732F53544D3332473478786D
:100600005F48414C5F4472697665722F5372632F65
:1006100073746D3332673478785F68616C5F6164DE
:10062000635F65782E6300000005005000010050F4
:100630000003005000070050000600502DE9F04F65
:1006400085B004460020039000902068DFF8F8A3EE
:10065000DFF8F8B3FE4E0D46B0F1A04F0DD0B0421A
:100660000BD0FC49884208D0504506D0584504D0EC
:1006700040F6D221F8A005F0A5FB686806282DD029
:100680000C282BD0122829D0182827D0B0F5807F2D
:1006900024D0B0F5837F21D0B0F5867F1ED0B0F591
:1006A000897F1BD0B0F58C7F18D0B0F5007F15D0B6
:1006B000A0F50071063911D0B0F5037F0ED00C39CA
:1006C0000CD0B0F5067F09D0B0F5407F06D0F439E4
:1006D00004D040F6D321E0A005F074FBA868A8B1CF
:1006E000B0F1004F12D0012810D002280ED00328FC
:1006F0000CD004280AD0052808D0062806D00728E0
:1007000004D040F6D421D4A005F05CFBE868E04FAB
:100710007F2806D0B84204D040F6D521CEA005F0FF
:1007200051FB286904280BD050B1012808D00228B9
:1007300006D0032804D040F6D621C7A005F042FB1E
:100740002068C06800F01800810840F6FF70C840BB
:100750006969884204D240F6D721BFA005F032FB78
:100760002869042808D094F84000012804D140F6F4
:10077000DB21B9A005F026FBDFF81483E868DFF879
:1007800014C34045DFF810E3DFF81093C44FC549A8
:10079000C54A28684FEA4C0379D0012878D06045D3
:1007A00076D0984274D0704572D0C04B98426FD0CA
:1007B000BF4B98426CD0BF4B984269D0BE4B984219
:1007C00066D0BE4B984263D0BD4B984260D0BD4BC3
:1007D00098425DD0BC4B98425AD02368B3F1A04FE9
:1007E00057D0B34217D1884252D0904250D0DFF850
:1007F000DCC260454CD0DFF8D8C2604548D0DFF895
:10080000D4C2604544D0DFF8D0C2604540D0DFF8A4
:10081000CCC260453CD0DFF83C82DFF8C4C243451F
:1008200011D1884234D0904232D0DFF8A0824045C6
:100830002ED0DFF8B08240452AD0604528D0484508
:1008400026D0B84224D0534510D1884220D09042BF
:100850001ED09E4988421BD09D49884218D06045D1
:1008600016D0A149884213D0B84211D05B4521D19E
:100870009E4988420CD09E49884209D09D498842B1
:1008800006D09349884203D0604501D00EE014E0C1
:100890007EE088427CD090427AD08C49884277D0E2
:1008A0009549884274D09549884271D048456FD0A7
:1008B000B8426DD04FF42E6167E0604568D0704556
:1008C00066D0DFF8E8C1604562D0DFF8E4C160457A
:1008D0005ED0DFF8E0C160455AD0DFF8DCC160458A
:1008E00056D0DFF8D8C1604552D0DFF8D8C1604596
:1008F0004ED0D4F800C0BCF1A04F62D0B44511D1A5
:10090000984245D0884243D0904241D0DFF8BC8124
:1009100040453DD0DFF8A881404539D0DFF8B081AF
:10092000404535D0DFF82C81C4450DD198422FD0F9
:1009300088422DD090422BD0DFF89081404527D0BF
:10094000DFF88481404523D0D44511D198421FD08F
:1009500088421DD090421BD05C49884218D058492B
:10096000884215D05A49884212D0574988420FD040
:10097000DC4508D1524988420AD05549884207D0FF
:100980005149884204D040F6E42133A005F01AFA18
:1009900094F8580001281CD04FF0010884F85880C2
:1009A000206804F086F9B0B1E06D40F02000E06509
:1009B00001200390002084F85800039805B0BDE89A
:1009C000F08F9842E4D08842E2D09042E0D03F4994
:1009D000D7E70220F2E7D5E900210C23206803EADB
:1009E00091131844036B01F01F014FF01F0C0CFA18
:1009F00001FCC2F3846223EA0C038A4013430363BD
:100A0000206804F056F90090206804F04EF9014681
:100A10000098084317D1AA6829682068B2F1004FEE
:100A20006ED004F04EF92068416921F00041416127
:100A300020686969C268C2F3C102520091402A6904
:100A4000042A7DD05DE019E1000500500006005049
:100A500000010050000400502E2E2F44726976656C
:100A600072732F53544D3332473478785F48414C7A
:100A70005F4472697665722F5372632F73746D339E
:100A800032673478785F68616C5F6164632E6300FD
:100A900000007F400200300440002019000052C7CF
:100AA000000084CB0800900C1000C0108000501D86
:100AB000000180210002B0250004002A0008302E29
:100AC000001060320040C03A0080F03E2000F01478
:100AD00000209036000029C30000524700008CCB54
:100AE00000002143002098B600005AC70800908CEF
:100AF0001000C0902000F094002090B6000021C3A8
:100B00003EE000EB82002B68026EDFF894C303F036
:100B1000F84302EA0C020B431A4342F0004101661B
:100B2000A86940B1B0F1807F05D040F61C31AFF22A
:100B3000D80005F047F9287F48B1012807D000E028
:100B400029E040F61D31AFF2F00005F03BF92268D4
:100B50002869A96902EB8000026E22F080720A43C4
:100B60000266297F20682A69012911D05FF00001FF
:100B700000EB8200026E22F000720A4302667DE002
:100B8000002204F09EF82068416941F000414EE7E0
:100B90004FF00071ECE7002104F081F84003206879
:100BA0004FF0000172D004F07AF890FAA0F0B0FA99
:100BB00080F1286842036ED090FAA0F0B0FA80F07D
:100BC000814204D100221146206804F089F80121F5
:100BD000206804F064F8400320684FF001015DD004
:100BE00004F05DF890FAA0F0B0FA80F128684203B2
:100BF00059D090FAA0F0B0FA80F0814204D10022DE
:100C00000121206804F06CF80221206804F047F804
:100C1000400320684FF0020148D004F040F890FAF9
:100C2000A0F0B0FA80F12868420344D090FAA0F016
:100C3000B0FA80F0814204D100220221206804F041
:100C40004FF80321206804F02AF8400320684FF091
:100C5000030133D004F023F890FAA0F0B0FA80F149
:100C6000286842032FD090FAA0F0B0FA80F08142B9
:100C700004D100220321206804F032F82068816842
:100C800011F0010F22D0ABE000E004E004F007F81F
:100C9000C0F384618DE7C0F3846091E703F0FFFF48
:100CA000C0F38461A2E7C0F38460A6E703F0F7FF16
:100CB000C0F38461B7E7C0F38460BBE703F0EFFFE4
:100CC000C0F38461CCE7C0F38460D0E72A7B296855
:100CD00050F8B03FC1F3120C23EA0C0302F0180CD9
:100CE000704A22FA0CF20A40134303606E48E96826
:100CF000814275D1286841031AD090FAA0F1B1FA67
:100D000081F1491C01F01F0109294FEA403130D817
:100D1000002910D090FAA0F1B1FA81F101F101019E
:100D200001F01F0108FA01F208D1C0F3846109E063
:100D3000C0F38461E5E7C0F38461EFE790FAA0F1C6
:100D4000B1FA81F101F1010101F01F0142EA816173
:100D500002D1C0F3846003E090FAA0F0B0FA80F012
:100D600000F1010000F01F0000EB400041EA0051DB
:100D700032E000290ED090FAA0F1B1FA81F100BF63
:100D800001F1010101F01F0108FA01F205D1C0F3E0
:100D9000846106E0C0F38461F2E790FAA0F1B1FA51
:100DA00081F101F1010101F01F0142EA816102D1EB
:100DB000C0F3846003E090FAA0F0B0FA80F000F194
:100DC000010000F01F00394A00EB400002EB005028
:100DD00041EA000141F00071AA68206803F071FF48
:100DE00033482B6803423FF4E5AD22684FF0A0483A
:100DF0003049314D424501D0B24201D1084600E0B0
:100E000028468068DFF8B4C000F0E070634503D086
:100E1000DFF8ACC0634520D15FEA002C1DD4424509
:100E200005D05A457FF4C6ADB24200D0294640F401
:100E300000008A6822F0E07202438A602148224959
:100E40000068B0FBF1F0401C00EB4000800000E0C7
:100E5000401E00900028FBD1ACE54B450ED15FEA67
:100E6000C01C0BD4B24201D15245F5D0424502D04C
:100E7000B24200D0294640F080700AE0BB42EBD17C
:100E80004302E9D4B242E7D0424500D0294640F4BB
:100E900080008A6822F0E07202438A608AE50000DE
:100EA00000F0FF03FFFF070000007F40000020FE6E
:100EB000000008800003005000070050000021C31C
:100EC0001000C09020000020400D03002DE9F84FD5
:100ED0004FF00006040000967ED02068DFF8E8930B
:100EE000DFF8E8A3DFF8E8B3FA4DB0F1A04F0CD07B
:100EF000A8420AD0484508D0504506D0584504D0ED
:100F000040F29B11F4A004F05DFF6068B0F5803FF3
:100F10002CD0B0F5003F29D0B0F5403F26D028B303
:100F2000B0F5802F22D0B0F5002F1FD0B0F5402FA4
:100F30001CD0B0F5801F19D0B0F5A01F16D0B0F5A9
:100F4000C01F13D0B0F5E01F10D0B0F5001F0DD0BA
:100F5000B0F5101F0AD0B0F5201F07D0B0F5301F34
:100F600004D04FF4CE71DCA004F02CFFA06850B187
:100F7000082808D0102806D0182804D040F29D1167
:100F8000D5A004F01FFFE06838B1B0F5004F04D0E1
:100F90004FF4CF71D0A004F015FF206944F209018D
:100FA000884204D940F29F11CBA004F00BFF606986
:100FB00030B1012804D04FF4D071C7A004F002FF73
:100FC000607F30B1012804D040F2A111C2A004F02A
:100FD000F9FE4FF4806700E0EEE0206B60B1B842AC
:100FE0000AD0B0F5006F07D0B0F5406F04D04FF4D1
:100FF000D171B9A004F0E6FEE06AB0F5A46F7DD02F
:10100000B0F5A86F7AD0B0F5886F7DD0B0F5AC6F31
:101010007AD0B0F5906F77D0B0F5B06F74D0B0F5EE
:10102000B46F71D0B0F5F86F6ED0B0F59C6F6BD027
:10103000B0F5A06F68D0B0F5B86F65D0B0F5C06FEF
:1010400062D0B0F5C46F5FD0B0F5C86F5CD0B0F5BA
:10105000D46F59D0B0F5D86F56D0B0F5DC6F53D0FF
:10106000B0F5E06F50D0B0F5E46F4DD0B0F5E86F5B
:101070004AD0B0F5EC6F47D0B0F5F06F44D0B0F582
:10108000F46F41D021684FF484624FF48C6E4FF4BA
:10109000BC634FF4986CB1F1A04F01D0A94212D1BA
:1010A000B84231D090422FD070452DD098422BD0ED
:1010B000B0F5946F28D0B0F5CC6F25D0B0F5D06FD7
:1010C00022D0604520D0494503D0514501D0594533
:1010D00012D1984218D0904216D0B84214D0604530
:1010E00012D0704510D0B0F5CC6F0DD0B0F5D06FE8
:1010F0000AD0B0F5946F07D000B100E004E040F2F0
:10110000A31175A004F05EFE606B50B1B0F1806F6A
:1011100007D0B0F1006F04D04FF4D2716EA004F08C
:1011200051FE94F8380030B1012804D040F2A511E6
:1011300069A004F047FEA069042806D0082804D05E
:101140004FF4D37164A004F03DFEE06B38B1B0F50C
:10115000805F04D040F2A7115FA004F033FE207F2F
:1011600030B1012804D04FF4D4715BA004F02AFE02
:1011700094F8400030B1012804D040F2A91156A0E3
:1011800004F020FE606918B3206A401E0F2804D9BD
:1011900040F2AD1150A004F015FE94F8240018B3ED
:1011A00001280CD04FF4D7714BA004F00BFE94F83B
:1011B0002400012803D017E00120BDE8F88FA06AC1
:1011C000401E072808D94FF4D97143A004F0FAFD56
:1011D00094F82400012807D1607F012804D140F24F
:1011E000B7113DA004F0EEFDE06D30B9204600F0EF
:1011F0006DF90020206684F8580020688168C1F3EA
:10120000407119B18168424A11408160206881684B
:10121000C1F3007189B981683E4A114041F08051A3
:1012200081603D483D490068B0FBF1F04000801C02
:1012300000E0401E00900028FBD120688168C1F3C7
:10124000007141B9E16D41F01001E165216E41F09D
:1012500001012166012603F02CFD0746E06D00F038
:101260001001E06D394305D040F01000E065012623
:101270003046A2E720F4807040F00200E06520686C
:10128000816811F0010F54D14FF0A042904201D07B
:10129000A84204D19168AB6801F001010AE0D9F8D5
:1012A0000810DAF8083001F0010103F001031943D6
:1012B000DBF8083003F0010319433AD1904201D022
:1012C000A8422FD116482EE000040050000500501F
:1012D00000060050000100502E2E2F4472697665E2
:1012E00072732F53544D3332473478785F48414CF2
:1012F0005F4472697665722F5372632F73746D3316
:1013000032673478785F68616C5F6164632E630074
:10131000C0FFFF5FC0FFFF7F20000020400D0300E3
:101320000003005066486168826822F47C120A4318
:101330008260E168E06B627F0843A16841EA423164
:10134000084394F8241040EA0140012904D1218D7A
:101350005C4A02EB41410843E16A29B101F478712A
:10136000226B014342EA01002268D168564B1940C2
:101370000143D16020680169626B21F04061114333
:101380000161206803F091FC07432ED1207F94F87F
:101390003810800340EA41022068C16844F2020329
:1013A00099431143C16020690028206801690AD06F
:1013B00041F480310161206850F8C01F22696FF349
:1013C0000D01114307E021F480310161206850F8DC
:1013D000C01F6FF30D01016094F8400001280CD08C
:1013E0002068016921F0010101616069012820681C
:1013F000016B21F00F0158D05AE0606C98B10428BD
:1014000011D008280FD00C280DD010280BD014288C
:1014100009D0182807D01C2805D040F27621AFF259
:10142000481004F0CFFCA06CB0B1202814D04028A4
:1014300012D0602810D080280ED0A0280CD0C02850
:101440000AD0E02808D0B0F5807F05D040F277219F
:10145000AFF27C1004F0B6FCE06C40B1B0F5007F58
:1014600005D04FF41E71AFF2901004F0ABFC206D6C
:10147000012809D0A0F58061013905D040F2792119
:10148000AFF2AC1004F09EFCD4E911010843D4E99A
:1014900013121143084321680A6940F2FC739A430E
:1014A000104340F0010008619FE7226A521E114379
:1014B0000163E06D20F0020040F00100E065D7E636
:1014C000000700500000FEFF0740F0FF30B597B066
:1014D000044654216846FEF7D3FE4FF400412068CD
:1014E0008A031F4D1F4CB0F1A04F02D01E4B9842F3
:1014F00014D168461192009102F004F808B1FEF789
:10150000FDFE2868401C2860012827D1E06C40F4CB
:101510000050E064E06C00F400501EE0134B9901B1
:10152000CA03984205D0124B984202D0114B984200
:1015300014D168461292009101F0E4FF08B1FEF761
:10154000DDFE6868401C6860012807D1E06C40F44B
:101550008040E064E06C00F48040159017B030BD2E
:101560000C00002000100240000100500004005058
:10157000000500500006005070B5044600F058FF0A
:101580000546601C02D004484068044400F050FF47
:10159000401BA042FAD370BD140000202DE9F04199
:1015A00090F85C7016460C460546080E04D040F6CE
:1015B000A3213EA004F006FC14F4C07F07D0701EE7
:1015C000062804D940F6A62138A004F0FBFB012F21
:1015D00008D0022F06D0286E40F0020028660120B5
:1015E000BDE8F0812868816D620701D0CA071DD06F
:1015F00014F0380F01D08A0718D514F4E07F01D019
:101600004A0713D514F4F05F01D00A070ED514F47D
:10161000604F01D0CA0609D514F4403F01D08A06B4
:1016200004D514F47C0F05D04A0603D4C26D42F0F1
:101630000102C265600701D0C8071DD114F0380F40
:1016400001D0880718D414F4E07F01D0480713D4E0
:1016500014F4F05F01D008070ED414F4604F01D0E9
:10166000C80609D414F4403F01D0880604D414F409
:101670007C0F06D0480604D52868C16D41F00201F0
:10168000C165200604D5286850F8DC1F314301608D
:10169000E00504D5286850F8E01F31430160286850
:1016A000416D2143416500209AE700002E2E2F4412
:1016B0007269766572732F53544D3332473478789C
:1016C0005F48414C5F4472697665722F5372632F95
:1016D00073746D3332673478785F68616C5F666409
:1016E00063616E2E630000002DE9F04105464868F5
:1016F00016460C464FF00057002879D0B0F1804FC5
:1017000007D040F641014DA004F05CFB6068002862
:101710006ED02068B84204D340F6480147A004F0D8
:1017200051FBA06830B1B84204D040F64A0143A052
:1017300004F048FBE36813B3012B20D0022B1ED02A
:10174000032B1CD0042B1AD0052B18D0062B16D037
:10175000072B14D0082B12D0092B10D00A2B0ED037
:101760000B2B0CD00C2B0AD00D2B08D00E2B06D037
:101770000F2B04D040F64B0130A004F023FB20696E
:1017800038B1B0F1004F04D040F64C012BA004F06A
:1017900019FB606938B1B0F5801F04D040F64D01E7
:1017A00026A004F00FFBA06938B1B0F5001F04D0EB
:1017B00040F64E0121A004F005FBE06938B1B0F518
:1017C000000F04D040F64F011CA004F0FBFA206A81
:1017D000FF2804D94FF4056118A004F0F3FA95F836
:1017E0005C0002280BD0286E40F008000FE0FFE7F5
:1017F0002068B0F5006F94D340F644018EE7286866
:10180000D0F8C410890206D5286E40F4007028660E
:101810000120BDE8F081D0F8C4003246C0F3014792
:101820003B4621462846FEF777FD29680120B8404F
:10183000C1F8CC00A8650020EBE700002E2E2F4455
:101840007269766572732F53544D3332473478780A
:101850005F48414C5F4472697665722F5372632F03
:1018600073746D3332673478785F68616C5F666477
:1018700063616E2E63000000704770472DE9F047EA
:1018800090F85C80994615460E460446002740298C
:1018900006D0412E04D040F6B70143A004F092FADE
:1018A000B8F1020F03D0206E40F0080061E020681C
:1018B000402E47D0D0F89810090757D0D0F898108C
:1018C000C90104D5D0F88010C90500D50127D0F88A
:1018D0009800C0F30120C119D4F84C0001EBC102FB
:1018E00000EBC200026812F080426A60026844D0D5
:1018F00022F060422A6002683A4B02F00052AA606D
:1019000004C802F000422A6130F8042B92B2EA6166
:1019100050F8042CC2F30342EA6050F8042C02F49D
:1019200080126A6150F8042C02F40012AA6150F887
:10193000042CC2F306622A6250F8042CD20F6A62A9
:10194000002222E0D0F8901009070FD0D0F89010B4
:10195000C90104D5D0F88010890500D50127D0F839
:101960009000C0F30120C119A06CB7E7206E40F4CD
:10197000807020660120BDE8F087C2F38A42B9E793
:1019800010F802C009F802C0521CEF68DF5D9742F0
:10199000F6D82068402E03D0C0F89C100020EAE75B
:1019A000C0F89410FAE700002E2E2F447269766575
:1019B00072732F53544D3332473478785F48414C1B
:1019C0005F4472697665722F5372632F73746D333F
:1019D00032673478785F68616C5F666463616E2E2D
:1019E00063000000BC5F000870472DE9F05F04460B
:1019F0000068016D426D01F4E05102EA0108016DD9
:101A0000426D01F0070102EA0109016D426D01F02A
:101A1000380102EA010A016D476D01F471010F40BE
:101A2000016D426D01F46021456D02EA010B016D0B
:101A3000CE43710607D4E943490604D44021016529
:101A40002046FFF7D1FFF0050ED4E843C0050BD4C4
:101A50002068D0F8D820D0F8E01011404FF4807200
:101A60000265204600F0E5FAB8F1000005D02168D3
:101A700008654146204600F0DEFAB9F1000005D0C5
:101A8000216808654946204600F0B2FABAF1000024
:101A900005D0216808655146204600F0B1FAB0052E
:101AA00009D4E843800506D421684FF40070086526
:101AB000204600F0C1FA30060DD4E84300060AD4EF
:101AC0002068D0F8D420D0F8DC10114080220265C4
:101AD000204600F0AFFAB00409D4E843800406D4ED
:101AE00021684FF400500865204600F0A1FA300448
:101AF00009D4E843000406D421684FF40040086587
:101B0000204600F094FA70040AD4E843400407D455
:101B100021684FF480400865206E40F08000206608
:101B2000BBF1000005D02168086559462046FFF743
:101B3000A4FE27B120680765206E38432066206E1A
:101B4000002802D02046FFF797FEBDE8F09F000076
:101B50002DE9F05F04007DD0E84E2068DFF8A08317
:101B6000DFF8A0A3B04208D0404506D0504504D0CD
:101B70004FF49871E4A004F025F92068B04224D114
:101B8000606810B3012820D002281ED003281CD082
:101B900004281AD0052818D0062816D0072814D0F3
:101BA000082812D0092810D00A280ED00B280CD0F3
:101BB0000C280AD00D2808D00E2806D00F2804D0F3
:101BC00040F23311D0A004F0FDF8A0684FF4407546
:101BD00048B1B0F5807F06D0A84204D040F235115C
:101BE000C9A004F0EFF8E06860B101280AD002282B
:101BF00008D0032806D0042804D04FF49B71C2A05B
:101C000004F0E0F8207C30B1012804D040F2371114
:101C1000BDA004F0D7F8607C30B1012804D04FF4A7
:101C20009C71B9A004F0CEF8A07C30B1012804D09A
:101C300040F23911B4A004F0C5F86069401EB0F557
:101C4000007F04D34FF49D71AFA004F0BBF8A069EE
:101C5000401E00E05FE07F2804D940F23B11AAA0BB
:101C600004F0B0F8E069401EFF2804D94FF49E71DB
:101C7000A5A004F0A7F8206A401E7F2804D940F2EE
:101C80003D11A1A004F09EF8A068AB46584523D1B1
:101C9000606A401E1F2804D94FF4A0719AA004F076
:101CA00091F8A06A401E0F2804D940F2411196A075
:101CB00004F088F8E06A401E1F2804D94FF4A1718F
:101CC00091A004F07FF8206B401E0F2804D940F249
:101CD00043118DA004F076F8606B1C2804D940F203
:101CE000451189A004F06EF8A06B082804D94FF4C0
:101CF000A37185A004F066F8E06B38B1B0F1807F85
:101D000004D040F2471180A004F05CF894F85C0025
:101D1000002518B107E00120BDE8F09F84F85D5070
:101D2000204600F015F92068816921F010018161D9
:101D300000F07EFB07464FF0030904E000F078FB5B
:101D4000C01B0A2811D8206880690007F6D42068D3
:101D5000816941F00101816100F06AFB07460BE0F7
:101D600000F066FBC01B0A2806D9206E40F0010077
:101D7000206684F85C90CEE720688069C007EFD0C9
:101D80002068816941F0020181612068B04202D17E
:101D90006C4960680860207C01282068816937D020
:101DA00041F040018161607C01282068816932D066
:101DB00021F480418161A07C0128206881692DD0B7
:101DC00041F48051816120688169A26821F44071E9
:101DD000114381612068816921F0A401816120683B
:101DE000016921F010010161E068012819D010B3E8
:101DF00002281BD02068816941F080018161206840
:101E0000016941F010010161E06803280ED012E081
:101E100021F04001C6E741F48041CBE721F4805135
:101E2000D0E72068816941F0040103E020688169FE
:101E300041F020018161207EE26940066FF0FF01E0
:101E400001EB0222A0F100701043226AA38A521E05
:101E500010430A0202EB034318432368D861A068C9
:101E6000584510D1D4E90A0301EB0321401E084371
:101E7000216B131303EB01110843A18C02EB014109
:101E800008432168C860206850F8C01FE26B114306
:101E9000016021682C48414500D12C48514501D1B1
:101EA00000F5D460206451F8802FA38E22F4F8123C
:101EB00042EA03420A6000F170016164216851F84E
:101EC000802F94F8383022F0706242EA03620A6090
:101ED00000F1B001A164D831E164D8312165183135
:101EE0006165D83100E020C08842FCD3A565256635
:101EF000012084F85C0000200EE700000064004030
:101F000000680040006C00402E2E2F4472697665F8
:101F100072732F53544D3332473478785F48414CB5
:101F20005F4472697665722F5372632F73746D33D9
:101F300032673478785F68616C5F666463616E2EC7
:101F4000630000000065004000A4004050A700406E
:101F500010B59CB00446142115A8FEF791F9542140
:101F60006846FEF78DF91F492068884237D18014F2
:101F7000009040030E90684601F0C4FA08B1FEF7E5
:101F8000BDF91948816D41F000718165816D01F0E5
:101F900000711A91C16C41F00201C164C06C15A9B5
:101FA00000F002001A9018201590022016900020D0
:101FB000179018900B2019900C4800F0A5F80022FB
:101FC0001146582000F0BEFF582000F089FF002283
:101FD0001146592000F0B6FF592000F081FF1CB0D7
:101FE00010BD0000006C00400010024000040048DA
:101FF0000249884201D103F0F9BE70475002002027
:10200000704790F85C10012905D0016E41F0040181
:10201000016601207047022180F85C1001688A691E
:1020200022F001028A61002101660846704770476C
:1020300070477047704770477047000070B50400E4
:102040000DD017492068884204D040F2851115A0B0
:1020500003F0B8FE94F83100002510B106E001202D
:1020600070BD84F83050204600F03AF82046656094
:10207000FEF7A4F92046FEF781F9012807D0656331
:10208000202084F83100002084F8305070BD606B4F
:1020900040F010006063A02084F831000120F3E7D5
:1020A000001402402E2E2F447269766572732F53EE
:1020B000544D3332473478785F48414C5F447269FD
:1020C0007665722F5372632F73746D333267347871
:1020D000785F68616C5F666D61632E63000000006D
:1020E00008B500680649884208D10648816C41F06D
:1020F00010018164806C00F01000009008BD0000A9
:1021000000140240001002402DE9F84F00274FF064
:10211000904ADFF85482DFF854B20D460446504529
:1021200013D0444511D05C450FD0914884420CD067
:102130009048844209D09048844206D08F48844217
:1021400003D0A9218EA003F03DFE28680104090CEC
:1021500001D0000C03D0AA2189A003F033FE6868E7
:102160004FF0030900281FD00128FCD01128FAD015
:102170000228F8D01228F6D0B0F5881FF3D0B0F5B9
:10218000041FF0D0B0F5441FEDD0B0F5901FEAD099
:10219000B0F5081FE7D0B0F5481FE4D00328E2D01F
:1021A000AB2177A003F00EFED6E00120B8400090EE
:1021B00006407CD0287900F00300012801D00228D5
:1021C0001DD1E86848B1012807D0022805D00328AE
:1021D00003D0BB216AA003F0F5FDA168780009FADD
:1021E00000F29143EA6882400A43A2606068009965
:1021F00088432979C1F30011B9400143616028790E
:10220000C043800712D0A86838B1012805D0022841
:1022100003D0CC215AA003F0D5FDE268780009FA7A
:1022200000F18A43A96881401143E160287900F0F8
:102230000300022829D1544513D0444511D05C45F0
:102240000FD04B4884420CD04A48844209D04A48B7
:10225000844206D04948844203D0D92148A003F0E3
:10226000B1FD28690F2803D9DA2145A003F0AAFDA2
:10227000F80804EB8000026A7907CB0E0F21994021
:102280008A4329699940114301622168780009FA5B
:1022900000F291432A7902F0030282400A4322604D
:1022A000686810F4403F56D04448016E00E052E0A8
:1022B00041F001010166006E27F0030100F001000A
:1022C00000903F4801448868BA07130F0F229A40D4
:1022D0009043544501D1002217E0444501D1012229
:1022E00013E05C4501D102220FE0214A944201D162
:1022F00003220AE01F4A944201D1042205E01E4A4B
:10230000944201D1052200E006229A4002438A60ED
:102310002C4A10686968B043C90200D53043106088
:10232000284A121D10686968B043890200D53043FD
:1023300010602449091F08686A68B043920300D5F9
:10234000304308601F49083908686A68B043D203FF
:1023500000D5304308607F1C2E6836FA07F07FF402
:1023600024AFBDE8F88F00000004004800080048D2
:10237000000C0048001000480014004800180048F5
:102380002E2E2F447269766572732F53544D33325B
:10239000473478785F48414C5F4472697665722FA4
:1023A0005372632F73746D3332673478785F68616A
:1023B0006C5F6770696F2E630000000000100240C0
:1023C000000001400804014070B515460C000646A7
:1023D00004D14FF4CD7107A003F0F4FC45B1012DF9
:1023E00004D040F29B1103A003F0ECFCB46170BD7B
:1023F000B46270BD2E2E2F447269766572732F53AE
:10240000544D3332473478785F48414C5F447269A9
:102410007665722F5372632F73746D33326734781D
:10242000785F68616C5F6770696F2E630000000001
:1024300001488068704700001400002070B5044611
:102440000D46481C0BD055B1042D08D0082D06D0E0
:102450000C2D04D04FF4427116A003F0B3FC94F895
:10246000DC00012821D0012084F8DC00022184F85E
:10247000DD10691C2168D1F8CC2318D042F002028B
:10248000C1F8CC232168D1F8CC2322F00C022A43D6
:10249000C1F8CC232168D1F8CC2342F00102C1F865
:1024A000CC2384F8DD00002070BD022070BD22F036
:1024B0000202EDE72E2E2F447269766572732F5358
:1024C000544D3332473478785F48414C5F447269E9
:1024D0007665722F5372632F73746D33326734785D
:1024E000785F68616C5F687274696D2E63000000CC
:1024F000F8B504007ED04A4E2068B04204D040F2C5
:10250000332148A003F05EFC55496068084204D0BE
:102510004FF40D7143A003F055FC022084F8DD0058
:102520000025C4F8E050C4F8E450C4F8E850C4F8FA
:10253000EC50C4F8F050C4F8F450C4F8F850207AC5
:10254000C00737D0206968B1B0F5804F0AD0B0F528
:10255000004F07D0B0F5404F04D04FF41B7131A0AD
:1025600003F030FC606950B1B0F5005F07D0B0F502
:10257000405F04D040F26D212AA003F023FC2068C4
:10258000B04208D13748016E41F080610166006EAB
:1025900000F0806000902168086820F44042208AA2
:1025A00000F44040104320F44052A08A00F4405010
:1025B00010430860204600F057F8207A800715D5B0
:1025C000E06850B1B0F5007F07D0B0F5407F04D08F
:1025D00040F2912113A003F0F5FB2168086820F474
:1025E0004072A08900F4407010430860012084F814
:1025F000DD0000E012E084F8DC500021C1EBC100F6
:1026000004EB8000491C8561C561056245628562F5
:10261000C9B205630629F1D90020F8BD0120F8BD33
:10262000006801402E2E2F447269766572732F5315
:10263000544D3332473478785F48414C5F44726977
:102640007665722F5372632F73746D3332673478EB
:10265000785F68616C5F687274696D2E630000005A
:1026600080FFFCFF0010024008B500680649884260
:1026700008D10648016E41F080610166006E00F0ED
:102680008060009008BD000000680140001002401A
:1026900010B586B0044614216846FDF7F1FD0F49D8
:1026A0002068884218D10E48C16C41F00101C16414
:1026B000C06C694600F0010005904FF47060009016
:1026C0000220019000200290032003900D2004902E
:1026D0004FF09040FFF718FD06B010BD00680140B4
:1026E0000010024070B50D460446FFF7A1FE0646F5
:1026F00007E0681C05D0FFF79BFE801BA8420DD8A1
:1027000065B12068D0F88803C043C003F1D401202C
:1027100084F8DD00002084F8DC0070BD072084F818
:10272000DD00032070BD000070B515460C4606465E
:1027300006290FD074B1012C0CD0022C0AD0032C26
:1027400008D0042C06D0052C04D040F296312EA0DF
:1027500003F038FBA86890B1012810D002280ED0F1
:1027600003280CD004280AD0052808D0062806D053
:10277000072804D040F2973123A003F023FBE86838
:10278000082807D030B1102804D04FF466711EA07D
:1027900003F018FB96F8DD00022822D0022086F80C
:1027A000DD00062C1ED08020326800EBC41150588A
:1027B00020F00703A868184320F01803E8681843BE
:1027C00050509422316802EBC41228688850982235
:1027D000316802EBC41268688850012086F8DD0079
:1027E000002070BD3168086820F00702A868104317
:1027F00020F01802E86810430860316828684861D2
:10280000316868688861E8E72E2E2F447269766522
:1028100072732F53544D3332473478785F48414CAC
:102820005F4472697665722F5372632F73746D33D0
:1028300032673478785F68616C5F687274696D2E96
:10284000630000002DE9F0411D4614460E000746C6
:102850000AD0012E0DD0022E10D0032E13D0042E3C
:1028600016D0052E1BD020E0012C23D0022C21D025
:102870001BE0042C1ED0082C1CD016E0102C19D004
:10288000202C17D011E0402C14D0802C12D00CE05A
:10289000B4F5807F0ED0B4F5007F0BD005E0B4F521
:1028A000806F07D0B4F5006F04D041F606012DA06B
:1028B00003F088FA286830B1022804D041F60701F5
:1028C00028A003F07FFA286930B1082804D041F627
:1028D000080124A003F076FAE86830B1042804D097
:1028E00041F609011FA003F06DFA686950B1102884
:1028F00008D0202806D0302804D041F60A0119A0BB
:1029000003F060FAA86930B1402804D041F60B0109
:1029100014A003F057FAE86930B1802804D041F6DA
:102920000C0110A003F04EFA97F8DD00022815D034
:1029300097F8DC00012813D04FF0010887F8DC80FD
:10294000022087F8DD002B4622463146384602F049
:1029500068F887F8DD80002087F8DC00BDE8F081AA
:102960000220FBE72E2E2F447269766572732F5377
:10297000544D3332473478785F48414C5F44726934
:102980007665722F5372632F73746D3332673478A8
:10299000785F68616C5F687274696D2E6300000017
:1029A0002DE9F04714460D46064606290FD075B1AD
:1029B000012D0CD0022D0AD0032D08D0042D06D0F5
:1029C000052D04D041F26331AFA003F0FBF960693B
:1029D00030B1202804D041F26631ABA003F0F2F907
:1029E000A06950B1022808D0032806D0042804D0DA
:1029F00041F26731A4A003F0E5F9E06938B1B0F520
:102A0000006F04D041F268319FA003F0DBF9206A27
:102A100038B1B0F5806F04D041F269319AA003F06B
:102A2000D1F9606A68B1B0F1007F0AD0B0F1806F6F
:102A300007D0B0F1C06F04D041F26A3192A003F028
:102A4000C1F9A06A38B1B0F1006F04D041F26B3126
:102A50008DA003F0B7F9206B38B1B0F5803F04D0FA
:102A600041F26C3188A003F0ADF9606B4FF0005774
:102A700030B1B84204D041F26D3183A003F0A2F925
:102A800096F8DD0002287FD096F8DC0001287AD085
:102A90004FF0010886F8DC80022086F8DD00C106D0
:102AA000E06A062D72D04FF00049C8B1884217D0B5
:102AB000B84215D0B0F1405F12D0B0F1804F0FD0C6
:102AC000B0F1A04F0CD0B0F1C04F09D0B0F1E04F41
:102AD00006D0484504D041F286316BA003F072F96C
:102AE000206847F6DF71884304D041F2873166A041
:102AF00003F068F973496068084204D041F28831F4
:102B000061A003F05FF9A06B30B1402804D041F21E
:102B100089315DA003F056F9E06B800904D041F2E1
:102B20008A3159A003F04EF9206C30B1484504D0E9
:102B300041F28B3154A003F045F9606C38B1B0F527
:102B4000807F04D041F28C314FA003F03BF9A06CA0
:102B5000002846D0B0F5007F43D0B0F5C06F40D01C
:102B6000B0F5206F3DD0B0F5905F3AD0B0F5B05FD2
:102B700037D0B0F5D05F34D0A16B402926D02BE000
:102B800002E000E002E00220BDE8F08740B18842A8
:102B900006D0B84204D041F27C313BA003F012F9D8
:102BA0002068C00904D041F27D3137A003F00AF952
:102BB000606830F4FE0004D041F27E3132A003F0B0
:102BC00001F92146304601F0E3FE35E0B0F5606FD3
:102BD00007D0B0F5F05F04D041F28E312AA003F0A7
:102BE000F1F8E06C38B1B0F5804F04D041F290318B
:102BF00025A003F0E7F83449206D084204D041F2E3
:102C0000913121A003F0DEF8A06D38B1B0F5802F2E
:102C100004D041F293311CA003F0D4F8E06D30B140
:102C2000012804D041F2943117A003F0CBF82246DA
:102C30002946304601F064FFC5EBC50006EB800075
:102C40002168016261684162A1688162E168C162D4
:102C5000216901632946304601F065FE062D0CD03E
:102C6000E06A50B98021306801EBC5114258E36D2C
:102C700022F4007242EA4322425086F8DD800020AE
:102C800086F8DC0080E700002E2E2F4472697665FE
:102C900072732F53544D3332473478785F48414C28
:102CA0005F4472697665722F5372632F73746D334C
:102CB00032673478785F68616C5F687274696D2E12
:102CC00063000000FFFF2080FFFF06FE2DE9F041BA
:102CD00014460D46064606290FD075B1012D0CD0BD
:102CE000022D0AD0032D08D0042D06D0052D04D0C6
:102CF00041F2CB3142A003F065F8206830B10128E1
:102D000004D041F2CD313EA003F05CF8606838B1E8
:102D1000B0F5801F04D041F2CE3139A003F052F853
:102D2000A06838B1B0F5003F04D041F2CF3134A0F3
:102D300003F048F8E06838B1B0F5803F04D041F2C4
:102D4000D0312FA003F03EF8206930B1042804D020
:102D500041F2D1312AA003F035F8606930B1022880
:102D600004D041F2D23126A003F02CF8A06930B192
:102D7000012804D041F2D33121A003F023F896F8C2
:102D8000DD00022824D096F8DC0001281FD001279E
:102D900086F8DC70022086F8DD00EC20326800EB5B
:102DA000C5115058236820F0100040EA031020F4A9
:102DB00080136068184320F48033E068184320F4DF
:102DC0000033A0681843A369012B03D00CE0022054
:102DD000BDE8F08120F004032069184320F00203CD
:102DE0006069184340F0010050502946304601F018
:102DF0009AFD86F8DD70002086F8DC00E8E7000028
:102E00002E2E2F447269766572732F53544D3332D0
:102E1000473478785F48414C5F4472697665722F19
:102E20005372632F73746D3332673478785F6861DF
:102E30006C5F687274696D2E6300000002488168DF
:102E400042681144816070471400002010B50024CE
:102E5000032000F0C7F80F2000F008F808B10124A3
:102E600001E000F025F8204610BD000070B50E4EC0
:102E700005460024706898B14FF47A71B1FBF0F008
:102E80000A490968B1FBF0F001F0BAFA40B9102D17
:102E900006D200222946501E00F054F8356000E0AA
:102EA0000124204670BD00001400002020000020F6
:102EB0000A4882B0016E41F001010166016E01F025
:102EC00001010091816D41F080518165806D00F0BC
:102ED0008050009002B000F00DBB000000100240D6
:102EE00010B5040003D5D22107A002F06BFF002C1F
:102EF00009DB04F01F01012088406109890001F10C
:102F0000E021C1F8000110BD2E2E2F4472697665B4
:102F100072732F53544D3332473478785F48414CA5
:102F20005F4472697665722F5372632F73746D33C9
:102F300032673478785F68616C5F636F727465784C
:102F40002E63000070B515460C460646102A03D3C2
:102F5000BE2114A002F036FF102C03D3BF2111A014
:102F600002F030FF1E480068C0F30223C3F10702DD
:102F70002046042A00D90422191D072901D2002362
:102F800000E0DB1E012404FA02F1491E01409940D1
:102F90009C40641E2C4021433046BDE8704002F046
:102FA00087BE00002E2E2F447269766572732F53F0
:102FB000544D3332473478785F48414C5F447269EE
:102FC0007665722F5372632F73746D333267347862
:102FD000785F68616C5F636F727465782E63000060
:102FE0000CED00E010B5044607280BD0062C09D0E4
:102FF000052C07D0042C05D0032C03D0A62108A053
:1030000002F0E0FE154904F0070208684FF6FF03DE
:10301000184040EA0220124A1043086010BD000028
:103020002E2E2F447269766572732F53544D3332AE
:10303000473478785F48414C5F4472697665722FF7
:103040005372632F73746D3332673478785F6861BD
:103050006C5F636F727465782E6300000CED00E0A6
:103060000000FA05F8B504004FF0000543D094F8CD
:103070003A0005283FD094F83A0002283BD08E4908
:103080002068884213D0091D884210D0091D88424B
:103090000DD0091D88420AD0091D884207D0091D9C
:1030A000884204D04FF49E7184A002F08BFE6068C9
:1030B00030B1802804D040F23F1180A002F082FE9F
:1030C000A06840B1402806D0602804D04FF4A07119
:1030D0007AA002F077FE206950B1042808D00828B1
:1030E00006D00C2804D040F2411174A002F06AFE10
:1030F000A06810B10AE00120F8BDE06830B12028D6
:1031000004D040F24F116DA002F05CFE207D30B182
:10311000012804D040F2511168A002F053FEA069CA
:10312000382804D940F2531164A002F04BFEA06984
:10313000A8B1206A50B1022808D0042806D0062879
:1031400004D040F257115DA002F03CFEE06930B1BE
:10315000012804D04FF4AC7158A002F033FEA068EF
:10316000402825D1606A68B1B0F5802F0AD0B0F54B
:10317000003F07D0B0F5C02F04D040F25D114FA042
:1031800002F020FEA06A98B1B0F5804F10D0B0F5E3
:10319000004F0DD0B0F5404F0AD0B0F5803F07D0BA
:1031A000B0F5A03F04D04FF4AF7144A002F00AFE86
:1031B000E06A002819D0102807D040F261113FA022
:1031C00002F000FEE06A10280FD1206B1F2804D9FE
:1031D0004FF4B27139A002F0F5FD606B1F2804D9DD
:1031E00040F2651135A002F0EDFD4348016E41F05B
:1031F00001010166006E00F00100009094F83A00B1
:1032000010B9002084F83900204600F079F8A06851
:103210003A494FF48072402836D0602834D0206874
:103220000368E66A23F0100333430360D4E9010323
:103230001843D4E9033633431843237D012B00D0D0
:1032400000221043626A1043A26A1043228E40EAB1
:10325000C24094F8342040EA0262206803680B40C0
:103260001A43026020688169002909DBD4E906124B
:103270001143226A836923F03F031A43114381619A
:1032800094F83A0090B114E020680368E66A23F0ED
:10329000100333430360D4E901031843267D2369F7
:1032A000012E00D0002213431843CBE7012084F8FD
:1032B0003A002846F8BD0000000301402E2E2F449E
:1032C0007269766572732F53544D33324734787870
:1032D0005F48414C5F4472697665722F5372632F69
:1032E00073746D3332673478785F68616C5F6F70C8
:1032F000616D702E6300000000100240113E00E07E
:1033000030B587B0044614216846FCF7B9FF24683D
:10331000324800223249032384420FD1C86C40F066
:103320000100C864C86C694600F001000590802067
:10333000CDE9000302924FF090400EE0274D29485E
:103340002D1DAC420DD1CC6C44F00204CC64C96C90
:1033500001F00201059101213BE0FEF7D5FE07B027
:1033600030BD1E4D0835AC4209D1CC6C44F002048E
:10337000CC64C96C01F002010591691429E0174D74
:103380000C35AC4209D1CC6C44F00204CC64C96C5D
:1033900001F002010591E9141BE0104D1035AC421B
:1033A0000AD1CC6C44F00204CC64C96C01F0020177
:1033B00005914FF480410CE0084D1435AC42CED15C
:1033C000CC6C44F00204CC64C96C01F0020105919C
:1033D000A914CDE9001302926946BEE7000301403B
:1033E0000010024000040048304910B50968304A16
:1033F0003223304C5943D0B1B0F5007F0CD0B0F53A
:10340000806F03D09D212CA002F0DCFC206820F40A
:10341000C06040F4806008E02068C0F341200228CA
:103420002AD054F8800F40F4807020603BE0206880
:10343000C0F34120022804D054F8800F20F480709B
:10344000F3E7D4F8800020F48070C4F8800020688E
:1034500020F4C06040F400702060B1FBF2F0401C2A
:1034600000E0401E6169490501D50028F9D1606975
:10347000400518D5032010BDD4F8800040F48070BA
:10348000C4F88000206820F4C06040F40070206020
:10349000B1FBF2F0401C00E0401E61694905E6D531
:1034A0000028F9D1E3E7002010BD00002000002033
:1034B00040420F00007000402E2E2F447269766546
:1034C00072732F53544D3332473478785F48414CF0
:1034D0005F4472697665722F5372632F73746D3314
:1034E00032673478785F68616C5F7077725F657897
:1034F0002E6300000248816841F48041816070477A
:10350000007000402DE9F84F044600680026C1070E
:103510004FF4807A4FF4007BFE4D29D1810727D4E8
:10352000410725D4010723D4C10621D481061FD425
:1035300041061DD401061BD4C10519D4810317D43B
:10354000810515D4410513D4010511D4C1040FD44C
:1035500081040DD441040BD4010409D4C10307D460
:10356000410305D4000306D48321EBA002F02AFC1A
:10357000206800036BD5206D002750B1504508D05E
:10358000584506D0B0F5407F03D08B21E2A002F071
:1035900019FCA86DC00008D4A86D40F08050A86543
:1035A000A86D012700F080500090DFF8A893D9F8AB
:1035B000001041F48071C9F80010FEF739FF804611
:1035C00006E000BFFEF734FFA0EB080002282BD86E
:1035D000D9F80000C005F5D5D5F8900010F440707A
:1035E00014D0216D814211D0D5F89000D5F89010FB
:1035F00020F4407041F48031C5F89010D5F8901057
:1036000021F48031C5F89010C5F89000C00711D0A2
:10361000FEF70EFF804641F2883907E0FEF708FF0B
:10362000A0EB0801494501D903260BE0D5F890002D
:103630008007F3D5D5F89000216D20F44070084341
:10364000C5F890001FB1A86D20F08050A8652078C3
:10365000C00713D0606848B1012807D0032805D0FF
:10366000022803D0E021ACA002F0ACFBD5F8880022
:10367000616820F003000843C5F8880020788007BF
:1036800013D5A06848B1042807D00C2805D0082815
:1036900003D0EA21A0A002F095FBD5F88800A1682C
:1036A00020F00C000843C5F888002078400713D5A7
:1036B000E06848B1102807D0302805D0202803D072
:1036C000F62195A002F07EFBD5F88800E16820F095
:1036D00030000843C5F888002078000714D5206919
:1036E00050B1402808D0C02806D0802804D040F22D
:1036F000031189A002F066FBD5F88800216920F04B
:10370000C0000843C5F888002078C00615D5606958
:1037100058B1504509D0B0F5407F06D0584504D087
:103720004FF488717CA002F04DFBD5F888006169E8
:1037300020F440700843C5F888002078800617D52B
:10374000A06968B1B0F5806F0AD0B0F5406F07D0BE
:10375000B0F5006F04D04FF48E716FA002F032FB11
:10376000D5F88800A16920F440600843C5F88800B6
:103770002078400614D5E06950B1B0F5805F07D0DD
:10378000B0F5005F04D04FF4937163A002F01AFB10
:10379000D5F88800E16920F440500843C5F8880056
:1037A0002078000614D5206A50B1B0F5804F07D0BC
:1037B000B0F5004F04D04FF4987157A002F002FB0F
:1037C000D5F88800216A20F440400843C5F88800F5
:1037D0002088C00514D5606A50B1B0F5803F07D08D
:1037E000B0F5003F04D040F23B114BA002F0EAFAE2
:1037F000D5F88800616A20F440300843C5F8880095
:103800002068800312D5A06A40B1012806D00228A2
:1038100004D04FF4A47140A002F0D4FAD5F89C0073
:10382000A16A20F003000843C5F89C0020888005A9
:1038300017D5E06A68B1B0F5802F0AD0B0F5002F37
:1038400007D0B0F5402F04D04FF4AA7132A002F097
:10385000B9FAD5F88800E16A20F440200843C5F899
:10386000880020884FF4801840054FF400191CD5BB
:10387000206B58B1404509D0484507D0B0F5401FEE
:1038800004D040F25F1124A002F09CFAD5F8880021
:10389000216B20F440100843C5F88800206B404598
:1038A00003D1E86840F48010E860208800051FD547
:1038B000606B4FF4800760B1B8420AD0B0F5000FDA
:1038C00007D0B0F5400F04D04FF4B97112A002F048
:1038D00079FAD5F88800616B20F440000843C5F8F8
:1038E0008800606BB84203D1E86840F48010E8605B
:1038F0002088C0043FD5A06B4FF0807748B1B84214
:1039000007D0B0F1007F04D040F2851102A002F090
:1039100059FA21E0001002402E2E2F44726976657C
:1039200072732F53544D3332473478785F48414C8B
:103930005F4472697665722F5372632F73746D33AF
:1039400032673478785F68616C5F7263635F657853
:103950002E63000000700040D5F88800A16B20F0B5
:1039600040700843C5F88800A06BB84203D1E868EE
:1039700040F48010E86020884FF00067800418D57C
:10398000E06B38B1B84205D040F29711AFF2780041
:1039900002F018FAD5F88800E16B20F04060084387
:1039A000C5F88800E06BB84203D1E86840F48010A5
:1039B000E8602088400418D5206C38B1B84205D0A2
:1039C0004FF4D371AFF2B00002F0FCF9D5F88800E3
:1039D000216C20F040600843C5F88800206CB84294
:1039E00003D1E86840F48010E860208800041DD509
:1039F000606C4FF0805750B1B84208D0B0F1005F12
:103A000005D04FF4DA71AFF2F00002F0DBF9D5F82F
:103A10008800616C20F040500843C5F88800606C55
:103A2000B84203D1E86840F48030E8602068C00301
:103A30001DD5A06C4FF0804750B1B84208D0B0F10E
:103A4000004F05D040F2C511AFF2341002F0BAF9C0
:103A5000D5F88800A16C20F040400843C5F88800E4
:103A6000A06CB84203D1E86840F48030E860206878
:103A700040031AD5E06C404508D038B1484505D020
:103A80004FF4EC71AFF2701002F09CF9D5F89C0085
:103A9000E16C20F440100843C5F89C00E06C4845F8
:103AA00003D1E86840F48010E8603046BDE8F88F44
:103AB0002DE9F0470D4606004FF000075FD0306853
:103AC000010701D0000904D040F20B31A3A002F09D
:103AD00079F915B3012D20D0022D1ED0032D1CD055
:103AE000042D1AD0052D18D0062D16D0072D14D070
:103AF000082D12D0092D10D00A2D0ED00B2D0CD070
:103B00000C2D0AD00D2D08D00E2D06D00F2D04D06F
:103B10004FF4437191A002F055F9DFF87882D8F89C
:103B2000000000F00F00A8420CD2D8F8001021F0DD
:103B30000F012943C8F80010D8F8000000F00F006A
:103B4000A8421CD13078944CC00741F2883A68D022
:103B50007068DFF8489201280DD002283BD0032876
:103B600010D040F223317DA002F02CF970680328B8
:103B700008D002282FD02068400500282EDB012025
:103B8000BDE8F08720688001F9D5E06800F0030106
:103B9000E068C0F30310401C03291AD0804900BF1D
:103BA000B1FBF0F0E168C1F306214843E168C1F3DD
:103BB0004161491C4900B0FBF1F0484519D9A068A2
:103BC00010F0F00F0ED03078800712D5B06848B1F1
:103BD0000FE07449E4E720688003CEE700F00EF9B7
:103BE000484506D9A06820F0F00040F08000A060B1
:103BF0008027A068716820F003000843A060FEF7EA
:103C000017FC814606E000BFFEF712FCA0EB09019D
:103C1000514550D8A068716800F00C00B0EB810FDE
:103C2000F2D1306881072BD5400703D5A06840F456
:103C3000E060A0603078000705D5A06820F46050EF
:103C400040F4E060A060B068A0B1802812D0902855
:103C500010D0A0280ED0B0280CD0C0280AD0D02870
:103C600008D0E02806D0F02804D040F27A313BA0FA
:103C700002F0A8F8A068B16820F0F000084304E062
:103C8000802F03D1A06820F0F000A060D8F80010C9
:103C9000404601F00F01A94215D9016821F00F013A
:103CA00029430160FEF7C4FB074606E0FEF7C0FBB0
:103CB000C11B514501D9032062E7D8F8000000F08C
:103CC0000F00A842F2D130784FF4806540074FF4DE
:103CD000A0674FF4C0684FF4E06914D5F06860B194
:103CE000A8420AD0B84208D0404506D0484504D082
:103CF0004FF4677119A002F065F8A068F16820F42C
:103D0000E0600843A0603078000715D5306960B1E5
:103D1000A8420AD0B84208D0404506D0484504D051
:103D200040F2A3310DA002F04DF8A068316920F4F3
:103D3000605040EAC100A06000F060F8A1681A4A33
:103D4000C1F30311515C01F01F01C840174908601D
:103D500017480068BDE8F047FFF788B82E2E2F44BB
:103D60007269766572732F53544D333247347878C5
:103D70005F48414C5F4472697665722F5372632FBE
:103D800073746D3332673478785F68616C5F726327
:103D9000632E6300002002400010024000B4C404FF
:103DA0000024F40000366E01F45F000820000020BB
:103DB000140000200548064900688968054AC1F3D7
:103DC0000221515C01F01F01C84070472000002013
:103DD0000010024004600008054806490068896830
:103DE000054AC1F3C221515C01F01F01C840704770
:103DF000200000200010024004600008184910B59F
:103E00008868C0F381021748012A0BD08A68164BD4
:103E1000C2F38102022A06D08A68C2F38102032A11
:103E200003D0002010BD184610BDCA6802F003047C
:103E3000CA68C2F30312521C032C02D0B0FBF2F08A
:103E400001E0B3FBF2F0CA68C968C2F3062250432E
:103E5000C1F34161491C4900B0FBF1F010BD000005
:103E6000001002400024F40000366E012DE9F843F2
:103E700004007DD0FE4D206870B1C1070FD18107CD
:103E800065D4810675D4010774D4400773D440F219
:103E90004511F8A001F096FF2078C00754D0606863
:103EA0004FF480364FF4A02740B1B04206D0B8425C
:103EB00004D040F24B11EFA001F084FFA868E9683C
:103EC00000F00C0001F003010C2802D0082809D0F2
:103ED00001E0032906D06068B0420AD1286840F4A6
:103EE000803013E0286880032ED560680028C0D099
:103EF0002AE0B842286803D140F480202860EDE72A
:103F000020F480302860286820F4802028606068D1
:103F100068B1FEF78DFA064605E000BFFEF788FAA5
:103F2000801B64287ED828688003F7D50CE0FEF754
:103F30007FFA064605E000BFFEF77AFA801B642888
:103F4000F0D828688003F7D42078800762D5E0682D
:103F500038B1B0F5807F04D04FF4C071C5A001F036
:103F600031FF20697F2809D940F28111C1A003E007
:103F7000AEE04FE051E087E001F024FFA868E96877
:103F800000F00C0001F003010C2802D004280DD031
:103F900001E002290AD0E068002828682AD040F40D
:103FA00080702860FEF744FA064618E0286840054D
:103FB00002D5E06800289AD06868217C20F0FE4095
:103FC00040EA01606860B9480068FEF74FFF0028CA
:103FD0007ED11FE0FEF72CFA801B0228A2D82868A9
:103FE0004005F7D56868217C20F0FE4040EA01607A
:103FF00068600FE020F480702860FEF719FA06462A
:1040000005E000BFFEF714FA801B02288AD8286852
:104010004005F7D42078000733D56069F0B1012856
:1040200008D000E0A9E14FF4E47192A001F0CAFECB
:10403000606998B1D5F8940040F00100C5F894008B
:10404000FEF7F6F9064604E0FEF7F2F9801B0228B7
:10405000C4D8D5F894008007F6D512E0D5F89400BE
:1040600020F00100C5F89400FEF7E2F9064604E0EE
:10407000FEF7DEF9801B0228B0D8D5F8940080073F
:10408000F6D4207840076FD5A068002640B10128FB
:1040900006D0052804D04FF4FA7176A001F092FE04
:1040A000A86DC00008D4A86D40F08050A865A86D28
:1040B000012600F0805000907D480168C90514D4A5
:1040C0000168804641F480710160FEF7B1F900E0BB
:1040D0008DE1074605E000BFFEF7AAF9C01B0228E4
:1040E00094D8D8F80000C005F6D5A068012815D0EE
:1040F0000528D5F8900016D020F00100C5F89000F2
:10410000D5F8900020F00400C5F89000A06841F2B6
:104110008838B8B1FEF78CF907460EE0D5F8900064
:1041200040F00100F0E740F00400C5F89000F5E72A
:10413000FEF77EF9C11B41458AD8D5F8900080076B
:10414000F6D50CE0FEF774F9074604E0FEF770F9C7
:10415000C11B414590D8D5F890008007F6D41EB118
:10416000A86D20F08050A8652078800631D5A06920
:10417000E0B1012806D040F23B213EA001F022FE32
:10418000A06998B1D5F8980040F00100C5F89800F2
:10419000FEF74EF9064604E0FEF74AF9801B0228B6
:1041A0009ED8D5F898008007F6D512E0D5F898008B
:1041B00020F00100C5F89800FEF73AF9064604E041
:1041C000FEF736F9801B02288AD8D5F898008007B8
:1041D000F6D4E06900286DD0012809D0022807D064
:1041E0004FF4197123A001F0EDFDE0690028F2D031
:1041F000A868C0F381000328E06979D0022807D0BD
:10420000286820F080702860FEF712F90446B7E0B5
:10421000206A40B1022806D0032804D040F26E2163
:1042200014A001F0CFFD606A401E0F2804D940F2AF
:104230006F2110A001F0C6FDA06A0838772804D9C4
:104240004FF41C710BA001F0BDFDE06A801E1D281B
:1042500004D940F2712107A001F0B4FD206B0228BF
:104260002FD004282DD006282BD0082829D022E0D2
:10427000001002402E2E2F447269766572732F5300
:10428000544D3332473478785F48414C5F4472690B
:104290007665722F5372632F73746D33326734787F
:1042A000785F68616C5F7263632E630014000020A6
:1042B000007000409DE040F27221AFF2480001F032
:1042C00081FD606B02280BD0042809D0062807D096
:1042D000082805D040F27321AFF2680001F072FDAA
:1042E000286820F080702860FEF7A2F8064606E0F5
:1042F0004EE000BFFEF79CF8801B02283DD82868DE
:104300008001F7D4F4E908016FF00F0202EB01110C
:104310000843218A5204490802EB4151A26841EA4C
:1043200002210843217D4FF07E42490802EB4161A2
:104330000843217B40EAC160E9682F4A11400843E5
:10434000E860286840F080702860E86840F080707D
:10435000E860FEF76DF8044605E000BFFEF768F878
:10436000001B022809D828688001F7D541E000BF6A
:10437000FEF75EF8001B022802D90320BDE8F8838F
:1043800028688001F4D4E8681C490840E86030E0FF
:104390000128F3D0E868226A00F00301914226D197
:1043A000616A00F0F0020901103991421FD1A26A3E
:1043B00000F4FE41B1EB022F19D194F82C2000F04B
:1043C0007841B1EBC26F12D1218E00F4C0024908CE
:1043D0004905A1F50011914209D194F8341000F07B
:1043E000C06049084906A1F10071814201D0012055
:1043F000C4E70020C2E700000C809F01FCFFEEFE36
:1044000010B5401EB0F1807F01D3012010BD4FF0E8
:10441000E02460610F21601701F04AFC0020A061D8
:1044200007202061002010BD10B5044600681B491C
:10443000884213D01A49884210D01A4988420DD0B8
:10444000194988420AD01949884207D01849884238
:1044500004D040F2362117A001F0B4FC94F8840097
:10446000012818D0012084F884002420C4F8880092
:1044700020680168026822F00102026021F0005009
:1044800000216166226810602020C4F8880084F84A
:104490008410084610BD022010BD00000038014005
:1044A0000044004000480040004C004000500040E4
:1044B000008000402E2E2F447269766572732F5350
:1044C000544D3332473478785F48414C5F447269C9
:1044D0007665722F5372632F73746D33326734783D
:1044E000785F68616C5F756172745F65782E6300D8
:1044F00070B50D46044600682749884213D0274905
:10450000884210D0264988420DD0264988420AD0D8
:104510002549884207D02549884204D040F2952198
:1045200023A001F04FFC9DB1B5F1007F10D0B5F193
:10453000806F0DD0B5F1C06F0AD0B5F1006F07D014
:10454000B5F1206F04D040F2962119A001F03AFC99
:1045500094F8840001281DD0012084F884002420D0
:10456000C4F8880020680668016821F00101016034
:104570002068816821F0606129438160204600F055
:1045800091FF206806602020C4F88800002084F88D
:10459000840070BD022070BD00380140004400401E
:1045A00000480040004C00400050004000800040A7
:1045B0002E2E2F447269766572732F53544D333209
:1045C000473478785F48414C5F4472697665722F52
:1045D0005372632F73746D3332673478785F686118
:1045E0006C5F756172745F65782E630070B50D46FF
:1045F000044600682749884213D02749884210D0D2
:10460000264988420DD0264988420AD02549884249
:1046100007D02549884204D04FF4197123A001F036
:10462000D1FB9DB1B5F1005F10D0B5F1804F0DD039
:10463000B5F1C04F0AD0B5F1004F07D0B5F1204F0A
:1046400004D040F2652119A001F0BCFB94F884006D
:1046500001281DD0012084F884002420C4F888009B
:1046600020680668016821F0010101602068816806
:1046700021F0604129438160204600F013FF20684B
:1046800006602020C4F88800002084F8840070BDF3
:10469000022070BD00380140004400400048004046
:1046A000004C004000500040008000402E2E2F445F
:1046B0007269766572732F53544D3332473478786C
:1046C0005F48414C5F4472697665722F5372632F65
:1046D00073746D3332673478785F68616C5F7561CD
:1046E00072745F65782E63002DE9F041040018D0E4
:1046F000A0692D4900282D4A2D4B2E4D2E4E2F4FAF
:10470000206811D0884220D090421ED098421CD000
:10471000A8421AD0B04218D0B84216D04FF49F71B8
:1047200010E00120BDE8F08188420ED090420CD00C
:1047300098420AD0A84208D0B04206D0B84204D06D
:1047400040F243111EA001F03DFBD4F8880028B9C7
:10475000002084F88400204600F050F82420C4F89B
:1047600088002068016821F001010160A06A10B191
:10477000204600F0B9FE204601F042F80128D1D0D1
:104780002068416821F4904141602068816821F0EF
:104790002A0181602068016841F001010160204622
:1047A000BDE8F04100F0ACBF0038014000440040DB
:1047B00000480040004C0040005000400080004095
:1047C0002E2E2F447269766572732F53544D3332F7
:1047D000473478785F48414C5F4472697665722F40
:1047E0005372632F73746D3332673478785F686106
:1047F0006C5F756172742E630000000010B59CB090
:104800000446142115A8FBF73BFD54216846FBF72D
:1048100037FD16492068884226D101200024CDE9C1
:1048200000046846FEF76EFE08B1FBF767FD10480E
:10483000016E41F480410166016E01F480411A91DC
:10484000C16C41F00201C164C06C15A900F0020006
:104850001A90C02015900220CDE916040720CDE95A
:1048600018400448FDF750FC1CB010BD0038014052
:1048700000100240000400482DE9F8430446D0F837
:104880008800984616460D46202802D00220BDE832
:10489000F883A5B19EB10020C4F890002120C4F88F
:1048A00088001834FDF7C4FDA6878146E68754F8D2
:1048B000100C2027183CB0F5805F02D003E00120E7
:1048C000E5E7206910B12E46002510E000260EE035
:1048D0008021204601F090F9C0B9DEB116F8010B35
:1048E00021688862B4F85600401EA4F85600B4F857
:1048F00056004B464FF00002CDF800800028E7D16B
:104900004FF04001204601F077F940B1C4F88870BB
:104910000320BCE735F8020BC0F30800E0E7C4F859
:1049200088700020B3E7072930D2DFE801F00A10D1
:10493000161C222804000068D0F8841341F00101FD
:1049400022E00068D0F8841341F002011CE0006806
:10495000D0F8841341F0040116E00068D0F8841305
:1049600041F0080110E00068D0F8841341F0100114
:104970000AE00068D0F8841341F0200104E00068E8
:10498000D0F8841341F04001C0F884137047000050
:1049900070B503681A68D3F8A0534C6922F020025E
:1049A0002646144324F0C002202E2BD08C69022C02
:1049B00028D0032C2BD0042C2ED022F0E00200BFF4
:1049C00022F40064CA69224322F480640A6A224302
:1049D00022F0C0644A6A224322F000648A6A2243B9
:1049E000CC6A22F0404242EA840222F000544A6B30
:1049F000096B224325F4803421431A600068C0F813
:104A0000A01370BD22F0C00242F02002D8E722F0CD
:104A1000800242F04002D3E722F0400242F08002DE
:104A2000CEE7F0B50024E426056806EBC11755F87B
:104A300007C0B82606EBC116AE59402A20D00EDCBE
:104A4000082A2CD006DC012A1AD0022A27D0042AF0
:104A500031D115E0102A13D0202A2CD11FE0B2F555
:104A6000007F1CD005DC802A19D0B2F5807F22D1CE
:104A700006E0B2F5806F03D0B2F5006F1BD10EE0F7
:104A80004FF0BC0E0EEBC11E5A6845F80E204FF0D9
:104A9000C00E05680EEBC1119A686A500BE0C42481
:104AA00004EBC1145A682A51C825046805EBC111EA
:104AB0009A6862501024FE21A1401A682CEA010C69
:104AC000A240D96842EA0C02A14011431A69D3F806
:104AD00014C01546A2400A430CFA04FC99694CEA3A
:104AE000020CA14041EA0C01082D06D1B20504D404
:104AF000B20102D4DA69A24011430068C151F0BD8D
:104B00002DE9F04F8024036804EBC117DC5924F031
:104B10007044DC510568EC59E82303EBC1139E4651
:104B200055F803C0E42303EBC1139B4655F803A0DB
:104B3000D5F8A033566924F020043443202E24D025
:104B40009669022E21D0032E24D0042E27D024F4DF
:104B5000D07400BF24F40066D469344324F4806622
:104B6000146A344324F0C066546A344324F0006667
:104B7000946A344324F07046D46A3443566B24F468
:104B80000034B6F1005F0FD010E024F4C07444F09C
:104B90002004DFE724F4807444F08004DAE724F092
:104BA000800444F48074D5E744F4003424F04008D1
:104BB000946B2CF03F0C264644EA080424F4802829
:104BC000946D44EA0804DFF8D08004EA0804D2F8BF
:104BD000508048EA040992F83C40D2F8408004F042
:104BE0003F0444EA0C0424F0004448EA0408546CEE
:104BF0002AF4807C44EA0C04D2F848C0BCF5606F0B
:104C000002D0BCF5F05F01D1402E03D124F4F05462
:104C10004CEA040424F48046D46C3443566D0629CF
:104C200027D2DFE801F003090F151B21126B23F4D3
:104C3000003343EA42031CE0126B23F4802343EA6F
:104C4000820316E0126B23F4002343EAC20310E050
:104C5000126B23F4801343EA02130AE0126B23F46D
:104C6000001343EA421304E0126B23F4800343EA87
:104C7000821345F80790056845F80E80056845F8E9
:104C80000B40D424026804EBC11156500068C0F8F0
:104C9000A033BDE8F08F0000FFFF06FEFEE700EB4B
:104CA0008100006E00F0F84070478068C0F3C000DB
:104CB00070478068C0F3800070478068C0F3800050
:104CC0007047042303EAD15310B518444369C1F374
:104CD000045107248C40A3438A401343436110BD11
:104CE00000EB8100016E21F0004111430166704725
:104CF00030B58BB0002408940994202168460A94AA
:104D0000FBF7BEFA1C484FF0A041042501604FF4A8
:104D10004031C0E90114C4600461C0E9054504776D
:104D200044770121016280F82440C462046380F862
:104D30003840C46380F84040FCF7C8F808B1FBF77E
:104D4000DDFA08A90C480894FBF752FB08B1FBF701
:104D5000D5FA0A4800900620CDE901047F20059489
:104D6000CDE9030569460448FBF768FC002801D03B
:104D7000FBF7C4FA0BB030BD34000020002090B621
:104D800030B589B020216846FBF77AFA19481849EE
:104D9000002401604FF44031C0E90114C4600425CF
:104DA0000461C0E90545047744770121016280F878
:104DB0002440C462046380F83840C46380F84040F3
:104DC000FCF784F808B1FBF799FA0B48009006202D
:104DD000CDE901047F200594CDE903056946054826
:104DE000FBF72CFC002801D0FBF788FA09B030BD96
:104DF00000010050A0000020000029C330B58BB096
:104E0000002408940994202168460A94FBF738FA94
:104E10001D481C49042501604FF44031C0E90114CC
:104E2000C4600461C0E9054504774477012101624B
:104E300080F82440C462046380F83840C46380F87A
:104E40004040FCF743F808B1FBF758FA08A90E48B0
:104E50000894FBF7CDFA08B1FBF750FA0B48009025
:104E60000620CDE901047F200594CDE903056946BC
:104E70000548FBF7E3FB002801D0FBF73FFA0BB036
:104E800030BD0000000400500C010020002098B646
:104E900030B589B020216846FBF7F2F91948184966
:104EA000002401604FF44031C0E90114C4600425BE
:104EB0000461C0E90545047744770121016280F867
:104EC0002440C462046380F83840C46380F84040E2
:104ED000FBF7FCFF08B1FBF711FA0B480090062026
:104EE000CDE901047F200594CDE903056946054815
:104EF000FBF7A4FB002801D0FBF700FA09B030BD96
:104F0000000500507801002000005AC730B589B074
:104F100020216846FBF7B4F91948184900240160BC
:104F2000C901C0E90114C46004250461C0E9054554
:104F3000047744770121016280F82440C46204634D
:104F400080F83840C46380F84040FBF7BFFF08B1E9
:104F5000FBF7D4F90B4800900620CDE901047F202F
:104F60000594CDE9030569460548FBF767FB002872
:104F700001D0FBF7C3F909B030BD000000060050B6
:104F8000E40100200800908C134810B5114901601D
:104F9000002141608160C1600174417481740A2202
:104FA0004261142282610D220323C0E907230123F9
:104FB00043620223C0E90A320422C0E90C32C0E98C
:104FC0000E21FCF7C5FD002803D0BDE81040FBF71B
:104FD00095B910BD006C004050020020074910B583
:104FE000054808600846FDF729F8002803D0BDE809
:104FF0001040FBF783B910BD00140240B40200203A
:10500000F0B587B014216846FBF73AF93048C16C17
:1050100041F00401C164C16C01F004010591C16C4F
:1050200041F02001C164C16C01F020010591C16C07
:1050300041F04001C164C16C01F040010591C16CB7
:1050400041F00101C164C16C01F001010591C16C25
:1050500041F00201C164C06C48F20F0600F002008A
:105060004FF090470590002231463846FDF7ACF9E5
:105070004EF650400325CDE9000500246946029410
:105080001448FDF741F87011CDE900056946029416
:105090001148FDF739F801200096CDE90104694671
:1050A00038460394FDF730F841F27000CDE9000571
:1050B000694602943846FDF727F848F22670CDE994
:1050C0000005694602940548FDF71EF807B0F0BDDB
:1050D0000010024000080048001800480004004882
:1050E00010B5ACB00024209421942294602168462D
:1050F0002394FBF7C5F81C2124A8FBF7C1F8202155
:1051000018A8FBF7BDF857485549C0E9001484605A
:10511000FDF7EEF908B1FBF7F1F80C215148FDF766
:105120008DF908B1FBF7EAF80A214E48FDF7DAFAE3
:1051300008B1FBF7E3F84FF6DF70CDE92004082053
:10514000CDE9224020AA06214648FDF7EDFA08B134
:10515000FBF7D4F80094019401200294CDE90340B8
:1051600008940594069407940D9409940A940B945A
:105170000C946A4606213B481794FDF711FC08B1D0
:10518000FBF7BCF820AA00213648FDF7CDFA08B19C
:10519000FBF7B4F8249424AA002132482A94FDF79E
:1051A00095FD08B1FBF7AAF8009401940F941094B0
:1051B00011940E941294149415946A46002129486F
:1051C0001694FDF7EDFB08B1FBF798F86A4601214C
:1051D0002448FDF7E5FB08B1FBF790F81894199403
:1051E0001A941B941C941D941E9418AB0122002148
:1051F0001C481F94FDF726FB08B1FBF77FF818AB9E
:10520000042201211748FDF71DFB08B1FBF776F8D2
:1052100018AB022200211348FDF714FB08B1FBF77D
:105220006DF818AB082201210E48FDF70BFB08B101
:10523000FBF764F820AA01210A48FDF775FA08B1C6
:10524000FBF75CF824AA01210648FDF73FFD08B1F1
:10525000FBF754F80348FDF71BFA2CB010BD000013
:1052600000680140EC0200200C4810B50A490160BA
:1052700000216022C0E901120822026101220275A8
:105280008161C162FDF7EEFE002803D0BDE8104049
:10529000FBF734B810BD000000030140E803002014
:1052A0000C4810B50A49016000216022C0E90112D2
:1052B00008220261012202758161C162FDF7D2FEFE
:1052C000002803D0BDE81040FBF718B810BD00005F
:1052D00004030140240400200C4810B50A49016071
:1052E00000216022C0E9011204220261012202753C
:1052F0008161C162FDF7B6FE002803D0BDE8104011
:10530000FAF7FCBF10BD0000080301406004002054
:105310000C4810B50A49016000216022C0E9011261
:1053200008220261012202758161C162FDF79AFEC5
:10533000002803D0BDE81040FAF7E0BF10BD000020
:105340000C0301409C0400200B4810B50949016082
:1053500000216022C0E90112012201610275816110
:10536000C162FDF77FFE002803D0BDE81040FAF7C8
:10537000C5BF10BD10030140D80400200C4810B573
:105380000A49016080214160602181600021012281
:10539000016102758161C162FDF764FE002803D0DE
:1053A000BDE81040FAF7AABF10BD00001403014089
:1053B00014050020184810B5164901604FF4E1317A
:1053C0004160002181600C22C160C0E9041281614A
:1053D000C161016241628162FFF786F908B1FAF7A3
:1053E0008DFF00210C48FFF701F908B1FAF786FF9D
:1053F00000210948FFF77CF808B1FAF77FFF06485B
:10540000FFF712F8002803D0BDE81040FAF776BF86
:1054100010BD00000038014050050020FEE7FEE707
:1054200070477047FDF70ABD10B594B03821684643
:10543000FAF726FF14210EA8FAF722FF0020FDF745
:10544000D3FF01200090032406210004CDE9084188
:10545000019002205521CDE90A1007900421CDE9E1
:105460000C106846FEF702FD08B172B6FEE70F2089
:10547000CDE90E040020109011904FF4806012903E
:1054800004210EA8FEF714FB002801D072B6FEE737
:1054900014B010BD0248016841F47001016070470A
:1054A00088ED00E030B5416EB9B10268916892684C
:1054B000C1F342610B4B520F9C5CE50003F1080401
:1054C000A25CB5FBF2F2A0F86A205A5C615CD200E3
:1054D000B2FBF1F1A0F8681030BD0121A0F86A100C
:1054E000F8E70000E45F000870B50446806AFF2812
:1054F00004D940F6AE416EA000F064FC94F8280098
:10550000000710D5A06B38B1B0F5004F04D040F6BD
:10551000B34167A000F056FC20684168A26B21F4FB
:1055200000411143416094F82800C00710D0E06AA0
:1055300038B1B0F5003F04D040F6BA415CA000F0AD
:1055400041FC20684168E26A21F400311143416066
:1055500094F82800800710D5206B38B1B0F5803F53
:1055600004D040F6C14152A000F02CFC20684168F4
:10557000226B21F480311143416094F828004007E8
:1055800010D5606B38B1B0F5802F04D040F6C8411B
:1055900047A000F017FC20684168626B21F480216D
:1055A0001143416094F82800C00610D5E06B38B173
:1055B000B0F5805F04D040F6CF413DA000F002FC82
:1055C00020688168E26B21F480511143816094F876
:1055D0002800800610D5206C38B1B0F5005F04D0EB
:1055E00040F6D64132A000F0EDFB20688168226CC5
:1055F00021F400511143816094F82800400640D501
:105600003A492068884210D0394988420DD039493A
:1056100088420AD03849884207D03849884204D0A5
:1056200040F6DD4122A000F0CDFB606C4FF4801508
:1056300030B1A84204D040F6DE411DA000F0C2FB0C
:1056400020684168626C21F4801111434160606CF4
:10565000A84216D1A06C68B1B0F5001F0AD0B0F511
:10566000800F07D0B0F5C00F04D040F6E34110A082
:1056700000F0A8FB20684168A26C21F4C00111432E
:10568000416094F82800000610D5E06C38B1B0F500
:10569000002F04D040F6EB4105A000F093FB2068FA
:1056A0004168E26C21F400211143416070BD0000AB
:1056B0002E2E2F447269766572732F53544D3332F8
:1056C000473478785F48414C5F4472697665722F41
:1056D0005372632F73746D3332673478785F686107
:1056E0006C5F756172742E63000000000038014029
:1056F0000044004000480040004C00400050004082
:105700002DE9F84300260446C0F89060FCF790FEAF
:105710008046206800684FF0200500076FF07E4744
:1057200013D54346002229042046009700F064FA6E
:1057300058B1216851E8000F20F0800041E80002D4
:10574000002AF6D1C4F8885021E02068006840079C
:1057500022D5434600224FF480012046009700F0F6
:105760004BFAC8B1216851E8000F20F4907041E86D
:105770000002002AF6D12068083050E8001F21F00E
:10578000010140E80012002AF5D1C4F88C5084F8D9
:1057900084600320BDE8F883C4F88850C4F88C50B6
:1057A00044F86C6F666026760020F3E710B5026857
:1057B00052E8001F21F4907142E80013002BF6D14B
:1057C0000E4B0268083252E8001F194042E80014EC
:1057D000002CF6D1C16E012908D1016851E8002FD3
:1057E00022F0100241E80023002BF6D12021C0F85E
:1057F0008C100021C166416710BD0000FEFFFFEF65
:105800002DE9F05F04464068DF490026884204D352
:1058100040F6DD31DDA000F0D5FAA0684FF48055E8
:10582000B0F1805F07D030B1A84204D040F6DE313D
:10583000D6A000F0C7FAE44F20687914B842E068B7
:1058400006D100281BD0884219D040F6E13113E080
:10585000A8420AD048B1B0F5405F06D0884204D0D3
:1058600040F6E531C9A000F0ADFA206A38B1B0F5D4
:10587000006F04D040F6E631C4A000F0A3FA20691E
:105880004FF4806948B1484507D0B0F5C06F04D0E7
:1058900040F6E931BDA000F095FA606930F00C01E6
:1058A00000D120B940F6EA31B8A000F08BFAA06927
:1058B0004FF4807A4FF4007B4FF4407850B150455C
:1058C00008D0584506D0404504D040F6EB31AFA093
:1058D00000F078FAE0694FF4004530B1A84204D0F6
:1058E00040F6EC31A9A000F06DFA606AD0B1012851
:1058F00018D0022816D0032814D0042812D0052866
:1059000010D006280ED007280CD008280AD0092865
:1059100008D00A2806D00B2804D040F6ED319BA011
:1059200000F050FA2169A068E269084361691143F7
:10593000226808431168A54B194001431160206893
:105940004168E26821F44051114341602168A06937
:10595000B94201D0226A10438A689D4B1A40024323
:105960008A602068C16A626A21F00F011143C16236
:105970009849226898488A420DD1D0F8880010F0E2
:10598000030006D0012863D0022850D003284DD14F
:1059900060E001204BE091498A420BD1D0F88800A9
:1059A00010F00C0043D0042841D008284ED00C2819
:1059B0003CD14FE08A498A420BD1D0F8880010F0E0
:1059C000300034D0102843D020283FD030282DD1AB
:1059D00040E084498A420BD1D0F8880010F0C00022
:1059E00025D0402834D0802830D0C0281ED131E0C6
:1059F0007D498A420BD1D0F8880010F4407016D04F
:105A0000504525D0584521D040450FD122E0BA421B
:105A10000CD1D0F8880010F4406008D0484517D069
:105A2000B0F5006F12D0B0F5406F13D010206F4961
:105A3000DFF8BC814FF00009BA423DD160B10228C5
:105A40000DD004280DD0082875D133E00220EEE7F0
:105A50000420ECE70820EAE7FEF7ACF903E008468B
:105A600002E0FEF7CBF920B3616A676838F81120CD
:105A700007EB4703B0FBF2F18B4273D8B1EB073F62
:105A800070D80023C8461946FAF7C2FB090241EA5A
:105A9000106102027808101841EB08013A46002311
:105AA000FAF7B6FB534AA0F5407191425AD82168E3
:105AB000C86058E02846D7E7E2694FF6EF77AA4278
:105AC0002DD109284ED2DFE800F005080B4D0D4D11
:105AD0004D4D2800FEF76EF906E0FEF77DF903E074
